:020000040800F2
:10000000080E062009030008158E00080179000873
:10001000118E0008E5210008459C00080000000042
:100020000000000000000000000000001B030008AA
:100030002D240008000000002D040008E303000840
:10004000230300082303000823030008FD9300088E
:1000500023030008230300082303000823030008E8
:1000600023030008230300082303000823030008D8
:1000700023030008230300082303000823030008C8
:1000800023030008230300082303000823030008B8
:1000900023030008230300082303000823030008A8
:1000A0002303000823030008230300082303000898
:1000B0002303000823030008230300082303000888
:1000C0002303000823030008230300082303000878
:1000D0002303000823030008230300082303000868
:1000E0002303000823030008230300082303000858
:1000F0002303000823030008230300080000000076
:100100002303000823030008230300082303000837
:10011000230300082303000849950008230300086F
:100120002303000823030008230300082303000817
:100130002303000823030008230300082303000807
:1001400023030008230300082303000823030008F7
:1001500023030008230300082303000823030008E7
:1001600023030008230300082303000823030008D7
:1001700023030008230300082124000800000000D6
:1001800023030008230300082303000823030008B7
:100190002303000823030008000000000000000003
:1001A0000000000000000000E9210008E57E0008D2
:1001B000D97E0008230300082303000800F002F89A
:1001C00000F092F80AA090E8000C82448344AAF15F
:1001D0000107DA4501D100F087F8AFF2090EBAE85D
:1001E0000F0013F0010F18BFFB1A43F0010318476B
:1001F000F8D5000018D60000103A24BF78C878C19E
:10020000FAD8520724BF30C830C144BF04680C601C
:10021000704700000023002400250026103A28BF64
:1002200078C1FBD8520728BF30C148BF0B60704768
:100230006E2900F01B84702900F07F8566290CF080
:10024000E08265290CF0DD8267290CF0DA826129F1
:100250000CF0D98203681B0A28BF41F0800169298C
:1002600000F0C883642900F0C583752900F0C283BB
:100270006F2900F00D85782900F04B85E92900F001
:10028000A784E42900F0A484F52900F0A184EF29D3
:1002900000F00A85F82900F04A850368DB0928BFC9
:1002A00041F08001632900F02484732900F029843F
:1002B000E32901F0AA81F32901F0AF810020704702
:1002C0001FB50CF091FA01F0FDF9040000200021A7
:1002D0000CF074FA401C6060002000210CF058FA09
:1002E000E0601FBD10B510BD01F0BFF91146FFF76A
:1002F000E7FF0BF00BF901F09BFA03B4FFF7F2FFF5
:1003000003BC09F0C1FC00000948804709480047C8
:10031000FEE7FEE7FEE7FEE7FEE7FEE7FEE7FEE7B5
:10032000FEE7FEE704480549054A064B7047000012
:10033000D5940008BD01000808080620080E062014
:10034000080A0620080A062000000000000000003D
:10035000B4D60520080E06200000000838D7052076
:1003600000000008001000E0BFD401000000FF40C2
:1003700072B65FF824005FF8241001F104010160F7
:100380004FF0E0205FF83010C0F8081D5FF834002F
:100390005FF83410096801605FF83800016841F0C7
:1003A000010101604FF0E0205FF8441041614FF01F
:1003B000070101614FF00001C0F8181D4FF07F41A7
:1003C000C0F81C1D5FF85C10C0F8201D7047FFF7D7
:1003D000FEBFFFF7FEBFFFF7FEBF01B5BDE801405E
:1003E000704701B500F094F8BDE801407047FFF791
:1003F000FEBFFFF7FEBF000000000000000000008D
:100400004FF000002A4A1060EFF3148020F004003F
:1004100080F3148862B64FF080504FF0E021C1F8AD
:10042000040DBFF34F8FBFF36F8FFEE72148224AC1
:100430004FF00003016891B10360EFF3098C2CE9E0
:10044000F00F1EF0100F01D12CED108A1B4C4CF850
:1004500004ED2568C1F808C00DB18D61236072B646
:100460001168B1B1016062B64F68154C8D6907F132
:1004700001074F602560D1F808C05CF804EB1EF05E
:10048000100F01D100F01EB8BCE8F00F8CF3098802
:10049000704772B61168016009B962B6F9E74FF0AA
:1004A00000674FF0E028C8F8047D62B6DCE77047CB
:1004B000E0010020C8010020CC010020F001002054
:1004C000F0010020BCEC088ABCEC08CAFFF7DCBFD6
:1004D000026922F00702A2F144026FF002031360E6
:1004E0004FF0000353609360D360136153619361D5
:1004F000D361136253629362D362136353634FF009
:10050000FF339363D1634FF080731364826070474D
:100510002249086800F101000860214B1A683AB1CD
:10052000A2F101021A601AB91E4B4FF001001860C7
:100530001D490868026822B11C4B4FF001021A6085
:1005400008E000F104001A4B1A68904201D1194BDF
:1005500018680860184B1A6812B918490868D0B1B1
:100560002DE901401649086808B10AF01DFB154B3A
:100570001A6872B10AF0C6FA1348016849B91348FB
:100580000168134A136813484FF08052994200D013
:100590000260BDE80140BFF34F8F7047EC010020BF
:1005A000F0010020F401002004020020F8010020E6
:1005B0000802002000020020F4010020F8010020C1
:1005C000F8010020F4010020E0010020C801002013
:1005D000CC01002004ED00E0704753EA020C00F06B
:1005E00069802DE9F04B4FF00006002B1FBFB3FAD6
:1005F00083F503FA05F424FA05F65E4012BF1643AC
:10060000B2FA82F502FA05F4C5F120051EBF22FAFE
:1006100005FC44EA0C04203556EA044C4FEA144425
:1006200018BF641C4FF000084FF00009904271EBB6
:10063000030C39D3002919BFB1FA81F701FA07F683
:10064000B0FA80F700FA07F6C7F120071EBF20FABC
:1006500007FC46EA0C062037B6FBF4FCA7EB0507BF
:10066000103F07F01F0BCBF120062CFA06F60CFA10
:100670000BFB44BFB3460026202FA4BF5E464FF0BD
:10068000000B5BEA060C08BF4FF0010B19EB0B09DE
:1006900048EB0608ABFB027C06FB02CC0BFB03CC51
:1006A000C01B71EB0C01C1E70B46024641464846B0
:1006B000BDE8F08B13B5084318BF4FF0FF3001467B
:1006C000AFF30080BDE81C40704700007CB51D46BC
:1006D00016460C00009001D02044401E074B7B447E
:1006E0002A4669460190304600F0D9F905461CB10A
:1006F0000020694600F0E6F928467CBDED030000C5
:100700000FB47CB50C0009AA009001D02044401E13
:10071000084B7B4469460190089800F0C0F90546F3
:100720001CB10020694600F0CDF928467CBC5DF87C
:1007300014FB0000B903000070B50C460546012A01
:1007400005D02878800600D5EA69002302E001235D
:1007500005E05B1C934202D2E05C0028F9D1A86955
:10076000E618C01AA861286A18442862284600F0D2
:1007700007F904E0D5E9012114F8010B9047B442D0
:10078000F8D3284600F012F970BD00002DE9F05FA3
:10079000894604464FF0000ADFF874B1FB44C0F804
:1007A00020A02046E1688847002874D0252806D07C
:1007B000D4E901219047206A401C2062F1E700261D
:1007C0005F462046E16888472028054607DB312D33
:1007D00005D2781910F8200C08B10643F1E7B007EC
:1007E00001D526F00406C4F81CA00027C4F818A000
:1007F0002A2D09D028460BF0C3FF38B304EB870835
:10080000303DC8F8185019E059F8041B204604EB95
:1008100087029161E1688847012F054618D1E06998
:10082000002820DA26F020061DE0D8F8180000EB9A
:10083000800005EB40003038C8F818002046E16819
:10084000884705460BF09CFF0028EED1012F0AD007
:100850002E2D08D12046E16888477F1C0546022FCF
:1008600046F02006C4DBA069002803DA404246F0C7
:100870000106A061F00701D026F010066C2D0BD008
:10088000682D09D04C2D39D06A2D35D0742D35D036
:100890007A2D33D016E038E0E1682F4620468847AD
:1008A000B842054609D16C2F26D04FF48060E1682C
:1008B000064320468847054604E06C2F1AD04FF4C3
:1008C000807006430DB3A5F14100192802D82035E8
:1008D00046F400664A462946204626604E46FFF703
:1008E000A7FC80B101280BD0F61D26F0070000F10F
:1008F000080956E74020E4E78020D8E70020D6E743
:1009000006F104094DE7284652E7206A00F002B8D4
:100910006AC0000030BCBDE8C09F02F0FF0343EA9C
:10092000032242EA024200F015BA4FF0000200B57D
:10093000134694469646203922BFA0E80C50A0E802
:100940000C50B1F12001BFF4F7AF090728BFA0E8B0
:100950000C5048BF0CC05DF804EB890028BF40F87C
:10096000042B08BF704748BF20F8022B11F0804FBE
:1009700018BF00F8012B70477047704770477047E9
:1009800070B5044685690068C10601D5302600E0CF
:100990002026C00707D070BDD4E90121304690471A
:1009A000206A401C20626D1EF6D570BD70B50446ED
:1009B00085690078C00707D170BDD4E901212020E6
:1009C0009047206A401C20626D1EF6D570BD0968F4
:1009D0004A0501D540B27047C905FCD500B2704741
:1009E00009684A0501D5C0B27047C905FCD580B277
:1009F000704700002DE9F041064600241068752973
:100A0000314616A510D0FFF7E2FF002802DA404277
:100A100013A507E031688A0701D512A502E049074E
:100A200004D511A5012401E0FFF7DAFF00210A2215
:100A300006F1240709E0B0FBF2FCB0FBF2F302FB85
:100A40001C00303078541846491C0028F3D1234646
:100A50002A463046BDE8F04100F0E1B90000000050
:100A60002D0000002B00000020000000116802682B
:100A7000006A530501D508700AE0D30501D5088046
:100A800006E0130603D5C217C1E9000200E00860C2
:100A90000120704701694A1C02610878704700B55F
:100AA0008FB0CDE901310021059105497944CDE9A7
:100AB000031011466846FFF769FE0FB000BD000045
:100AC000E5FFFFFF0A6802F8010B0A607047D1E9F1
:100AD00000239A4202D2531C0B601070704710B56D
:100AE000436913B1AFF3008001E0FFF725FE012059
:100AF00010BD127800F124010A7000224A70012210
:100B0000EDE711684FF0FF32E9E700002DE9FF5FE4
:100B100015468A460446DFF8AC80F8440027D8E939
:100B200000103E46CDE9001010E03AF816106A4673
:100B300002A800F076FD411C07D02178890603D574
:100B4000E269391891420DD80744761C2078800656
:100B500002D5E069B84205DDAE42E6DB3AF81600A0
:100B60000028E2D1A069C01BA0612046FFF708FF62
:100B7000D8E90010CDE90010002017E03AF818106D
:100B80006A4602A800F04DFDB0F1FF3F81460BD050
:100B900000250DF1080B05E0D4E901211BF8050043
:100BA00090476D1C4D45F7D308F10100B0428046D7
:100BB000E4DB206A384420622046FFF7F7FE00F0AD
:100BC00003B80000FEBC00003FBCBDE8C09F0000B1
:100BD0002DE9F0418046D21D22F007020025D2E91E
:100BE0000002F52915A614D0011E72F1000106DAE3
:100BF0000023D0EB030063EB020211A608E0D8F853
:100C000000108B0701D50FA602E0490701D50EA6FB
:100C100001251146002408F1240704E000F0BAF889
:100C200030323A55641C50EA0102F7D12B46324665
:100C300021464046BDE8F04100F0F1B80000000058
:100C40002D0000002B0000002000000030B4002127
:100C500000F1240408E002F00705D208303542EA2A
:100C60004372DB086554491C52EA0305F3D104685A
:100C7000002310A2250708D504F020040C4304D05B
:100C8000C46901230CA2641EC46130BC00F0C7B863
:100C900010B5044621461068FFF7A2FE0246204622
:100CA000BDE810400023D1E7D21D22F00701D1E9B1
:100CB0000023CBE70000000030000000F0B40D4638
:100CC0000188090502D5214C7C4402E01F4C7C447C
:100CD0000E34002100F1240608E002F00F0712098B
:100CE000E75D42EA03721B097754491C52EA030785
:100CF000F3D102780023120704D5702D06D009B174
:100D0000022311342246F0BC00F089B801231034CC
:100D1000F8E770B504460D4621461068FFF760FEFF
:100D2000024629462046BDE870400023C6E7D21D92
:100D300022F00703D3E90023C0E70368126843F0F9
:100D4000200303600823C3610023B7E758BB0000FA
:100D50004FF000020429C0F0128010F0030C3FF4A1
:100D6000E6ADCCF1040CBCF1020F18BF00F8012B6A
:100D7000A8BF20F8022BA1EB0C01FFF7D8BD5FEA5A
:100D8000C17C24BF00F8012B00F8012B48BF00F8FC
:100D9000012B704730B5B0F10A0271F100034FEA40
:100DA000900E4EEA817EB0EB0E0061EB91014FEAAE
:100DB000101E4EEA017E10EB0E0041EB11114FEABE
:100DC000102E4EEA016E10EB0E0041EB11214FEA9E
:100DD000104E4EEA014E10EB0E0041EB114140184F
:100DE00041F100014FEAD00040EA41704FEAD101E1
:100DF0004FEA810444EA907410EB800544EB01044F
:100E00006D1944EB0404521BA3414FF0000348BF8B
:100E10000A3200D530BD401C41F1000130BD2DE942
:100E2000F0470D4699469246044600F124080168B1
:100E3000880604D5E06921F01001216000E001205E
:100E4000A84201DD471B00E00027A1697A1902EBE7
:100E50000900081AA0612078C00602D42046FFF7D6
:100E60008FFD002608E0D4E901211AF8060090471A
:100E7000206A401C761C20624E45F4DB2078C006B8
:100E80000AD52046FFF77CFD06E0D4E90121302099
:100E90009047206A401C2062381EA7F10107F4DC4D
:100EA00007E0D4E9012118F805009047206A401CAA
:100EB0002062281EA5F10105F3DC2046FFF776FD30
:100EC0002078000602D50220BDE8F0870120FBE76C
:100ED0002DE9FF4F0C461E464FF0FF378BB0D2E98D
:100EE0000001DDF860800A908A46C1F30A5505B911
:100EF0003D46002108464FF00000BAF1000F00F413
:100F0000400005DA00EB80004FF4400101EA500098
:100F10004FEA9059B9F1010F00DDB9460A9850EA3D
:100F20004A000ED044F61050A5F2FF3545432F1469
:100F3000B8F1000F1ED07542291E1EDDC9F1000256
:100F40001CE0B8F1010F4FF0000001D0302103E0A8
:100F5000F24305E02154401CB042FBDB3046002246
:100F6000002121540B99C1F80880C1E900200FB07D
:100F700000F0BCB9BD1B6D1CDEE74A4600DA6942D1
:100F800006A800F0E3FB06AB93E8070003AB83E899
:100F9000070050460A990BF013F88DE80700A0F5FA
:100FA00000501F3800900398002D0ADD42F21F0107
:100FB0004A460844002303A9039068460BF07CFAD4
:100FC00009E0A0F500504A461F38002303A903900A
:100FD00068460BF086FA8DE807000004000C03D089
:100FE0004FF0FF30410800E01046B8F1000F03D089
:100FF0000022009215461EE0751E05D4FFF7CAFEBA
:10100000303262556D1EF9D5B3460122084302D035
:1010100000227F1C04E02078302801D100227F1EAE
:10102000002A099784D01DE0112D07DAFFF7B2FEE0
:10103000303262556D1C50EA0102F5D1084302D0EE
:101040000098C8B10EE00021681E05E0235C625CD8
:1010500063542254401E491C8142F7DBAB46A81B57
:10106000401E0990002004F80B000B98099AC0F864
:101070000880C0E9002B7AE711264FF0000857E7F7
:101080002DE9F04F88460446D21D22F0070191B0A9
:10109000D1E90001CDE90A010BF05AFB02460B9899
:1010A000C00F01D02D2007E02068810701D52B203B
:1010B00002E0202101EAC000032A099001D0072A9A
:1010C00005DB03464146204600F000FB0BE120789B
:1010D000800601D5E06900E00620B8F1650F814681
:1010E00006D0B8F1660F18D0B8F1670F70D131E0B3
:1010F0000020B9F1110F009001DB112301E009F18B
:1011000001030AAA01A90CA8FFF7E2FEDDE90C70B1
:10111000002609F10105834647E001204B46009077
:101120004FF000470AAA01A90CA8FFF7D1FEDDE99C
:101130000DB00C995D46002610B909F101000D189B
:10114000B9EB050003D4C0F1FF3609F10105A5EBA9
:1011500009002BE0B9F1010F01DA4FF0010900207D
:10116000B9F1110F0090484601DD112300E003465C
:101170000AAA01A90CA8FFF7ABFEDDE90C704D46E9
:1011800000268346207800070AD4AB4500DA5D4686
:1011900001A8012D04DD411911F8011C302907D0E7
:1011A0004F4502DA17F1040F04DA012082460FE0FE
:1011B0006D1EEEE7002F02DCED1B3E4403E0781CC1
:1011C000A84200DD7D1CB81B00F1010A4FF000476A
:1011D0002078000703D4AA4501DB4FF0FF3A002135
:1011E000B7F1004F0DF143088DF8431024D00220D1
:1011F0002B23002F01DA7F422D230A21021EA0F1AA
:10120000010000DC5FB197FBF1FC97FBF1F201FB01
:101210001C7C17460CF1300C08F801CDEEE7A8F164
:10122000010003702188090501D5452100E06521F1
:10123000A0F1010800F8011C09980FA9A1EB08070B
:10124000FF1D00B10120411901EBEA70A16938448A
:10125000081A401EA0612078C00602D42046FFF77D
:101260008FFB099828B1D4E901219047206A401CDE
:1012700020622078C00622D52046FFF781FB1EE0C1
:10128000002E04DBB34502DD01A8805D00E03020C4
:10129000D4E901219047206A401C2062761CAAF103
:1012A00001005FEA000A0AD100F00CFAC068016888
:1012B000405CD4E901219047206A401C2062281E2E
:1012C000A5F10105DCDC07E0D4E9012118F8010BE8
:1012D0009047206A401C2062381EA7F10107F3DC0A
:1012E0002046FFF763FB032011B041E630BCBDE8A8
:1012F000C08F00002DE9F04F04460D46D21D22F0AC
:10130000070089B0D0E90097484639460BF020FA2B
:101310000246F80F01D02D2307E02068810701D590
:101320002B2302E0202101EAC0038DF820300BB10D
:10133000012000E00020032A824601D0072A04DBB6
:101340002946204600F0C2F93FE12078800601D40A
:101350000D2500E0E569C7F30A560D2D49DA002195
:101360004FEA175B08464FF00000002F00F44000E2
:1013700007DA00EB80004FF4400100EBD07001EA87
:1013800060008115012901DD4FF0FF3100224FEA95
:10139000850CBCF1180F06D31346ACF118004FF0C2
:1013A0008052C24003E04FF4801323FA0CF30CF197
:1013B0000C0CBCF1200F04D3ACF1200C09FA0CF09A
:1013C00001E007FA0CF000294FF0004801DD18B9E0
:1013D0000FE00ED140450CD319EB02095F4121B952
:1013E000404502D19F4329EA0209BBEB175F00D0B9
:1013F000761C2088000502D57B48784402E07A48B4
:101400007844193808AA302302F80A30037C0AF11C
:101410000101002E0AF1020A53546A4602DC4FF021
:10142000300101E04FF031014FF001088DF800105C
:1014300002D0A6F2FF3603E059EA470100D06B4E16
:10144000002D02DC2178090704D54FF002082E2177
:101450008DF80110C44600210BE0C7F303433F01A0
:10146000C35C491C6D1E02F80830052908F101080B
:1014700001DA002DF1DC00210CE000EB1973491CAE
:101480001B786D1E082902F808304FEA091908F187
:10149000010801DA002DF0DC21688B0602D516E088
:1014A000A8F10108E04505DD02EB080313F8013C53
:1014B000302BF5D0B8F1000F09DD02EB080313F86B
:1014C000013C2E2B03D1090701D4A8F10108002DFE
:1014D00005DD3E2102F808106D1E08F10108407C70
:1014E000002E02F8080008F1010804DA2D207642E7
:1014F00002F8080002E02B2002F808000A214FF44D
:101500007A70864208F101080BDB96FBF0F330336A
:1015100002F8083096FBF0F308F1010800FB1366AF
:1015200001E0642E0CDB642096FBF0F3303302F80C
:10153000083096FBF0F308F1010800FB136601E0A8
:101540000A2E06DB96FBF1F0303002F8080008F1B5
:10155000010896FBF1F001FB1060303002F8080042
:10156000A16908F1010808EB050202EB0A00081A5C
:10157000A0612078C00602D42046FFF701FA216A54
:1015800008AE01EB0A00206204E0D4E9012116F85C
:10159000010B9047BAF1010AF7D22078C00602D5B4
:1015A0002046FFF7EDF96E4609E016F8010B3E28DC
:1015B0000FD0D4E901219047206A401C2062B8F185
:1015C0000108F2D22046FFF7F1F909B0032000F03C
:1015D0000FB8206A2844206203E0D4E901213020BA
:1015E00090476D1EEBD3F8E761B4000002FCFFFFEB
:1015F00030BCBDE8C08F10B5436913B1AFF30080B4
:1016000001E0FFF783FA012010BD128800F12401E8
:1016100082840022C2840122EDE711684FF0FF327C
:10162000E9E72DE9F04116460C46054600F042F880
:10163000036893F80101012807D0FF2C12D8185D28
:1016400080B101202C70BDE8F081D3F8070132464B
:10165000214603F20713C7182846BC46BDE8F041EF
:10166000002360474FF0FF30EDE7754600F0EAF8E1
:10167000AE4605006946534620F00700854618B07F
:1016800020B5FEF74FFEBDE820404FF000064FF0BA
:1016900000074FF000084FF0000BAC46ACE8C00963
:1016A000ACE8C009ACE8C009ACE8C00921F007010A
:1016B0008D46704710B500F005F8001D10BD00BF45
:1016C000FDB0000000487047100100202DE9F041F6
:1016D0001F46044603260168072A01F4006004DB64
:1016E00008B116A505E016A503E008B115A500E0B0
:1016F00015A521F010002060A069C01EA0610FB1E7
:10170000401EA0612046FFF73BF94FB1D4E901210B
:1017100038469047206A401C2062C01C206206E0C8
:10172000206AFAE7D4E9012115F8010B9047761EEB
:10173000F8D22046FFF73AF9BDE8F0814E414E005D
:101740006E616E00494E4600696E66002DE9F047F5
:10175000814616468AB0354878440DC88DE80D009C
:1017600032487844801C03AC0DC884E80D0041F673
:101770009B300844372190FBF1F290FBF1F5A5F185
:10178000800501FB12041B3C02D56442012000E0ED
:101790000020DFF898A080460027FA44AAF1BE0A8C
:1017A0000EE0E0070AD03246684607EB4701012306
:1017B0000AEB81010AF095FE8DE8070064107F1C9A
:1017C000002CEED1194F7F44AE3F19E0E80715D049
:1017D00007EB04100DF1180A90E80E008AE80E00DD
:1017E000C068F04201D1981908903246012306A939
:1017F00003A80AF076FE03AB83E807006D10641CB3
:10180000002DE3D14FF0010332466946B8F1000FD5
:1018100003A802D00AF050FE01E00AF062FEC9E916
:101820000001C9F808200AB0BDE8F08794B10000B3
:1018300010B50446AFF300802046BDE81040FEF727
:101840005CBD000000487047F00000200000000070
:1018500030B44FF0013C50F8042B51F8043BCCFA63
:1018600052F4D51A20D1FCB950F8042B51F8043B9E
:10187000CCFA52F4D51A17D1B4B950F8042B51F858
:10188000043BCCFA52F4D51A0ED16CB950F8042BA3
:1018900051F8043BCCFA52F4D51A05D1002CDAD019
:1018A00030BC4FF00000704729BAB1FA81F111F055
:1018B0001801D1F120008440F2D1CA40CB4012F08F
:1018C000FF0213F0FF0330BCD01A704788B007F056
:1018D0009BFD00F0ADFD4DF2A960C0F600004DF299
:1018E00095624DF29D630090C0F60002C0F60003C1
:1018F00000200021002400F0EDF800F0ABFB4DF2D9
:101900007762C0F600020020002100F0E3F807F043
:10191000EBFD08F099F94DF28562C0F60002002057
:10192000002100F0D7F84DF26362C0F600020020FB
:10193000002100F0CFF800F0CBF829A20020002110
:1019400000F0C8F842F2D03206204FF40051C2F243
:101950000002CDE90021CDE9020044F2D03041F689
:101960003922B0250126C2F2000020A1C0F60002F3
:101970000023CDE90446069509F004FD40F27022EB
:1019800005204FF48051C2F20002CDE90021CDE9DB
:10199000020041F2702047F69D62C2F2000016A1DB
:1019A000C0F600020023CDE90446069509F0EAFCE2
:1019B0004DF69045C2F2050513A400BF287C697C52
:1019C000EB7B6E69CDE900010220042122460296DC
:1019D00000F080F84FF47A7007F072FBEEE700BF7A
:1019E000496E6974204F6B0D0A0000004170702031
:1019F000546573740000000041707020496E70756A
:101A000074205465737400005B253032643A2530CD
:101A100032643A253032645D09436F726554656DF6
:101A20007065723A256C6409546872656164582067
:101A300049646C650D0A00004BF2000640F2600933
:101A400040F2002A40F286184DF60C55C4F2020608
:101A5000C2F20009C0F2030A4FF0405B40F27A2460
:101A60000127C0F28618C2F2050506E0284601F0FB
:101A7000D5FB42F2107007F023FB0220052110A2D3
:101A800000F028F8D9F80000C6F800A0B063C6F846
:101A90003CB034647763C6F84480306840F001009D
:101AA000306000BF3068C0071FBF30685FEAC07099
:101AB00030685FEAC070D9D03068C007F2D1D5E78E
:101AC000417070205461736B20546573740D0A006B
:101AD0007047000081B070B5B7B005293B9301D9BC
:101AE00001245BE0054630A050F82130164634A2B0
:101AF0000DF1D2000A21FEF703FE04463BAB0DF1C7
:101B00000900C92132460193FEF7E0FD002D05468C
:101B10002CD04DF6A940C2F20500007830B344F253
:101B20008040C2F200004FF0FF3107F099F9012C1C
:101B300009DB4DF63470A2B2C2F205000DF1D201FC
:101B4000642305F06FFE012D09DB4DF63470AAB257
:101B5000C2F205000DF10901642305F063FE44F2B1
:101B60008040C2F2000007F083F917E0012C09DB86
:101B70004DF63470A2B2C2F205000DF1D201642319
:101B800005F050FE012D09DB4DF63470AAB2C2F209
:101B900005000DF10901642305F044FE204637B02D
:101BA000BDE8704001B070470FD6000819D6000894
:101BB0002AD6000820D6000825D6000813D600082B
:101BC0005B25735D0000000010B588B041F2203342
:101BD0000124002010214FF48052C2F20003CDE90D
:101BE0000032CDE90211CDE9040442F2203041F681
:101BF000CD024FF0B00CC2F2000008A1C0F6000206
:101C00000023CDF818C009F0BDFB4DF6A941C2F282
:101C1000050100200C7008B010BD00BF417070209D
:101C20007072696E74660000FEE7000080B50A46B7
:101C300040F2C401C2F200010B69014684209847BA
:101C4000002080BDB0B54DF6C474C2F20504206812
:101C500008B10020B0BD40F27800C2F20000416936
:101C6000842088470A2001F045FB40F2C405C2F2F7
:101C7000000569688420884740F00200C0B27B28D4
:101C80000DD12968256051B184208847EA684FF654
:101C9000FF71C0F20301842090470020B0BD0120F5
:101CA000B0BD00000A46014640F2C400C2F2000086
:101CB000436984201847000080B54DF6347044F223
:101CC0000041C2F20500C4F2000100234FF00C0CE9
:101CD0004FF4E13280E80E00C0E90333C0E905C3E8
:101CE000C0E90733C0E9093305F036FD30B14DF2E4
:101CF000AB70C0F600001E2100F0BCFB4DF6347046
:101D0000C2F20500002105F0DFFC30B14DF2AB70EE
:101D1000C0F60000222100F0ADFB4DF63470C2F297
:101D20000500002105F088FC30B14DF2AB70C0F623
:101D30000000262100F09EFB4DF63470C2F2050033
:101D400005F05EFC002808BF80BD4DF2AB70C0F608
:101D500000002A21BDE8804000F08CBBB0B5AEB0D9
:101D60000446002502A89C212D95CDE92B55CDE9EF
:101D70002955FEF7DAFD206844F20041C4F2000163
:101D8000884201D02EB0B0BD022402A80294129560
:101D900003F05EFB30B14DF2AB70C0F600003721AE
:101DA00000F068FB41F24C00C4F20200C16841F44B
:101DB0000031C160C16801F40031019101990168ED
:101DC00041F001010160006829A900F001000190C3
:101DD00001980C20CDE9290400202B9003202C90A1
:101DE00007202D904FF0904001F070FC2EB0B0BD58
:101DF00010B590B04DF69C6040F200410024C2F254
:101E00000500C4F20001FF230F94CDE90D44CDE994
:101E10000B44CDE90944CDE90744CDE90544CDE9BA
:101E20000344CDE90144772280E81600C0E9033479
:101E3000846105F0C3FA30B14DF2AB70C0F600001A
:101E40006A2100F017FB4DF69C60C2F2050008A95C
:101E500008940A9404F038FF30B14DF2AB70C0F62C
:101E60000000702100F006FB60200190C820029065
:101E70004DF69C600024C2F2050001A90C220394D7
:101E8000059405F0D7F830B14DF2AB70C0F6000004
:101E9000782100F0EFFA41F24C00C4F20200016830
:101EA00041F00201016000680BA900F002000090FF
:101EB00000980220CDE90B00CDE90D440F9040F2CF
:101EC0000040C4F6000001F001FC10B010BD00009D
:101ED00081B0006840F20041C4F20001884201D0A4
:101EE00001B0704741F25800C4F20200016841F0AD
:101EF00002010160006800F002000090009801B04B
:101F000070470000F0B585B04DF6FC5441F2000773
:101F1000C2F20504CAF20007002520460495CDE967
:101F20000255CDE90055276002F014FF30B14DF2A3
:101F3000AB70C0F60000A42100F09CFA04204FF022
:101F400080711A220226C4E900704FF08050C4E963
:101F50000251C4E90426C4E90655C4E90865C4E988
:101F60000A052046256302F00BFF30B14DF2AB703D
:101F7000C0F60000B62100F07DFA0220C0F2010098
:101F8000CDE90066039000F57F0004904DF6FC500B
:101F9000C2F20500694641F28832029602F07CFBEB
:101FA00030B14DF2AB70C0F60000BF2100F062FA14
:101FB00005B0F0BD10B590B04DF64C6040F2041283
:101FC000C2F205004FF02043CAF2000200214FF098
:101FD000040E4FF0100C4FF40074C0E900324FF4BF
:101FE0008052C0E90211C0E904ECC0E90614C0E95E
:101FF00008120A224FF4001309920622C0E90A11BE
:10200000C0E90C11C0E90E130A9201220223CDF897
:1020100020E0CDE90B22CDE90D3303230F240093FB
:10202000CDE9014303AB83E806101122C0E910118A
:102030000F91CDE9062108A96A4604F089FD38B15F
:102040004DF2AB70C0F6000040F23B1100F012FA06
:1020500010B010BD2DE9F04186B042F60005C4F283
:10206000000500F027FA00F01DFA40F25014C2F209
:10207000000405F50231204640F8241F0026012106
:102080008680C0E90566016200F016FB30B14DF2B2
:10209000F260C0F600004E2100F0ECF97F2004F160
:1020A0000802F921C4E9005643C22046C4E9056686
:1020B000E66104F051FB30B14DF2F260C0F6000071
:1020C000782100F0D7F940F25018C2F200084046DB
:1020D0000021042204F03CFA30B14DF2F260C0F667
:1020E00000007E2100F0C6F94DF69040D8F800308F
:1020F000C2F20500D0E90212058ADC68080C64F41B
:10210000906424F48064DC608DF815000120160CC6
:10211000170E8DF817108DF816208DF8140005A9EC
:1021200040460022002404F0AFFB30B14DF2F260D3
:10213000C0F600009D2100F09DF9F3B223A200201B
:1021400000218DF800708DF801508DF80240019447
:10215000FFF7C0FC40F25010C2F2000069460022B6
:10216000CDE9034404F03CFC002818BF00F094F9CA
:10217000FFF768FD4FF480700021FFF793FD4FF4E7
:1021800080700121FFF752FD012001F0B3F84FF4F8
:1021900080200021FFF786FD4FF480200121FFF70A
:1021A00045FD0F2001F0A6F84FF480600121FFF7F4
:1021B0003DFD4FF480600121FFF774FD782001F0B0
:1021C00099F806F0D5F906B0BDE8F0815265616C6A
:1021D00054696D652E466C616773203D2025640D42
:1021E0000A000000FEE700004DF6AC40C2F2050018
:1021F00000F010BBB0B5ACB020A82421FEF795FBD1
:1022000000240DA83421CDE91E44CDE91C44CDE9BC
:102210001A44FEF78AFB02A82C21FEF786FB4DF636
:102220000C5046F60041C2F20500C4F20101C0E9BB
:1022300000147D2129AB042216C329A9C0E9022478
:1022400000F070FE30B14DF27170C0F60000D72181
:1022500000F010F90120CDE920044DF60C50C2F237
:10226000050020A9CDE92244CDE92444CDE9264446
:10227000289400F015FD30B14DF27170C0F60000E9
:10228000E42100F0F7F81C201A9021201B900F2069
:102290001C9019201D9000201E9007201F904DF6C5
:1022A0000C50C2F205001AA900F072FD30B14DF2D7
:1022B0007170C0F60000EE2100F0DCF84DF60C5015
:1022C000C2F20500042100F0D9FC30B14DF271706A
:1022D000C0F60000F22100F0CDF84DF60C50C2F22D
:1022E000050042F2107100F0BBFF30B14DF2717089
:1022F000C0F60000F62100F0BDF84DF60C50C2F219
:1023000005000021002400F03FFC30B14DF2717057
:10231000C0F60000FA2100F0ADF84FF480700D9087
:102320004FF400700E904FF480600F904FF40060F7
:1023300010904FF4805011904FF40050CDE91204EA
:102340004FF4803014904FF4003015904FF48020FB
:10235000CDE916044DF60C50C2F205000DA9CDE9E9
:10236000184400F0D5FB38B14DF27170C0F6000092
:1023700040F20B1100F07EF8052103914FF4C37178
:10238000049110210591202106910421002007913C
:1023900002210290CDE908100A9040200B90012004
:1023A0000C904DF60C50C2F2050002A900F038FB6B
:1023B00038B14DF27170C0F600004FF48D7100F02D
:1023C00059F84DF60C54C2F20504204600210025B0
:1023D00000F034FF38B14DF27170C0F600004FF4D8
:1023E0008F7100F047F801952068416841F00101C4
:1023F0004160406800F001000190019805F02CFE5A
:1024000001952068D0F8041441F00801C0F80414C4
:10241000D0F8040400F00800019001982CB0B0BD81
:102420004DF60C50C2F2050000F0F0BC7047000001
:1024300080B5FFF741FC44F2804040F20801C2F24F
:102440000000C2F2000106F001FD48B14DF2D85281
:10245000C0F6000200200221BDE88040FFF73ABB31
:102460004DF2F252C0F6000200200021BDE880408B
:10247000FFF730BB10B582B04DF2B2620C46034696
:10248000C0F60002002002210094FFF723FB04B1F4
:10249000FEE702B010BD0000EFF3108072B600BF7F
:1024A000FEE7000080B5FFF72DFDBDE8804006F097
:1024B00029BB0000FFF77EBD70B5B3F5804F034622
:1024C00018D153F8220001F1080600F07F6CD1E921
:1024D000000E70CE40EA0C0040EA0E10C96940EAD6
:1024E000042040EA8570084340EA0641002043F892
:1024F000221070BD6FF07041002043F8221070BDB3
:102500002DE9F04F86B00A6801F1180B50F822301F
:1025100040F2804523F0010340F82230D1E9023235
:10252000D1E900CE04920A69CC6B03924A69CFF6D6
:10253000007502920A6B9BE8C00F01924A6B082B50
:1025400000928A6B059250F82C2002EA05024EEAAE
:10255000030508BF45F04005049B2B43039D2B4317
:10256000029D2B4333433B4343EA080343EA0903F9
:1025700043EA0A03019F43EA0B033B43009F3B43AB
:10258000059F23433B431A4340F82C200A6BB2F5C6
:10259000801F05D10A684AB1026842F480120260C5
:1025A0000A681AB1496B026811430160002006B045
:1025B00000F000B830BCBDE8C08F00002DE9F0414C
:1025C00000EB82035A68D1E900C2D1E902E401F1CB
:1025D00010084CEA021298E8E00142EA0E2242EAB0
:1025E000847242EA05450022CFF6F07202EB0656ED
:1025F0002E43FE3746EA080646EA07675F6003682F
:10260000DB020BD54368496923F4700302EB0151E7
:102610004268194322F47002114341600020BDE872
:10262000F081000080B54FF01B0C0CF1030E21FA75
:102630000EF3DB071ED10CF1020E21FA0EF3DB07BD
:1026400001BF0CF1010E0EF01F0321FA03F35FEA44
:10265000C3730FD1BEF1000F0AD00CF01F0321FA93
:1026600003F3DB07ACF1040CDFD00CF1040E01E046
:102670004FF0FF3E4FEAF20CBCF1030F06D8DFE843
:102680000CF01202070DBEF10F0F0CD9012080BD16
:10269000BEF1070F84BF012080BD04E0BEF1060F2C
:1026A00084BF012080BD00684161816821F018016C
:1026B00011438160002080BD10B5A8B10446407F61
:1026C00020B900202077204600F032F80220607701
:1026D000207958B1D4E902122046FFF7A3FF002861
:1026E0001CBF012010BD0BE0012010BD206841F689
:1026F000B751C0F2C1414161816821F01801816088
:102700006079002814BF20694FF0FF302168D4E9B8
:1027100005230861886820F060001043886088689D
:1027200020F080001843886001206077002010BDF1
:1027300081B0006843F20001C4F20201884201D076
:1027400001B0704741F24800C4F20200016841F450
:1027500080510160006800F480500090009801B042
:10276000704700007047000070B590F85820012AAB
:102770004FF002024CD0012380F8583080F85920E5
:1027800001EB410200EBC20303F12C0654CE03F12E
:10279000280CD3E90E5342EA044444EA0555A2F159
:1027A000090E320645EA4354BEF1020F38BF06F067
:1027B0007F420368002944EA020111D0DA694FF62A
:1027C000F074C0F2CC0422401143D961DCF800104F
:1027D000BEF1010F19619CBF26F07F41196211E023
:1027E0005A6A4FF6F074C0F2CC0422401143596289
:1027F000DCF80010BEF1010F996103D8416B21F0A4
:102800007F4199620121002280F8591080F85820F8
:10281000104670BD70B50446006846680568F1074B
:1028200018BF15F480717DD1B0061AD515F400508B
:1028300017D02068616A026822F4005202604FF0EB
:1028400020028260E06D40F00200E0654FF004007D
:1028500084F859004FF0000084F8580009B1204670
:10286000884730071AD515F4006017D02068616AD0
:10287000026822F4006202604FF008028260E06D9C
:1028800040F00400E0654FF0040084F859004FF078
:10289000000084F8580009B12046884770070CD51D
:1028A00015F4806009D02068016821F4806101601E
:1028B00004218160204600F08DF8B00718D515F48A
:1028C000007015D02068216A026822F4007202604C
:1028D0004FF002028260E06DE0654FF0010084F885
:1028E00059004FF0000084F8580009B1204688478D
:1028F000F00658BF70BD15F480502AD020680168DA
:1029000021F48051016010218160E06D0021E065BB
:10291000012084F85900204684F85810BDE8704022
:10292000FFF720BF016821F480710160E16D41F083
:102930000101E16501218160042084F85900616A88
:102940000020002984F858003FF46EAF20468847E5
:102950006AE770BD002804BF0120704710B5044627
:1029600090F8590028B9002084F85800204600F05B
:1029700033F8022084F8590094E80340D4F80CC0DE
:1029800003684FF6BF72CFF6F8721A40E36911433D
:1029900019430160416B40F207129143A26941EA79
:1029A0000E0111434163016C4FF6FF72914341EAFE
:1029B0000C010164416BD4E9042321F4401141EA84
:1029C000025141EA4351416300200121E06584F84E
:1029D000591010BD7047000080B582B000684BF2FE
:1029E0000001C4F2020188421CBF02B080BD41F266
:1029F0004800C4F202000168002241F40031016085
:102A00000068052100F40030019001985A2001F07F
:102A100007FE5A2002B0BDE8804001F0F1BD000081
:102A2000B0B5027C012A04BF0220B0BD0268536B1E
:102A300043F001035363D2F8003423F00103C2F8DA
:102A40000034D2F8003443F00103C2F80034D368F4
:102A500023F00303D360D2F80CC00B68D1E905E47E
:102A600043EA0C03CD69D360536923F00703536134
:102A700044EA0503556943EA0E032B435361136986
:102A800023F00F0313614B6815691D431561D2F8DC
:102A9000005425F00E05C2F80054D2F8005445EA5F
:102AA0004303C2F80034536E4FF6FF75AB435366D1
:102AB0008B68556E2B435366D2F8003423F0F00335
:102AC000C2F80034D1E90335D1E908C42B432343CC
:102AD000D2F8005443EA0C032B43C2F80034936E3F
:102AE00023F001039366896A936E19439166D2F8C5
:102AF000081441F00101C2F80814D2F8081441F09A
:102B00000201C2F80814002101740846B0BD00009B
:102B10002DE9F041027C012A04BF0220BDE8F081CA
:102B2000026848F2FF03D2F868C0CFF6F06303EA08
:102B30000C039366D1E900C3D1E902E401F1100866
:102B400043EA0C0398E8E00143EA0E0323432B43D6
:102B500033433B430F6A43EA08033B43D1E9097619
:102B60003B43CF6A3343966E3B4333439366936E46
:102B700023F002039366096B936E1943916600215B
:102B800001740846BDE8F081027C012A04BF0220DE
:102B900070470122027402680023C2F8C430C2F8F0
:102BA000C830CB07816115D18B071DD44B0723D4C7
:102BB0000B0729D4CB062FD48B0635D44B063BD438
:102BC0000B0641D4CB0547D489054DD400210174AF
:102BD00008467047D2F8C4C04FF6FF7343EA0C03AF
:102BE000C2F8C4308B07E1D5D2F8C43043F4F813EF
:102BF000C2F8C4304B07DBD5D2F8C83043F001032C
:102C0000C2F8C8300B07D5D5D2F8C83043F002035C
:102C1000C2F8C830CB06CFD5D2F8C83043F00C0389
:102C2000C2F8C8308B06C9D5D2F8C83043F01003BB
:102C3000C2F8C8304B06C3D5D2F8C83043F02003E1
:102C4000C2F8C8300B06BDD5D2F8C83043F04003F7
:102C5000C2F8C830CB05B7D5D2F8C83043F08003EE
:102C6000C2F8C8308905B1D5D2F8C81041F4F8517E
:102C7000C2F8C8100021017408467047027C012A7E
:102C800004BF022070470268D36A23F01F03D36297
:102C9000D36A1943D16200210174084670470000CD
:102CA000027C012A04BF022070470268936823F463
:102CB0007F439360D1F800C0936843EA0C2393608C
:102CC000936F9BB29367D1F804C0936F43EA0C43B0
:102CD0009367D2F878C04FF6FF732CEA030393672B
:102CE000D1F808C0936F43EA0C039367D36F6FF377
:102CF0000F03D367D1F80CC0D36F43EA0C03D3673B
:102D0000D2F880306FF30F03C2F88030D1F810C0D2
:102D1000D2F8803043EA0C03C2F88030D2F8843015
:102D20006FF30F03C2F88430D1F814C0D2F88430A6
:102D300043EA0C03C2F88430D2F8843023F0807365
:102D4000C2F88430D1F818C0D2F8843043EA0C03BA
:102D5000C2F88430D2F888306FF30F03C2F888309D
:102D6000D1F81CC0D2F8883043EA0C03C2F888308E
:102D7000D2F88C306FF30F03C2F88C30096AD2F8A6
:102D80008C301943C2F88C1000210174084670473A
:102D9000B0B5027C012A04BF0220B0BD046891E8EE
:102DA0000C50D4F89850934288BF1A4605F0FC2383
:102DB000C4F89830D4F8983042EA02421A43C4F872
:102DC0009820D4F89C2002F40042C4F89C200A69A0
:102DD000D4F89C3042EA0E4242EA0C621A43C4F82C
:102DE0009C20D4F8A42022F47F42C4F8A42049698E
:102DF000D4F8A42042EA0121C4F8A41000210174EF
:102E00000846B0BD704700007047000010B504468A
:102E10000068D0F80C14C9071CBFD0F808145FEA8A
:102E2000C1716FD1D0F80C14890744BFD0F80814D1
:102E30005FEA81716ED4A069002808BF10BD2268C6
:102E4000D2F8BC00D2F8C4100840D2F8C010D2F8B2
:102E5000C820030403D0636943F00103636110F4E5
:102E6000F81F02EA010003D0616941F002016161CB
:102E7000C1071ED1810722D410F00C0F03D0616965
:102E800041F010016161C10621D4810625D44106BB
:102E900029D401062DD410F4F85F03D0606940F402
:102EA00000706061606960B32046BDE81040FFF7C4
:102EB000ABBF616941F0040161618107DCD56169E3
:102EC00041F00801616110F00C0FD8D1DBE76169B6
:102ED00041F0200161618106D9D5616941F040016D
:102EE00061614106D5D5616941F0800161610106EA
:102EF000D1D5616941F48071616110F4F85FCDD181
:102F0000D0E710BD0121C0F81014204600F0F0F900
:102F1000206887E70221C0F810142046FFF772FFEF
:102F200089E7000070B582B028B30446407C0D46A6
:102F300010B9204600F020F90320607400200190B1
:102F40002068D0F8301441F08071C0F83014D0F807
:102F5000300400F080700190019800F0ADFC06464E
:102F60002068D0F80C14C90408D400F0A5FC801B1C
:102F70006428F5D936E0012002B070BDD0F83014D5
:102F800048F20362CFF6FC721140C0F8301495E8A5
:102F90000E00D20242EA8101D0F8302441EA034116
:102FA0001143C0F8301400210091D0F8301441F0E2
:102FB0000101C0F83014D0F8300400F00100009096
:102FC0000098012000F096F900F076FC064600BF5C
:102FD0002168D1F80C04C00507D400F06DFC801BFB
:102FE0006428F5D9032002B070BDD1F8A000261DD9
:102FF00040F00600C1F8A000D1F8940020F00300D2
:10300000C1F89400D1F894004CCE104340F0010078
:10301000C1F89400D1F8A40020F00300C1F8A40086
:10302000D1F8A4003043C1F8A400886840F6001627
:1030300020F0FF0088608868C0F23D061843886071
:1030400095E80D005643002A03F003024FF47A532B
:1030500004BF40F60016C0F23D065843D1F81834BC
:1030600006FA02F2B2FBF0F023F03F02C1F8182496
:10307000D1F818241043C1F818040020C1F8C40086
:10308000C1F8C8000121A0616061617402B070BD27
:103090002DE9F04F81B00446007C012803D10220C5
:1030A00001B000F065B8DDE90A7901209B46904641
:1030B0008A46207400F000FC064600BF2068416F7D
:1030C000C9070AD100F0F8FB801B6428F6D9032059
:1030D0000021217401B000F04BB8BBF1030F5A4638
:1030E00028BF03227AB199F80010012A47EA012784
:1030F00009D099F80110022A47EA014703D099F84C
:10310000021047EA0167BBEB020107671ED04A4481
:1031100004E000BFC91A1A44076717D00B460429F8
:1031200028BF04231778012B1E4698BF0126F1D92A
:103130005578022E47EA0527ECD09578032E47EA0A
:103140000547E7D0D67847EA0667E3E74FF4807291
:1031500002EB0B2248EA8A1193B219433FFA82F23A
:103160001143C16600200021217401B000F000B8B5
:1031700030BCBDE8C08F0000B0B5AEB0044600253D
:1031800002A89C212D95CDE92B55CDE92955FDF7B8
:10319000CCFB206846F60041C4F20101884201D010
:1031A0002EB0B0BD4FF40000029002A8269502F0A8
:1031B0004FF9002818BFFFF76FF941F24C00C4F235
:1031C0000200416941F000614161416901F0006123
:1031D00001910199016841F020010160006829A96D
:1031E00000F02000019001984FF400602990022027
:1031F0002A900020CDE92B000B202D9041F20040B9
:10320000C4F6000000F062FA4E200521002201F011
:1032100007FA4E2001F0F4F92EB0B0BD017C01296F
:1032200004BF022070470168D1F8042442F0040270
:10323000C1F804240021017408467047027C012A69
:1032400004BF022070470268136B23F0030313636B
:10325000136B194311630021017408467047000085
:10326000027C012A04BF022070470268D2F81C3495
:1032700023F0C063C2F81C34D2F81C3443EA416125
:10328000C2F81C1400210174084670472DE9F04370
:1032900081B00446007C012803D1022001B0BDE8C2
:1032A000F083DDF820900120984616460F462074E2
:1032B00000F002FB054600BF2068416FC9070AD134
:1032C00000F0FAFA401B6428F6D90320002121748B
:1032D00001B0BDE8F08346EA871141EA082141EADE
:1032E0000941C16600200021217401B0BDE8F083CE
:1032F00070470000B0B5044600F0DEFA054640F223
:103300000000C2F200000078611C18BF044400BF36
:1033100000F0D2FA401BA042FAD3B0BD10B58446EB
:103320005018B0F5806F4FF001003ED89CF824E0B3
:10333000BEF1010F18BF10BD002A42D0DCF800C05A
:103340004FEA410E4EF001000CF5805101EB800474
:10335000501E01EB8E01032802F0030C1AD322F059
:103360000300424218680432086058682060986878
:103370008860D868A06018690861586920619869F8
:103380008861D86903F12003A06101F1200104F1F3
:103390002004E7D1BCF1000F13D01868BCF1010F75
:1033A00008605868206001D1002010BD9868BCF109
:1033B000020F8860D868A06003D018690861586956
:1033C0002061002010BD000084465018B0F5806FC9
:1033D0004FF001003CD89CF82430012B38D1002A52
:1033E00004BF00207047DCF800004B0043F00101EF
:1033F00000F5805000EB810100EB8303501E032891
:1034000002F0030C11D322F003004042002200BF5F
:103410001A600A609A608A601A610A619A618A6118
:103420002033043001F12001F2D1BCF1000F4FF044
:10343000000008BF7047BCF1010F1860086007D09A
:1034400000209860BCF1020F88601CBF1861086101
:1034500070470000002804BF0120704710B50446E3
:1034600000F022F8D4E90001026822F05F02026055
:10347000026811430160217F012903D1216A02689A
:103480001143016004F1080C9CE80E100161026216
:103490004362C0F828C0A169C16200200121A06276
:1034A00084F8241010BD000081B000684CF20001C7
:1034B000C4F20201884201D001B0704741F24800D5
:1034C000C4F20200016841F480210160006800F448
:1034D00080200090009801B0704700002DE9F04F67
:1034E00081B0002900F0EB8041F60043C4F60003F0
:1034F00000F13842082598424FF0000308BF072525
:10350000B3EBB22F009170D04FEAB222531E0024C9
:1035100000260127062B38BF154628E00168032343
:10352000A340194301606FF0030101EA5202024413
:1035300006F01C0C156A0F2101FA0CF125EA0101B5
:1035400011628168554699438160416821EA0E0104
:103550004160C1689943C160009931FA07F207F1EF
:10356000010706F1040604F1020400F0A8807A1EA7
:10357000012303FA02FE1EEA0108EED040F20041E8
:10358000C4F201014FEA920CA1F57E7959F82CA002
:1035900006F00C0B0F2101FA0BF10AEA0103AA460F
:1035A00005FA0BF5AB42B9D140F20045C4F2010572
:1035B0002B6840F20C4B23EA08032B606B68C4F2C3
:1035C000010B23EA08036B60DBF8003023EA0803F1
:1035D000CBF80030AB6823EA0803AB6059F82C3015
:1035E00023EA010149F82C1098E74FF0010E00255D
:1035F0000026012427E000BF02680323B3401A43DA
:1036000002606FF0030202EA5707074405F01C0C42
:10361000D7F8208001FA0CF228EA02023A628268A6
:103620009A438260426822EA0A024260C2689A4370
:10363000C260009931FA04F204F1010406F10206B5
:1036400005F104053BD0671E0EFA07FA1AEA0103DA
:10365000F0D040F20041C4F201014FEA970BA1F50E
:103660007E7C5CF82B9005F00C020F2101FA02F829
:1036700019EA080FC0D140F2004EC4F2010EDEF884
:10368000002040F20C419A43CEF80020DEF80420DE
:10369000C4F201019A43CEF804200A689A430A60F2
:1036A000DEF808200F219A43CEF808205CF82B2082
:1036B0004FF0010E22EA08024CF82B209CE701B0E3
:1036C00000F000B830BCBDE8C08F00002DE9F04F1D
:1036D00084B00C680190002C00F0E280019841F663
:1036E000004600F13842C4F600068E464FEAB22783
:1036F0000821B04208BF0721072F4FF000054FF007
:1037000001074FF000064FF0000838BF4FEAB22122
:103710000091CDF808E00DE0DEF8004008F1010866
:1037200034FA07F106F1020607F1010705F1040575
:1037300000F0B680A7F1010A012000FA0AF214EAAB
:103740000209E9D0DEF804C00CF0030BABF1010470
:10375000012C17D80198744681680323E468B340AC
:103760009943B4402143816041684FEA480E914338
:10377000CCF3001202FA0AF20446D8431143616006
:103780000CE000BF0321B140019CC843BBF1030F13
:10379000B64603D1B6464FF0030B23E0E168029B27
:1037A00001409A68BBF1020F02FA0EF241EA0201EF
:1037B000E16017D16FF0030101EA5A01214405F0DD
:1037C0001C040F22D1F820C002FA04FB1A692CEA6B
:1037D0000B0CA24042EA0C02019C0A62D3F804C01E
:1037E0000CF0030B21680BFA0EF20140114321602B
:1037F000DDF808E01CF4403F8ED041F26000C4F2D6
:103800000200016840F2004C41F0010101600168D2
:10381000C4F2010C01F00101039103992AF00301A4
:103820004FF6084A6144CFF6FF7A05F00C030F20EB
:1038300051F80A2000FA03F40098A24300FA03F3B7
:103840001A4341F80A20DCF80810DEF8042041EAA7
:10385000090340F20C40D40258BF21EA0903CCF816
:103860000830C4F201000168940241EA090358BF1C
:1038700021EA09030360DCF80410940341EA090318
:1038800058BF21EA0903CCF80430DCF80010D20359
:1038900041EA090358BF21EA0903CCF800303BE7AD
:1038A00004B000F000B830BCBDE8C08F1823002A77
:1038B00008BF2823C150704740F60000C2F206003E
:1038C00000687047002804BF0120704710B5044607
:1038D000242084F841002068016821F00101016082
:1038E000204600F053FC0020606484F8410020630F
:1038F00084F8420084F8400010BD000090F84100B8
:1039000070470000002804BF0120704710B504462E
:1039100090F8410028B9002084F84000204600F0CB
:1039200037FC242084F8410094E80910E26801681B
:10393000012A21F00101016023F0706101618168B9
:1039400021F40041816003D14CF40041816007E023
:103950004CF40441022A816004BF4FF400614160CD
:10396000416804F1100C41F0007141F400414160E4
:10397000C16821F40041C1609CE80E10114341EA86
:103980000321C160216A41EA0C010160016841F034
:103990000101016000202021606484F8411020634F
:1039A00084F8420010BD00002DE9F04F81B00446BC
:1039B0000020009094F84100202808D10F4621688B
:1039C0008869000403D494F84000012803D1022040
:1039D00001B000F004B9012084F84000242084F8EC
:1039E0004100002060640A20BA4660F39F2A48F232
:1039F00008001D46904660F39F2703F101094FF030
:103A0000200B08E0C1F81CB000980130009000982D
:103A1000404580F0D680E0680128504608BF38460F
:103A20004860FFF749FF21680A4652F8183F1668B8
:103A3000360946EA5313DB07064615D1B9F1000FE4
:103A400048D0002D00F0BB80FFF736FF801BA84256
:103A500000F2B780216888698A69120942EA501029
:103A6000C007F1D001F1180288698B69C00603F024
:103A700020006CD580B9B9F1000F4AD0002D00F0BC
:103A80008C8000BFFFF718FF801BA84200F28780E0
:103A9000216888698006F5D51020C861C1F81CB07E
:103AA00000984045B0D1486840F48040486088693B
:103AB0008006A7D4B9F1000F39D0002D6DD000BF1A
:103AC000FFF7FAFE801BA84269D821688869800642
:103AD000F6D597E7106813681B0943EA5010C00732
:103AE000C0D1106813681B0943EA5010C00701BF1A
:103AF000106813681B0943EA501008BF5FEAC070E2
:103B0000B0D1106813681B0943EA5010C007E1D018
:103B1000A8E710688006BFD4106880065CBF1068F4
:103B20005FEA8060B8D410688006F2D5B4E788698F
:103B300080063FF567AF886980065CBF88695FEAE9
:103B400080603FF55FAF88698006F0D55AE7D0B94D
:103B50001DB3B9F1000F0DD11068800613D41068A1
:103B600080065CBF10685FEA80600CD41068800635
:103B7000F2D508E0FFF7A0FE801BA8420FD821680D
:103B800088698006F6D52020C86184F841000020AD
:103B900084F8400001B000F022B8FFF78DFE606CA1
:103BA00040F020006064202084F84100002084F868
:103BB000420084F84000012001B000F010B8FFF787
:103BC0007BFE202084F84100606C40F0200060649F
:103BD000002084F84000012001B000F000B830BCA3
:103BE000BDE8C08F2DE9F04F83B0044690F8410046
:103BF00020280DD1DDF830A0BAF1000F0CD0DDF88F
:103C000034B0BBF1000F07D094F8400001280AD16E
:103C1000022003B000F058B94FF400706064012036
:103C200003B000F051B901201E4615460F4684F836
:103C30004000FFF741FE21688146896909040AD5E1
:103C4000FFF73AFEA0EB0900192800F21A8120685C
:103C500080690004F4D40E99222084F841004020A9
:103C60004FF0000884F84200C4F84480C4F824A04F
:103C7000A4F82AB08B46C4F8348000912046394617
:103C80002A463346CDF8049003F0E6FF28B184F8C5
:103C90004080012003B000F017B9608D49F600485C
:103CA000B0F5807F40F20000CFF60048C0F2FF1070
:103CB0000CD32168A8F580634A686FF39F271A40E8
:103CC00042EA070300F51056FF220DE0628D2168DD
:103CD0006FF39F274E68D3B2A8F580652E4047EA60
:103CE0000343334300F5923633434B60228507F19B
:103CF00000761BF1010247EA000757D04FF0FF0A98
:103D0000886940070FD4BBF1000F00F0B88000BFF6
:103D1000FFF7D2FDA0EB0900584500F2B280216800
:103D200088694007F4D5486A616A0870606A218D25
:103D30000130013960622185608D0904A0F1010024
:103D40006085608D2AD148B32068816909060ED448
:103D5000BBF1000F00F09380FFF7AEFDA0EB090070
:103D6000584500F28E80206881690906F4D5618D7E
:103D7000B1F5807F07D3A4F828A050F8041F01EA0A
:103D80000801394309E0618D218550F8042FC9B23B
:103D900002EA080246EA014111430160608D0028F1
:103DA0004BD0216888694007ADD5BCE7FF2002E011
:103DB0008A69520709D48A6952075FBF8A695FEA34
:103DC00042728A695FEA4272F2D5496A626A117088
:103DD000616A228D0131013A61622285618D12048E
:103DE000A1F101016185618D23D111B321688A6937
:103DF00012065FBF8A695FEA02628A695FEA02624D
:103E000002D48A691206F2D5628DFF2A06D920856E
:103E100051F8042F02EA08023A4309E0628D228534
:103E200051F8043FD2B203EA080346EA02421A43B9
:103E30000A60618D09B12168BDE7BBF1000F12D0A6
:103E40002068816989062CD4204659464A4603F0E9
:103E500059FE00287FF4E3AEFFF72EFDA0EB09002A
:103E60005845EDD90DE020688169890619D42046AE
:103E700000214A4603F046FE00287FF4D0AEFFF74B
:103E80001BFD606C40F020006064202084F841003D
:103E9000002084F8420084F84000012003B000F0C4
:103EA00013B82021C16142684EF60003CFF60063CB
:103EB0001A404260002084F8411084F8420084F8DF
:103EC000400003B000F000B830BCBDE8C08F000077
:103ED0002DE9F04F83B0044690F8410020280DD121
:103EE000DDF830A0BAF1000F0CD0DDF834B0BBF132
:103EF000000F07D094F8400001280AD1022003B037
:103F000000F041B94FF400706064012003B000F08C
:103F10003AB901201E4615460F4684F84000FFF7C7
:103F2000CBFC21688146896909040AD5FFF7C4FCE6
:103F3000A0EB0900192800F20381206880690004C1
:103F4000F4D40E99212084F8410040204FF000085D
:103F500084F84200C4F84480C4F824A0A4F82AB02D
:103F60008B46C4F834800091204639462A463346B1
:103F7000CDF8049003F0DEFE28B184F840800120E3
:103F800003B000F000B9608D49F600480025CFF677
:103F90000048B0F5807FC0F2FF150BD321686FF3A6
:103FA0009F2751F8040FFF2200EA080040EA0703A8
:103FB00028460DE0628D21686FF39F2751F8040FAA
:103FC000D3B200EA080047EA034303434FF000700E
:103FD0001843086007F100761BF1010047EA050766
:103FE0004FF0FF0A228550D10BE0A4F828A001462B
:103FF00051F8042F02EA08023A430A60618D002951
:1040000079D020464FF0FF314A4603F003FF0028E5
:104010007FF47BAF616A206811F8012B82626162D4
:10402000618D01396185218D4A1E2285618D1204C1
:10403000E4D10029E2D0816909065FBF81695FEAA6
:10404000016181695FEA016102D481690906F2D5E3
:10405000618DFF29C9D8628D0146228551F8043F40
:10406000D2B203EA080346EA02421A43C5E7628D68
:104070000146228551F8043FD2B203EA080346EA1A
:1040800002421A430A60618DA9B3204659464A4646
:1040900003F0C0FE00287FF438AF616A206811F891
:1040A000012B82626162618D01396185218D4A1E19
:1040B0002285618D1204E6D10029E4D081690906C8
:1040C0000CD4BBF1000F39D0FFF7F6FBA0EB0900D1
:1040D000584535D8206881690906F5D5618DB1F557
:1040E000807FC4D3A4F828A0014651F8042F02EA27
:1040F00008023A43C6E78169BBF1000F01F02001D5
:1041000013D069BB204659464A4603F0FBFC002801
:104110007FF4FBAEFFF7D0FBA0EB090058450FD8AA
:10412000206881698906EDD51AE0C9B920460021C9
:104130004A4603F0E7FC00287FF4E7AEFFF7BCFB3C
:10414000606C40F020006064202084F84100002072
:1041500084F8420084F84000012003B000F013B856
:104160002021C16142684EF60003CFF600631A4079
:104170004260002084F8411084F8420084F8400036
:1041800003B000F000B830BCBDE8C08F704700003D
:104190007047000040F2000040F60001C2F200004B
:1041A000C2F2060100780A681044086070470000F7
:1041B00080B5032000F060FA0F2000F009F8002815
:1041C0001CBF012080BD00F0EDF9002080BD000083
:1041D00010B586B0014636200022002400F020FAF7
:1041E000362000F00DFA41F25800C4F202000168D6
:1041F00041F0100101600068694600F01000019074
:10420000019801A801F044FD01F064FD4DF68361C1
:10421000C4F21B31A0FB01014FF0FF3000EB9141D4
:104220004DF6E86041F20002C2F20500C4F200025D
:1042300040F2E733C0E90021C0E90243046102F023
:10424000A5FD10B1012006B010BD4DF6E860C2F228
:10425000050002F0CFFD06B010BD00002DE9F041D1
:10426000044690F8A00001284FF0020008BFBDE806
:10427000F0814FF0010884F8A08084F8A100342078
:1042800002FB0040D1E900CED1E90267D1E9045335
:10429000C0E91253C0E91067C0E90ECED1E906CEDD
:1042A000D1E90865D1E90A73C0E91873C0E9166558
:1042B000C0E914CE0B6B8366204603F019FE20681C
:1042C000C0F82480002084F8A18084F8A000BDE814
:1042D000F081000070470000B0B504460068816BB3
:1042E000426B02EA0105690727D4A8073BD4E80717
:1042F0000ED02068416B21F0010141630121C163AF
:10430000002084F8A11084F8A000204600F0B6F840
:10431000280758BFB0BD2068416B21F008014163F8
:104320000821C1630120002184F8A100204684F8FF
:10433000A010BDE8B04000F0F3B8416B21F00401DB
:1043400041630421C163D4F8A40040F00100C4F823
:10435000A400002084F8A11084F8A0002046FFF7F4
:10436000B9FFA807C3D52068416B21F00201416362
:104370000221C163D4F8A40040F00200C4F8A400F4
:10438000042084F8A100002084F8A0002046FFF754
:10439000A1FFE807BCD0ACE7002804BF01207047AC
:1043A00010B5044690F8A10028B9002084F8A000B8
:1043B000204600F065F8022084F8A100D4E9000C42
:1043C000D4E90223816921F07041816142EA0C0144
:1043D00022691943836911431943816181684FF64A
:1043E000000CCFF2000C01EA0C018160D4E9051346
:1043F000826843EA014111438160C16801EA0C010E
:10440000C160D4E90712C36842EA01411943C1609F
:10441000016901EA0C010161D4E90912036942EA68
:10442000014119430161416901EA0C014161D4E98B
:104430000B12436942EA01411943416194F8351076
:1044400094F83620C36A120403F07F43C36242EA41
:10445000012194F83420C36A11441943C162416BAD
:1044600041F006014163816941F001018161002051
:104470000121C4F8A40084F8A11010BD7047000009
:1044800010B5A8B0044601A89C21FCF74EFA20689C
:1044900046F60001C4F20101884201D028B010BDE7
:1044A00040F218014FF48000C2F200010190002098
:1044B000D1E90E21249002200990CDE90A210E9025
:1044C000CDE90C004FF080700F9001A800F0C0FF04
:1044D00038B14DF27170C0F6000040F2C111FDF725
:1044E000C9FF41F26000C4F202000168002241F0FD
:1044F000806101600068052100F0806000900098F4
:104500005B2000F08DF85B2000F07AF85C2005213C
:10451000002200F085F85C2000F072F828B010BD91
:104520007047000010B590F8A0304FF0020E012B3C
:1045300036D034234FF0010C02FB030380F8A0C0F7
:1045400080F8A1E09C6C4FF0010E072C05D84CF6CA
:104550007813C0F6000353F824E0036801FB0EF162
:1045600003EBC212D2F8B0304FF0000E6FF31C43D1
:10457000C2F8B03046F62403C4F201031C6844F0CC
:1045800001041C60D2F8B04044EA0141C2F8B01006
:10459000196841F00101196080F8A1C080F8A0E01D
:1045A000704610BD82B041F25800C4F2020081682A
:1045B00041F001018160816801F0010101910199DF
:1045C000016841F080510160006800F08050009067
:1045D000009802B070470000002848BF704700F004
:1045E0001F01012202FA01F14EF280124009CEF2BF
:1045F000000242F82010BFF34F8FBFF36F8F704758
:10460000002848BF704700F01F01012202FA01F1A3
:104610004EF200124009CEF2000242F8201070471C
:1046200010B54EF60C5CCEF2000CDCF80030C3F393
:10463000022E8EF00704042C28BF0424BEF10303CD
:104640004FF0FF3E0EFA04F438BF0023A143994017
:104650000EFA03F39A4300F00F03043B1143634443
:1046600009010C3300F16042B0F1FF3FC8BF02F511
:104670006443197010BD00004EF60C51CEF20001DB
:104680000A684FF6FF031A4060F30A2242F0806086
:1046900040F0FD70086070472DE9F0438AB0D0F813
:1046A000008041F604430020C5F20603CDE9000076
:1046B000CDE90200049041F2000C1C68CAF2000C23
:1046C000B8EB0C0204F0030018BF0122012804BF5C
:1046D0000120009004F03000102804BF0120019058
:1046E00004F44070B0F5807F04BF0120029004F410
:1046F000A02040F2010EB0F5803FC0F2001E05D1AF
:10470000A003704658BF4FF00110039004F0A06062
:10471000B0F1807F05D1A001704658BF4FF0011065
:1047200004905D68022405F00300012804BF022004
:10473000009005F03000102804BF0220019005F41D
:104740004070B0F5807F04BF0220029005F4A020E5
:10475000B0F5803FC0F2010405D1A803204648BF50
:104760000EF10100039005F0A060B0F1807F05D14B
:10477000A801204648BF0EF10100049000200990D6
:10478000CDE90700CDE905001D6805F00300032809
:1047900004BF0120059005F03000302804BF01203F
:1047A000069005F44070B0F5407F04BF01200790EB
:1047B00005F4A020B0F5A02F05D1A803704658BF7E
:1047C0004FF00110089005F0A060B0F1A06F05D186
:1047D000A801704658BF4FF0011009905D6805F0C0
:1047E0000300032804BF0220059005F030003028A4
:1047F00004BF0220069005F44070B0F5407F04BF6E
:104800000220079005F4A020B0F5A02F19D1A8032D
:10481000204648BF0EF10100089005F0A060B0F1FD
:10482000A06F13D0DCF80000A8EB0C04C00718D16F
:104830004FF0000EDCF80004B4FA84F4C0071ED177
:1048400025E005F0A060B0F1A06FEBD1A80148BF52
:104850000EF101040994DCF80000A8EB0C04C00779
:10486000E6D0DCF800004FF0010E20F00100CCF89B
:104870000000DCF80004B4FA84F4C00707D0DCF8C8
:1048800000040EF1020E20F00100CCF8000402EB4F
:1048900082006A4602EB8005AE68640903EB860677
:1048A00056F8047C27F4807746F8047C52F8200000
:1048B00038B303EB800050F8046C26F0010640F892
:1048C000046C686838B103EB800050F8046C26F083
:1048D000100640F8046CE86840B1012626EA0000A2
:1048E00053F8206026F4803643F82060286940B1F0
:1048F000012525EA000053F8205025F0807543F883
:10490000205004EB8404086852F82450A84203D1D4
:1049100002EB8400466811E002EB84004E684768B1
:10492000BE420BD0D1F808908668B14505D0D1F8C9
:104930000C90C668B14540F0C9803E4603EB850047
:1049400050F8045C25F0010540F8045C3EB103EB2F
:10495000860050F8045C25F0100540F8045C02EB7A
:104960008400826803EB820252F8044C24F48074C1
:1049700042F8044CC26842B1012424EA020253F80E
:10498000224024F4803443F82240006940B10122DF
:1049900022EA000053F8202022F0807243F8202001
:1049A00088684FF4407403EB800050F8042CE04515
:1049B00022F4407208BF4FF48074224440F8042C63
:1049C0000868032403EB800050F8042CE04522F033
:1049D000020208BF0124224340F8042C486860B159
:1049E00003EB800050F8042C302422F02002E04534
:1049F00008BF1024224340F8042CC868C20310D416
:104A000008B3012222EA000053F8204003EB8002A1
:104A100024F0E0644FF0A065E04508BF4FF08075DA
:104A20000EE0012222EA000053F820404FF4A025B6
:104A300003EB800224F4E024E04508BF4FF4803506
:104A400044EA050010600869C10310D408B30121CD
:104A500021EA000053F8202003EB800122F0E062FD
:104A60004FF0E063E04508BF4FF040730EE00121D6
:104A700021EA000053F8202003EB80014FF4E023EB
:104A800022F4E022E04508BF4FF4403342EA03003D
:104A900008605FEACE7006D15FEA8E700CD4002009
:104AA0000AB0BDE8F083DCF8000040F00100CCF86B
:104AB00000005FEA8E70F2D5DCF8000440F00100DF
:104AC000CCF8000400200AB0BDE8F0830E6900694C
:104AD00086423E467FF464AF30E700002DE9F043A4
:104AE00081B015460F460446FEF7E6FE2168D1F870
:104AF0004880D1F81091626C042A26D10646F868E5
:104B0000B0F5800F21D1086A800624D44FF4800CC0
:104B1000D7E90023B8683F69C1F88820C1F8803020
:104B2000C1F890700A6822F04352104340EA0C002A
:104B300040F000500860E068B0F1806F28D1C1F803
:104B40004880086A00074AD42EE01020A0640120A3
:104B500001B0BDE8F083002D49D0681C12D100BF20
:104B6000086A8006D2D5086A8006CFD5086A800612
:104B7000CCD5086A8006F3D4C8E700BF2168086A6C
:104B8000800641D5FEF798FE801BA842F6D930E09A
:104B9000D1F8000110F4E06F0CBFC1F81091C1F81A
:104BA0004880086A00071AD40DB3681C0ED1086A41
:104BB000000714D4086A00075CBF086A5FEA007047
:104BC0000DD4086A0007F2D509E000BFFEF774FEB5
:104BD000801BA8420DD82168086A0007F6D5082076
:104BE000486202206064002001B0BDE8F083FEF757
:104BF00063FE4FF400706064A06C40F00100A0649C
:104C0000012001B0BDE8F083D7F80CC080E70000B8
:104C1000F0B581B015460F460446FEF74DFE616CB7
:104C20000646242908D0142916D0022917D1E06895
:104C3000B0F1806F13D002E0386801280FD12068EE
:104C4000016A890610D40020A0642046394604F089
:104C500017F928B301B0F0BD38680228EFD0102052
:104C6000A064012001B0F0BD45B3691C12D1016AF6
:104C70008906E8D5016A890644BF016A5FEA816155
:104C8000E1D5016A8906F2D4DDE700BF2068006A39
:104C90008006D8D5FEF710FE801BA842F6D90FE09B
:104CA000B86BB8B13868012837D0C8B3606C142825
:104CB00036D024206064002001B0F0BDFEF7FCFD7A
:104CC0004FF400706064A06C40F00100A06401200B
:104CD00001B0F0BD2168086A800719D455B3681C7B
:104CE0000DD1086A800713D4086A80075CBF086A80
:104CF0005FEA80700CD4086A8007F2D508E0FEF7FE
:104D0000DBFD801BA84217D82168086A8007F6D50A
:104D1000002002224A6201B0F0BD606C242804D158
:104D200004206064002001B0F0BD14206064002005
:104D300001B0F0BDFEF7C0FD4FF400706064A06CE0
:104D400040F00100A0642168012002224A6201B003
:104D5000F0BD0000002804BF0120704710B50446D4
:104D60000068016821F001010160816821F0020101
:104D70008160204600F08CF80020606410BD0000C7
:104D80002DE9F0410446FEF797FD002C7DD0054645
:104D90000020A064616C002918BFBDE8F0812046A6
:104DA00000F0A2F841F28836E664D4E9000CD4E9B8
:104DB00003E3616982684FF6FC07CFF6E0073A40EB
:104DC0000027CFF6FF7707EB0343E76942EA0E02BD
:104DD0006FF0FF081A4308EB01213A431143816049
:104DE000E16A08EB0C2209040161016821F4F85121
:104DF00011430160016A890609D500BFFEF75CFD19
:104E0000401BB0423AD82068016A8906F6D4C168CE
:104E1000D4E9087621F0FF01013F3943A268A36974
:104E2000C1600168022B21F0400141EA02010160EA
:104E3000D0F80811A26A21F0A04141EA060141EA36
:104E40000201C0F80811016841F00101016008D0B9
:104E5000E068B0F1806F0CD1012060640020BDE8F3
:104E6000F081816841F002018160E068B0F1806FFB
:104E7000F2D0022060640020BDE8F0814FF40070A1
:104E80006064A06C40F00100A0640120BDE8F081E6
:104E900010B5006841F20001CAF20001884218BF53
:104EA00010BD41F24C00C4F20200016841F600045A
:104EB00021F4801101604168C4F6000421F480717E
:104EC000416004F500604FF46461FEF707FB204683
:104ED0004FF41641FEF702FB04F580604FF4E061E9
:104EE000BDE81040FEF7FABA2DE9F04387B000267E
:104EF000CDE90566CDE90366006841F20001CAF21A
:104F000000018842029602D007B0BDE8F08341F26A
:104F10004C04C4F20204206840F480102060206831
:104F200000F4801001900198606840F48070606027
:104F3000606800F480700190019854F81C0C40F4F3
:104F4000807044F81C0C54F81C0C20F4807044F859
:104F50001C0C206840F480102060206800F4801051
:104F600001900198606840F480706060606800F4AF
:104F7000807001900198206840F480702060206863
:104F800000F4807001900198206840F0400020609B
:104F9000206800F040000190019800F03BFA206882
:104FA00002AD40F080002060206841F6000400F06F
:104FB0008000019001984FF46460C4F600040290F0
:104FC0004FF002084FF00309052704F50060294659
:104FD000CDE90386CDF814900697FEF777FB4FF4E2
:104FE0001640CDE9020820462946CDE90469069716
:104FF000FEF76CFB4FF4E060CDE9020804F5806039
:105000002946CDE904690697FEF760FB07B0BDE8C5
:10501000F08300002DE9F04115460F460446FEF7E7
:105020004BFC2668B16CD6F81021AFB38046606C9B
:10503000042836D1306C01230130E063E06BA063BB
:105040006763306863F31D703060E068B0F1806FB3
:105050002CD1B164A5B3681C47D13046016A11F068
:10506000060F0BD1016A11F0060F07D1016A11F08A
:10507000060F03D1016A11F0060FEFD096F8500029
:105080003870606BE16B471C481E6763E063E06B40
:1050900000284CD02068E1E70820A0640120BDE88A
:1050A000F0811020A0640120BDE8F081D6F8000155
:1050B00010F4E06F0CBFC6F81021B164002DCAD106
:1050C000306A10F0060F57D096F850003870606BB9
:1050D000E16B471C481E6763E063E06B38B32068F0
:1050E000006A10F0060FEFD146E03046006A10F07B
:1050F000060F0BD1FEF7E0FBA0EB0800A8423DD85D
:105100002068006A10F0060FF4D0676B96F8500024
:105110003870606BE16B471C481E6763E063E06BAF
:1051200028B12068006A10F0060FEFD1E2E720688E
:10513000016A89071AD4FDB1691C0DD1016A89077A
:1051400014D4016A89075CBF016A5FEA81710DD4DA
:10515000016A8907F2D509E0FEF7AEFBA0EB080073
:10516000A8420BD82068016A8907F5D5022141625F
:1051700000206164BDE8F081FEF79EFB4FF40070F3
:105180006064A06C40F00100A0640120BDE8F081E3
:105190002DE9F04115460F460446FEF78DFB87B317
:1051A00080462668606C042830D1306C00F1010024
:1051B000E063E06BA0636763306820F040503060CC
:1051C0004DB3681C3AD1304603E000BF016A49077D
:1051D00009D4016A49075FBF016A5FEA4171016A48
:1051E0005FEA4171F2D5387886F85000606BE16B68
:1051F000471C481E6763E063E06B00283DD02068D1
:10520000E7E70820A0640120BDE8F0811020A06439
:105210000120BDE8F081306A400753D5387886F820
:105220005000606BE16B471C481E6763E063E06BF6
:1052300018B32068006A4007F0D443E03046006AA3
:1052400040070AD4FEF738FBA0EB0800A8423BD881
:105250002068006A4007F5D5676B387886F85000FB
:10526000606BE16B471C481E6763E063E06B20B135
:105270002068006A4007E5D5EFE72068016A8907E2
:105280001AD4FDB1691C0DD1016A890714D4016AD1
:1052900089075CBF016A5FEA81710DD4016A8907E1
:1052A000F2D509E0FEF708FBA0EB0800A8420BD8F6
:1052B0002068016A8907F5D50221416200206164F6
:1052C000BDE8F081FEF7F8FA4FF400706064A06C5E
:1052D00040F00100A0640120BDE8F081B0F5007F3E
:1052E00047D0002840F0898047F21400C4F2000043
:1052F00050F8141CC26E01F4C06122F48072B1F542
:10530000806FC26633D150F8141C012262F34A2127
:1053100040F8141C40F25801C2F200010968322220
:1053200051434DF68362C4F21B32A1FB0212910C71
:1053300002684B1C18BF12F4806213D00268002967
:1053400018BF12F480620DD00268012918BF12F450
:10535000806207D00268022904D012F48062A1F1B1
:105360000401E5D10068400544BF032070470020D8
:10537000704747F21400C4F2000050F8141CC26ECB
:1053800001F4C06142F48072B1F5806FC266EED163
:1053900050F8141C012262F34A2140F8141C40F218
:1053A0005801C2F200010968322251434DF683626E
:1053B000C4F21B32A1FB0212910C02684B1C18BFF5
:1053C00012F4806213D00268002918BF12F48062C0
:1053D0000DD00268012918BF12F4806207D002685C
:1053E000022904D012F48062A1F10401E5D1006821
:1053F000400544BF03207047B9E747F21400C4F2E8
:10540000000050F8141C022262F34A2140F8141CD8
:105410000020704747F20400C4F20000016841F424
:10542000007101607047000047F20000C4F2000004
:10543000016801F4C061B1F5806F0FBF4FF4806067
:10544000D0F880004FF4007101EA4000704700007E
:105450002DE9F04F81B00446407841F288070007FB
:10546000C4F2020726D5E06E4FEA701104290BD86A
:10547000DFE801F0030C151B1B00201D002103F0C9
:105480002BFE0646B8B908E0012614E004F120001E
:10549000002103F0C5FE064668B9E06E05E057F846
:1054A0007C1C41F4803147F87C1C796921F0E001D3
:1054B0000843786100266078C00601D4B3463CE01A
:1054C000206F4FEA302004280AD8B346DFE800F006
:1054D000031022161600201D002103F0FDFD0CE034
:1054E0004FF0010B4FF00109A07880070DD528E09F
:1054F00004F12000002103F093FE8346BBF1000F6E
:10550000D94612D0A07880071BD4C8462068C107AE
:105510006CD08DE057F87C0CB34640F4803047F8EF
:105520007C0CBBF1000FD946ECD17869216F20F4D7
:10553000E06008434FF0000B7861B146A078800727
:10554000E3D557F8300C10F0805A0BD157F8300CD7
:1055500040F0805047F8300C57F8300C00F0805085
:105560000090009847F20005C4F20005286840F456
:1055700080702860FEF7A0F9064600BF2868C005C5
:1055800009D4FEF799F9801B0228F7D94FF0030BD5
:105590004FF0030824E0BBF1000FD84620D1B868D3
:1055A00010F4407012D0D4F8981088420BD0B8682C
:1055B000B96820F4407041F48031B960B96821F4D1
:1055C0008031B960B860C00740F08781B868D4F80E
:1055D000981020F4407008434FF0000BC846B860A4
:1055E000BAF1000F1BD02068C10721D1810727D451
:1055F00041072DD4010733D4C10639D481063FD4E5
:10560000810545D441054BD4410651D4010657D4F8
:10561000C1055DD4C10263D4810469D47AE057F82E
:10562000300C20F0805047F8300C2068C107DDD0E6
:105630003968E26B21F00301114339608107D7D546
:105640003968226C21F00C01114339604107D1D532
:105650003968626C21F03001114339600107CBD504
:105660003968A26C21F0C00111433960C106C5D56B
:105670003968E26C21F44071114339608106BFD56D
:105680003968226D21F44061114339608105B9D533
:105690003968626E21F44021114339604105B3D568
:1056A0003968A26E21F44011114339604106ADD52D
:1056B0003968626D21F44051114339600106A7D564
:1056C0003968A26D21F4404111433960C105A1D56B
:1056D0003968E26D21F4403111433960C1029BD534
:1056E0007969226E21F0030111437961810411D59A
:1056F0003A68616F22F040620A43B1F1806F3A600C
:1057000033D0B1F1006F05D157F87C1C41F4801102
:1057100047F87C1C010333D5A16F7A69B1F5804F3E
:105720000BD142F48041796157F87C1C41F48031FF
:1057300047F87C1C410325D44CE022F480427A6176
:105740003A68B1F1806F22F0406242EA01023A60A9
:1057500035D0B1F1006F13D157F87C1C41F48011A2
:1057600047F87C1C41030DD434E0201D012103F0D7
:10577000B3FC83460028206818BFD8460103CBD469
:10578000410327D53A68E16F22F040620A43B1F144
:10579000806F3A6009D0B1F1006F1BD157F87C1CC3
:1057A00041F4801147F87C1C14E0201D012103F016
:1057B00093FC83460028206818BFD8460AE0201DC5
:1057C000012103F089FC83460028206818BFD846D1
:1057D0004103D7D4410412D53968D4F8802021F090
:1057E00040511143B2F1805F396008D1201D022180
:1057F00003F072FC83460028206818BFD846C10316
:1058000004D481020BD4400212D439E07969D4F86F
:10581000842021F00401114379618102F3D5796973
:10582000D4F8882021F0180111437961400227D56E
:1058300057F8880C20F0805047F8880CFEF73CF8A9
:10584000064600BF57F8880C800007D5FEF734F8ED
:10585000801B0228F6D94FF0030B12E0BBF1000FBA
:105860000FD17869D4F88C1020F440300843786167
:1058700004F12000022103F0D3FC002818BF804669
:10588000C3462168080212D57869D4F8902020F424
:1058900080501043B2F5805F786108D104F1200098
:1058A000012103F0BDFC2168002818BF8346C80110
:1058B0000FD57869D4F8941020F440100843B1F55E
:1058C000001F786105D157F87C0C40F4801047F830
:1058D0007C0C584601B000F013B8FDF7EDFF06460A
:1058E00041F288354FF0030B4FF00308B86880078A
:1058F0003FF56CAEFDF7E0FF801BA842F6D96FE6DE
:1059000030BCBDE8C08F00002DE9F047002800F052
:105910003D8142F20008C4F202080446D8F80000B3
:105920000D4600F00F0088420DD2D8F8000020F09C
:105930000F002843C8F80000D8F8000000F00F005E
:10594000A84240F02381216841F2080AC807C4F246
:10595000020A03D1880740F1FA80F0E06068B0B134
:1059600002281CD0032822D15AF8082C920140F1B9
:105970000D81DAF8042002F00302012A7AD15AF8E4
:10598000082C120778D4DAF88C20120A77E05AF83B
:10599000081C89075CBF0120BDE8F0870CE05AF8BD
:1059A000081C89035CBF0120BDE8F08704E05AF8B9
:1059B000081C490540F1EA80DAF80010DAF8042002
:1059C00011F00C0105D00C294BD102F00302012A81
:1059D00047D15AF8082C120703D4DAF88C20120A9F
:1059E00002E05AF8082C12094CF6201302F00F02BC
:1059F000C0F6000353F822200029914618BF4FF04B
:105A000000090C291DD1DAF80410DAF804308907EE
:105A100042F20041C0F2F40158BF1146C3F3031231
:105A2000DAF804300132C3F306235943DAF80430BC
:105A3000B1FBF2F1C3F34162022303EB4202B1FB7B
:105A4000F2F94BF20041C0F2C44189454DD9DAF870
:105A50000010082262F307114FF00109CAF8001084
:105A600045E004294FF0000941D008294FF0000219
:105A70003DD0C6E700220AE05AF8082C12094CF67D
:105A8000201302F00F02C0F6000353F82220DAF8C8
:105A90000430DAF804709B0742F20043C0F2F403CA
:105AA00058BF1346C7F30312DAF804700132C7F384
:105AB00006277B43DAF80470B3FBF2F2C7F34163C5
:105AC000022707EB4303B2FBF3F24BF20043C0F2B1
:105AD000C4439A4209D9DAF8002012F0F00FB6D088
:105AE000890702D5A1680029B1D04FF00009DAF882
:105AF000001021F003010843CAF80000FDF7DCFEA6
:105B0000064641F2883700BFDAF80000616800F00D
:105B10000C00B0EB810F07D0FDF7CEFE801BB84222
:105B2000F2D90320BDE8F0872168880707D4B9F1CE
:105B3000000F0CD0DAF8000020F0F00005E0DAF8F1
:105B40000000A26820F0F0001043CAF80000D8F866
:105B5000000000F00F00A8420CD9D8F8000020F097
:105B60000F002843C8F80000D8F8000000F00F002C
:105B7000A8420BD148070CD4080714D4DAF8000067
:105B8000DAF8041010F00C001DD122E00120BDE86D
:105B9000F087DAF80000E26820F4E0601043CAF809
:105BA00000000807EAD5DAF80000216920F4605007
:105BB00040EAC100CAF80000DAF80000DAF8041080
:105BC00010F00C0005D00C283BD101F00301012995
:105BD00037D15AF8081C090703D4DAF88C10090ADF
:105BE00002E05AF8081C09094CF6201201F00F01D6
:105BF000C0F6000252F821200028114618BF0021EB
:105C00000C282AD1DAF80400DAF80410800742F2EE
:105C10000040C0F2F40058BF1046DAF80420C1F387
:105C20000311C2F306225043DAF804200131B0FB1D
:105C3000F1F0C2F34161022202EB4101B0FBF1F14C
:105C40000BE042F200410428C0F2F40105D008281C
:105C500003D0002100220C28D4D0DAF800004CF642
:105C60000812C0F30310C0F60002105C40F25802A4
:105C700000F01F00C14040F20400C2F200000068C2
:105C8000C2F200021160BDE8F047FEF7A1BA0000C1
:105C90000F22026041F20802C4F20202136803F00C
:105CA00003034360136803F0F0038360136803F495
:105CB000E063C36012684FF4E06303EAD20202615A
:105CC00042F20000C4F20200006800F00F00086019
:105CD0007047000040F2580041F20801C2F2000093
:105CE000C4F20201006809684CF61812C1F30221DF
:105CF000C0F60002515C01F01F01C840704700006F
:105D000040F2580041F20801C2F20000C4F2020160
:105D1000006809684CF61812C1F3C221C0F60002EF
:105D2000515C01F01F01C8407047000041F20C01B6
:105D3000C4F2020151F8040C10F00C02086805D0FE
:105D40000C2A38D100F00300012834D151F80C0C92
:105D5000000703D4D1F88800000A02E051F80C0CC7
:105D600000094CF6201300F00F00C0F6000353F8B2
:105D70002030002A184618BF00200C2A18BF704790
:105D800008680A68800742F20040C0F2F40058BF79
:105D900018460B68C2F30312C3F3062309680132E5
:105DA0005843B0FBF2F0C1F34161022202EB410122
:105DB000B0FBF1F0704742F20040042AC0F2F40058
:105DC000F8D0082AF6D000200023D6E72DE9F043CA
:105DD00083B0002800F0228341F200060446C4F29A
:105DE0000206B068F168227800F00C09D00601F0D4
:105DF00003081CD42078C0077ED0B9F1080F74D0F6
:105E0000B9F10C0F08BFB8F1030F6ED06068B0F5A0
:105E1000803F07D0B0F5A02F40F05582306840F4A5
:105E200080203060306840F48030306055E2B9F155
:105E3000000F1DD0B9F10C0F08BFB8F1010F17D03A
:105E4000A1693068002900F0928140F001003060C3
:105E5000FDF732FD054600BF3068800700F19A81EA
:105E6000FDF72AFD401B02284FF00300F4D92AE376
:105E70003068800703D5A069002800F0CF82256A2A
:105E80003068000700F13981D6F89400000900F06D
:105E9000F000854200F237813068B9F1000F40F020
:105EA00008003060306820F0F00040EA0500306003
:105EB0007068E16920F47F4040EA0120706040F0A2
:105EC0009B82B06DC00000F14A82B06D40F08050FE
:105ED000B065B06D00F0805002900298FFF7A4FA10
:105EE000B16D21F08051B1653BE23068800303D58C
:105EF0006068002800F09282207880072DD5B9F1E3
:105F0000040F1CD0B9F10C0F08BFB8F1020F16D066
:105F1000E1683068002900F0EF8140F48070306063
:105F2000FDF7CAFC054600BF306840050ED4FDF7FA
:105F3000C3FC401B02284FF00300F5D9C3E23068D0
:105F4000400503D5E068002800F068827068216988
:105F500020F0FE4040EA016070602078000760D4C5
:105F60002078400774D42078800600F1AB80A06AC6
:105F7000002800F0E882022840F01E81F068E16A03
:105F800000F003028A4240F03D81226B6FF00F0364
:105F900000F0F00103EB0212914240F03381616B9B
:105FA00000F4FE42B2EB012F40F02C81A16B00F017
:105FB0007842B2EBC16F40F02581E26B0023CFF64F
:105FC000E07303EA025200F4C001A2F5001291420C
:105FD00040F01881216C4FF07E4202EA016100F02E
:105FE000C06001F17E41884240F00C813068800140
:105FF00000F1A982306840F080703060F06840F0B5
:106000008070F060FDF758FC04463068800100F1B4
:106010009A82FDF751FC001B02284FF00300F4D9CF
:1060200051E26169D6F89400002900F08C8040F0BC
:106030000100C6F89400FDF73FFC0546D6F8940031
:1060400080078DD4FDF738FC401B0228F6D936E1D5
:10605000B06D10F0805808D1B06D40F08050B06540
:10606000B06D00F080500090009847F20007C4F235
:1060700000073868C00512D4386840F48070386072
:10608000FDF71AFC054600BF3868C00507D4FDF7C8
:1060900013FC401B02284FF00300F5D913E2A0685F
:1060A000012808D0052840F0EE80D6F8900040F096
:1060B0000400C6F89000D6F8900040F00100C6F841
:1060C0009000EEE0616AD6F89800002900F0C680E2
:1060D00040F00100C6F89800FDF7EEFB054600BF52
:1060E000D6F8980080073FF542AFFDF7E5FB401B6F
:1060F00002284FF00300F3D9E5E1306800F0F0002A
:1061000085427FF6C9AEB06DC00000F19A80B06DD7
:1061100040F08050B065B06D00F080500190019863
:10612000FFF782F9B16D21F08051B165B0F5007FC4
:1061300000F08D807F2D8FBF0220A5F17000B0FA96
:1061400080F04009EBE020F00100C6F89400FDF774
:10615000B3FB0546D6F8940080077FF501AFFDF745
:10616000ABFB401B02284FF00300F3D9ABE120F05A
:1061700001003060FDF7A0FB054600BF30688007D6
:106180007FF538AEFDF798FB401B02284FF0030067
:10619000F4D998E1306840F0080030603068D4E904
:1061A000072120F0F00008433060706820F47F4041
:1061B00040EA022070601DE6B9F10C0F00F02E815C
:1061C000306820F080703060306810F0205F03D1BC
:1061D000F06820F00300F060F0684FF6FF71CFF632
:1061E000EE610840F060FDF767FB0446306880010F
:1061F00040F1A981FDF760FB001B03284FF003006D
:10620000F4D360E1B9F10C0F00F00881306840016F
:106210005CBF30685FEAC00000F10081306820F0A8
:1062200080703060FDF748FB05463068800140F122
:106230004D81FDF741FB401B02284FF00300F4D9CC
:1062400041E1FFF7F1F8B0F5007F7FF473AF812DE6
:1062500064D30120A02D88BF022060E020F001005F
:10626000C6F89800FDF728FB054600BFD6F8980051
:1062700080077FF57CAEFDF71FFB401B02284FF027
:106280000300F3D91FE1D6F89010002821F0010196
:10629000C6F89010D6F8901021F00401C6F89010BE
:1062A00072D0FDF709FB054641F28837D6F8900019
:1062B00080077AD4FDF700FB401BB842F6D90320D3
:1062C00003B0BDE8F0833168002821F480313160EB
:1062D000316821F48021316070D0FDF7EDFA054678
:1062E000306880033FF508AEFDF7E6FA401B6428EE
:1062F0004FF00300F4D9E6E020F480703060FDF741
:10630000DBFA0546306840057FF527AEFDF7D4FA85
:10631000401B02284FF00300F4D9D4E0002042F2E1
:106320000001C4F202010A6822F00F0202440A606E
:10633000096801F00F01814270D1306840F0080017
:1063400030603068D4E9072120F0F0000843306065
:10635000706820F47F4040EA022070604CE0FFF754
:1063600063F8B0F5007F06D1812D36D30120A02D32
:1063700088BF022032E07F2D8FBF0220A5F1700080
:10638000B0FA80F0400929E0FDF796FA054641F29F
:106390008837D6F89000800707D5FDF78DFA401BA7
:1063A000B8424FF00300F4D98DE0B8F1000F7FF44C
:1063B000DAADB06D20F08050B065D4E5FDF77CFA21
:1063C0000546306880037FF597ADFDF775FA401BF1
:1063D00064284FF00300F4D975E0002042F2000178
:1063E000C4F202010A6822F00F0202440A6009683E
:1063F00001F00F01814211D1B068F16810F00C007A
:1064000005D00C2839D101F00301012935D13168BB
:10641000090707D4D6F89410090A05E0012003B053
:10642000BDE8F083316809094CF6201201F00F0134
:10643000C0F6000252F821200028114618BF0021A2
:106440000C2826D1F068F168800742F20040C0F2C3
:10645000F40058BF1046F268C1F30311C2F30622DC
:106460005043F2680131B0FBF1F0C2F34161022206
:1064700002EB4101B0FBF1F10BE042F200410428D4
:10648000C0F2F40105D0082803D0002100220C2816
:10649000D8D0B0684CF60812C0F30310C0F6000262
:1064A000105C40F2580200F01F00C14040F20400AE
:1064B000C2F200000068C2F200021160FDF788FE1F
:1064C00000283FF497AC03B0BDE8F083F06848F2D1
:1064D0000C01C0F29D1104F12C0700EA010C8ECFD3
:1064E0006FF00F00D4E90F5400EB02100022CFF63A
:1064F000E07241EA0C0102EA05520843A2F50012DB
:106500004FF07E4540EA032005EA0465104305F19B
:106510007E4540EAC7602843F060306840F08070F4
:106520003060F06840F08070F060FDF7C5F9044617
:106530003068800107D4FDF7BFF9001B02284FF037
:106540000300F5D9BFE7002003B0BDE8F0830000E9
:10655000F0B581B0044690F8200001284FF0020009
:106560004DD00E46012184F8201084F821002168C6
:10657000CA204862532048628868154620F480602B
:106580008860C86860F4906020F48060C860C86863
:10659000400611D4FDF790F9074600BF2168C8688E
:1065A000400709D4FDF788F9C01BB0F57A7FF5D90B
:1065B0002168032203201BE04E61886820F0070059
:1065C0002843886040F20040C4F20100026842F4AF
:1065D00080120260826842F4801282608868012220
:1065E00040F480408860886840F4806088600020C3
:1065F000FF234B62002184F8212084F8201001B091
:10660000F0BD000010B586B040F25014C2F2000494
:1066100069462046002200F067F805A920460022BE
:1066200000F030F89DF815009DF816104DF69043D7
:10663000C2F205039DF81720588199819DF800004A
:10664000BDF801101A81D873198206B010BD000080
:1066500010B5044640F21440C4F201004FF480111A
:1066600001602068C168490508D5C16861F490617E
:1066700021F48061C1602046FFF7C4FF012084F847
:10668000210010BD10B5006840684FEA1043C0F308
:10669000042E00F03F0CC0F34234CB7081F801E0CF
:1066A00081F802C00C700AB1002010BDC0F3035481
:1066B00004EB840403F00F0303EB4403020ACB70E2
:1066C0004FEA1E1343EA830302F00F0202EB430278
:1066D0004A704FEA1C1242EA820200F00F0000EBFF
:1066E00042008870002010BD10B50068836A4B60BE
:1066F00003696FF3DF338B600068C0F30543C0F3B9
:10670000062E00F07F0CC0F380540B7081F801E07E
:1067100081F802C0CC700AB1002010BD020C1B0928
:1067200043EA830302F00F0202EB4302040A0A70F9
:106730004FEA1E1202EB820204F00F0303EB420247
:106740004A704FEA1C1202EB820200F00F0000EBCD
:1067500042008870002010BD70B5002861D004464A
:1067600090F8210028B9002084F82000204600F08D
:106770005BF8022084F821002168CA204862532077
:106780004862C86840061ED44FF0FF30C860FDF76D
:1067900093F82168CA68520615D40646002500BF42
:1067A000FDF78AF8801BB0F57A7F84BF032584F853
:1067B00021502168032DC86802D010F04000EFD0AE
:1067C0000DB1E8B270BD88684FF6BF72CFF68F7218
:1067D00010408860261D236945CE1843A3698D6843
:1067E0001843284388600E61086940EA0240086146
:1067F000204602F0B9FD05460028E2D12068616913
:10680000E269C36C114323F00303C364C36C002526
:106810001943C164FF214162012084F82100E8B2DC
:1068200070BD0125E8B270BD10B5A8B0044601A83E
:106830009C21FAF77AF8206842F60001C4F20001C0
:10684000884201D028B010BD4FF4003001904FF4C1
:106850000070279001A8FEF7FBFD002818BFFBF78A
:106860001BFE41F29000C4F202000168002241F4D4
:106870000041016003200621FDF7D2FE0320FDF751
:10688000BFFE28B010BD00002DE9F04381B00446E2
:1068900090F820000225012800F09E80012084F855
:1068A000200084F821503AB14878CA7891F80290D3
:1068B000000240EA02484EE04878C20642BF00F0BB
:1068C000EF000A304870CA780A2A10D30A3A4CF608
:1068D000CD47D3B2CCF6CC47A3FB0737FB0803EB7D
:1068E0008307A2EB4702102707EB031300E0002306
:1068F0001A43D2B20A284FEA024210D30A384CF6A1
:10690000CD47C3B2CCF6CC47A3FB0737FB0803EB5C
:106910008307A0EB4700102707EB031300E00023D9
:1069200003438878DBB20A2842EA032810D30A38E6
:106930004CF6CD43C2B2CCF6CC43A2FB0323DA081B
:1069400002EB8203A0EB4300102303EB021200E0F2
:10695000002240EA02090F782168CA2048625320C9
:106960004862C86840061FD44FF0FF30C860FCF78B
:10697000A3FF2168CA68520616D40646002500BF48
:10698000FCF79AFF801BB0F57A7F84BF032584F85B
:1069900021502168032DC86802D010F04000EFD0CC
:1069A00015B1FF20486214E05FFA89F040EA080060
:1069B0007A0320F0C00010434860204602F0D4FC67
:1069C00005462068FF2141621DB90120002584F899
:1069D0002100002084F82000E8B201B0BDE8F08377
:1069E0002DE9F041044690F820000227012800F02C
:1069F000AC80012084F8200084F821700D462168C5
:106A0000CA20486253204862C868904640061FD496
:106A10004FF0FF30C860FCF74FFF2168CA6852068C
:106A200016D40646002700BFFCF746FF801BB0F5D2
:106A30007A7F84BF032784F821702168032FC868F8
:106A400002D010F04000EFD017B1FF20486279E08B
:106A50008868B8F1000F00F0400003D0D0B90020E2
:106A6000E87019E0002804BF0020E8702A784CF68E
:106A7000CD400A2ACCF6CC4017D30A3AD3B2A3FBB6
:106A80000037FB0803EB8307A2EB4702102707EB55
:106A900003130BE0E87880056B782A78AF781B0247
:106AA00043EA02423A44104330E000231A436B7831
:106AB000D2B20A2B4FEA02420CD30A3BDFB2A7FB49
:106AC0000076F70807EB8706A3EB4603102606EBD4
:106AD000071700E000271F43AB78FFB20A2B42EAFA
:106AE00007220CD30A3BDFB2A7FB0007F80800EB34
:106AF0008007A3EB4703102707EB001000E00020FE
:106B00001843C0B2EB78104340EA835047F67F72D7
:106B1000C0F27F0210400860886820F480208860FE
:106B2000D5E903028B68104318438860204602F0C1
:106B30001BFC07462068FF2141621FB90120002786
:106B400084F82100002084F82000F8B2BDE8F0812C
:106B5000002804BF0120704770B5044690F8490032
:106B600015460E4628B9002084F84800204600F05B
:106B70001DF8206804F10801FBF7C2FC2068A26838
:106B80003146FBF71BFDD4E90102E36A2946FBF716
:106B900093FC2068A16850F8212042F0010240F8DF
:106BA0002120012084F84900002070BD2DE9F04328
:106BB00087B044F2B440C2F20000017800260029F8
:106BC0000696CDE904660396029674D10121017000
:106BD00041F24C00C4F20200416840F6004441F02A
:106BE000010141604168C4F6000401F00101019116
:106BF0000199016802AD41F00201016001684FF0A6
:106C0000020801F002010191019901684FF00309A6
:106C100041F00801016001680C2701F008010191B1
:106C20000199016841F010010160016801F0100153
:106C300001910199016841F020010160016801F0B2
:106C4000200101910199016841F040010160006853
:106C5000294600F04000019001984FF68B70029099
:106C600004F58060CDE90386CDF814900697FCF713
:106C70002DFD4FF6B370CDE9020820462946CDE937
:106C800004690697FCF722FD4FF23F00CDE90208A8
:106C900004F500602946CDE904690697FCF716FD66
:106CA0003F20CDE9020804F540602946CDE904699A
:106CB0000697FCF70BFD07B0BDE8F08370470000B6
:106CC000704700007047000010B590F83C20012A82
:106CD0004FF0020257D0012380F83C3080F83D206D
:106CE000026843F2004C5368D2F808E0C4F2010C89
:106CF000624505D042F60044C4F20104A24203D129
:106D00004C6823F4700323430C6823F0700323437F
:106D100040F6FF34C4F20004A242536010DD43F297
:106D2000FF33C4F201039A421ADC40F60043C4F276
:106D300000039A421CD042F60043C4F201030CE067
:106D4000B2F1804F14D040F20043C4F200039A42E3
:106D50000ED040F60003C4F200039A4208D00CE0C3
:106D600044F20003C4F201039A4201D0624504D107
:106D700089682EF08003194391600121002280F878
:106D80003D1080F83C20104610BD0000002804BFD4
:106D90000120704710B5044690F83D0028B9002046
:106DA00084F83C00204600F023F8022084F83D00DF
:106DB0002068211D02F0CEFB012084F8480084F8F1
:106DC0003E0084F83F0084F8400084F8410084F8D5
:106DD000420084F8430084F8440084F8450084F8B5
:106DE000460084F8470084F83D00002010BD0000F4
:106DF0007047000090F83D1001291CBF012070472A
:106E0000022180F83D10016840F6FF32C868C4F2E4
:106E10000002914240F00100C8600EDD43F2FF30F5
:106E2000C4F20100814218DC40F60040C4F20000C8
:106E300081421ED042F6004017E0B1F1804F18D0D9
:106E400040F20040C4F20000814212D040F600003F
:106E5000C4F2000081420CD01EE044F20000C4F2F3
:106E60000100814205D043F20040C4F2010081429A
:106E700012D188680722C0F201020240062A4FF0B0
:106E800000000ED0B2F5803F08BF7047086840F0A0
:106E90000100086000207047086840F001000860A9
:106EA000002070477047000010B50168044608696B
:106EB000800744BFC8685FEA80703FD40869400714
:106EC00044BFC8685FEA407044D40869000744BF03
:106ED000C8685FEA00704AD40869C00644BFC86841
:106EE0005FEAC0604FD40869C0071CBFC8685FEA8A
:106EF000C07055D10869000644BFC8685FEA0060E9
:106F000056D40869C00544BFC8685FEA006057D41A
:106F10000869400644BFC8685FEA406058D4086901
:106F2000800646BFC8685FEA806010BD6FF020022F
:106F300020460A61BDE81040FFF7C4BE6FF00200B2
:106F40000861012020778869800749D02046FFF733
:106F5000A9FF4BE06FF004000861022020778869E8
:106F600010F4407F46D02046FFF79CFF48E06FF0CA
:106F70000800086104202077C869800744D02046B3
:106F8000FFF790FF46E06FF01000086108202077BF
:106F9000C86910F4407F41D02046FFF783FF43E0EB
:106FA0006FF001000861204600F01EFB2168A1E798
:106FB0006FF0800008612046FFF782FE2168A0E79D
:106FC0006FF4807008612046FFF778FE21689FE724
:106FD0006FF040000861204600F010FB21689EE73A
:106FE000204600F025F8204600F01CFA2168002019
:106FF000207763E7204600F01BF8204600F012FAE5
:1070000021680020207760E7204600F011F8204634
:1070100000F008FA2168002020775DE7204600F0A4
:1070200007F8204600F0FEF92168002020775AE793
:10703000704700002DE9F04190F83C30012B04BF6F
:107040000220BDE8F0814FEAB2020123052A80F850
:107050003C3000F2AD81DFE812F006004F00A100E5
:10706000F3002E016A0103681A6AA3F1804622F038
:1070700001021A621D6A1A465C6852F818CF8F68BE
:10708000A6F59636D1F800E025F002054FEAB626BF
:10709000072E45EA07050AD80127B74017F0E50F84
:1070A0001FBFCF6825F00C0527F004073D43072ECE
:1070B0000BD8012707FA06F616F0E50F1FBF24F4D8
:1070C0004074D1E9056734433C434FF68C76CFF6E4
:1070D000FE760CEA060747EA0E075C609F614F6880
:1070E00009695F631D629F6947F008079F619F6997
:1070F00027F004079F6157E1036843F200461A6ACC
:10710000C4F2010622F010021A621D6A1A465C6877
:1071100052F818EFB3428E68D1F800C025F0200570
:1071200045EA061505D042F60046C4F20106B34210
:1071300007D1CE686FF0400725F0C00507EA0616B4
:107140003543A3F18046A6F596364FEAB626072EBC
:107150000DD8012707FA06F616F0E50F1FBF24F435
:107160004064D1E9056744EA860444EA870448F6A6
:10717000FF46CFF6FF660EEA060747EA0C275C607B
:107180009F614F6809699F631D629F6947F40067AB
:107190009F619F6927F480679F6104E1036843F260
:1071A00000461A6AC4F2010622F480721A621D6A4D
:1071B0001A465C6852F81CCFB3428E68D1F800E0E2
:1071C00025F4007545EA062505D042F60046C4F2CE
:1071D0000106B34207D1CE6840F2FF47360225F4DC
:1071E0004065BE433543A3F18046A6F596364FEA87
:1071F000B626072E0DD8012707FA06F616F0E50F7A
:107200001FBF24F44054D1E9056744EA061444EA58
:1072100007144FF68C76CFF6FE760CEA060747EA9F
:107220000E075C60DF614F680969DF631D62DF691B
:1072300047F00807DF61DF6927F00407DF61B3E08B
:1072400003681A6AA3F1804722F480521A621A4630
:10725000A7F59637D3F820805D6852F81CCFD1F897
:1072600000E08E684FEAB727072F09D80124BC40F9
:1072700014F0E50F1EBF4C6925F4804545EA8415DE
:1072800028F4005444EA063448F6FF46CFF6FF6679
:107290000CEA060747EA0E275D60DF614F6809695F
:1072A0001F641C62DF6947F40067DF61DF6927F450
:1072B0008067DF6177E003681A6AA3F1804722F4F0
:1072C00080321A621A46A7F59637D3F820805D6897
:1072D00052F854EFD1F800C08E684FEAB727072F55
:1072E00009D80124BC4014F0E50F1EBF4C6925F4F9
:1072F000803545EA042528F4003444EA06444FF674
:107300008C76CFF6FE7603360EEA060747EA0C07C0
:107310005D605F654F6809699F651C625F6D47F03E
:1073200008075F655F6D27F004075F653CE0036851
:107330001A6AA3F1804722F480121A621A46A7F54E
:107340009637D3F820805D6852F854EFD1F800C02A
:107350008E684FEAB727072F09D80124BC4014F0E4
:10736000E50F1EBF4C6925F4802545EA842528F4E5
:10737000001444EA065448F6FF46CFF6FF6606F5C9
:1073800040760EEA060747EA0C275D605F654F68A6
:107390000969DF651C625F6D47F400675F655F6DBB
:1073A00027F480675F6509021368194300231160A1
:1073B000002180F83C101846BDE8F081002804BF89
:1073C0000120704710B5044690F83D0028B9002010
:1073D00084F83C00204600F023F8022084F83D00A9
:1073E0002068211D02F0B6F8012084F8480084F8D6
:1073F0003E0084F83F0084F8400084F8410084F89F
:10740000420084F8430084F8440084F8450084F87E
:10741000460084F8470084F83D00002010BD0000BD
:10742000FAF756BD7047000059B10A1F4FEAB20281
:10743000032A10D8DFE802F00212151800F13F030A
:1074400014E090F83E20012A1CBF01207047022260
:1074500080F83E2028E000F1430307E000F14003FC
:1074600004E000F1410301E000F142031B78012B2D
:107470001CBF01207047032A07D8DFE802F0020A88
:107480000E12022280F83F200EE0022280F84320F4
:107490000AE0022280F8402006E0022280F8412023
:1074A00002E0022280F84220026801F01F01012060
:1074B000136A00FA01F18B431362136A0B43A2F1C2
:1074C0008041A1F596314FEAB1210629136249D8CE
:1074D000884010F0650F45D0506C40F6FF31C4F283
:1074E000000140F400408A4250640EDD43F2FF3058
:1074F000C4F20100824216DC40F60040C4F20000F3
:1075000082421CD042F6004015E0B2F1804F16D006
:1075100040F20040C4F20000824210D040F6000069
:10752000C4F2000009E044F20000C4F2010082420B
:1075300005D043F20040C4F2010082424ED190686F
:107540000721C0F20101014006294FF0000008D0D8
:10755000B1F5803F08BF7047106840F0010010602F
:107560000020704742F6FF30C4F2010082420DDC79
:1075700040F2FF70C4F20000824214DCB2F1804F8E
:10758000DDD040F20040C4F20000D6E743F6FF70C1
:10759000C4F20100824211DC42F60040C4F2010054
:1075A0008242C6D1CBE740F60000C4F2000082421E
:1075B000C5D040F60040C4F20000BEE744F200002F
:1075C000C4F201008242BAD044F60000C4F20100C5
:1075D000824202BF506C40F400405064106840F09A
:1075E0000100106000207047006841F20001C4F201
:1075F0000001884208BFFCF7CDBD7047704700000E
:1076000090F88010012904BF022070472421C0F89F
:10761000841002681168136823F00103136021F0DD
:1076200000530021416613602022C0F8842080F8B6
:107630008010084670470000B0B590F88020012AFD
:1076400004BF0220B0BD0123242280F88030C0F89E
:1076500084200268D0F864E0D2F800C01468BEF15B
:10766000000F24F001041460946824F0606441EA7F
:107670000401916019D0916893684CF6981E5B0FD5
:10768000C0F6000E4CF6A0151EF80340C0F600052B
:10769000EB5CC1F34261E400B4FBF3F31EF801407C
:1076A000695CE500B5FBF1F100E00121A0F868108C
:1076B0002021A0F86A30C2F800C0C0F88410002170
:1076C00080F880100846B0BDB0B590F88020012A3F
:1076D00004BF0220B0BD0123242280F88030C0F80E
:1076E00084200268D0F864E0D2F800C01468BEF1CB
:1076F000000F24F001041460946824F0604441EA0F
:107700000401916019D0916893684CF6981E5B0F44
:10771000C0F6000E4CF6A0151EF80340C0F600059A
:10772000EB5CC1F34261E400B4FBF3F31EF80140EB
:10773000695CE500B5FBF1F100E00121A0F86810FB
:107740002021A0F86A30C2F800C0C0F884100021DF
:1077500080F880100846B0BDB0B582B0B0B1044624
:10776000D0F8840028B9002084F88000204600F07A
:1077700057F82420C4F884002068016821F0010132
:107780000160204601F0F8FF012802D1012002B07B
:10779000B0BDA06A10B1204601F07AFF20684168B0
:1077A00021F490414160816821F02A0181600168E3
:1077B00041F0010101600020C4F88C00FCF77CF866
:1077C000216805460A6812070CD56FF07E4C2046EA
:1077D0004FF4001100222B46CDF800C002F028F92A
:1077E00078B92168086840070ED56FF07E4C2046B6
:1077F0004FF4800100222B46CDF800C002F018F9AA
:1078000010B1032002B0B0BD2020C4F88400C4F839
:1078100088000020E06684F8800002B0B0BD00005F
:10782000FAF79CBA2DE9F04381B00446D0F8840001
:1078300020280BD10E4600294FF001005CD01746DE
:10784000002A59D094F88000012803D1022001B009
:10785000BDE8F083012084F880004FF0000921206A
:107860001D46C4F88C90C4F88400FCF725F8A4F8F1
:107870005470A4F85670A1680746B1F5805F07D12F
:10788000206900281CBF30464E46B046064601E03F
:107890004FF0000884F8809009E000BF16F8010B53
:1078A00021680885B4F856000138A4F85600B4F8E9
:1078B000560088B12046802100223B46009502F008
:1078C000B7F888B9002EE9D138F8020B21686FF3B8
:1078D0005F2008850026E5E72046402100223B4640
:1078E000009502F0A5F818B1032001B0BDE8F083BF
:1078F0002020C4F88400002001B0BDE8F08300001F
:10790000FEE70000B0B584B040F22025C2F20005C9
:1079100029682C1D21EA000028602046FBF7EEFFB5
:1079200058B1286848B92046FBF7CCFF686845F293
:107930000041C4F20001884201D004B0B0BD41F260
:107940004C05C4F20205286840F00200286028684F
:1079500000F0020003900398E86840F08050E8606F
:10796000E86800F0805002900298FDF753FD286807
:1079700040F2004440F0400028602868C4F600044B
:1079800000F040000190019820464021FBF7A6FD41
:1079900004F5A0504FF40051FBF7A0FD55F8140C6E
:1079A00040F4001045F8140C55F8140C20F40010A5
:1079B00045F8140CE86820F40010E8601F20FCF77C
:1079C0000BFE202004B0BDE8B040FCF705BE00006F
:1079D0002DE9F043ADB040F22029C2F20009804603
:1079E00009F10400FBF78AFF002840F0818045F28E
:1079F0000040C4F200004D4645F8040F42F22F400B
:107A0000CCF2800005F1040C702101268CE84300C3
:107A10004FF480500022FF234027169001A8C5E9AB
:107A20000423C5E907220197FDF712FD41F24C043A
:107A3000C4F20204206840F002002060206800F0D8
:107A4000020028902898E06840F08050E060E068EC
:107A500000F0805028902898FDF7DCFC206840F06A
:107A600040002060206800F04000289028981220F4
:107A70002897CDE92906032040F200462B900420E8
:107A8000C4F6000628AF2C9030463946FBF71EFEA0
:107A90004FF40050289006F5A0503946FBF716FE2B
:107AA000E068002140F40010E060E068002200F48B
:107AB00000100090009854F8140C40F4001044F8A2
:107AC000140C54F8140C20F4001044F8140C1F206B
:107AD000FCF7A6FD1F20FCF793FD202000210022CB
:107AE000FCF79EFD2020FCF78BFD2846FBF70AFFE4
:107AF000D9F8000040EA0800C9F800002DB0BDE840
:107B0000F08300002DE9F04381B0036804469869D2
:107B1000C00605D4002000219A69D7055FD464E02F
:107B20001020D8619869800652D48846481C45D0F8
:107B300016464FF02009002506E000BF002798698F
:107B400000F02000384334D1FBF7B6FE2368B8F1CB
:107B5000000F02D0801B4045F0D9596894F84220AC
:107B60009869202A0DD011F480410AD110F4004008
:107B700007D0586840F480405860FBF79DFE2368AA
:107B800006469869002701E0236898698006D6D4E4
:107B9000FBF792FE801B1A28F6D3606C012740F099
:107BA0002000606484F8419084F8425084F840508A
:107BB000EAE77FB90CE09869800609D498698006E5
:107BC00006D4986980065CBF98695FEA8060F2D548
:107BD0002020D861012104209A69D70505D54FF4EA
:107BE000807140F00100D9610121570506D492054A
:107BF0000AD471B9002001B0BDE8F08308304FF419
:107C000080619205D96104D540F002004FF4007103
:107C1000D9619969890744BF002199629969C907A7
:107C200003D1996941F00101996159684EF600024A
:107C3000CFF6006211405960616C084360642020F7
:107C400084F84100002084F8420084F840000120BC
:107C500001B0BDE8F08300002DE9F04381B0044697
:107C600000681D461746DAB2436849F60006CFF6AB
:107C700000463340082666F39F21DDE9089841EA73
:107C800002411943416020464946424600F0C2F88D
:107C900018B1012001B0BDE8F083012D09D02068A2
:107CA000390A816220464946424600F0B3F800286E
:107CB000EFD12168F8B288628869400623D4B9F10F
:107CC000000F24D019F1010016D1886940061AD49A
:107CD000886940065CBF88695FEA406013D48869A0
:107CE00040064FF00000F0D520E000BF206880691A
:107CF00040064FF0000019D4FBF7DEFDA0EB0800B2
:107D00004845F3D905E0002001B0BDE8F083FBF75A
:107D1000D3FD606C40F020006064202084F84100B6
:107D2000002084F8420084F84000012001B0BDE842
:107D3000F08300002DE9F04381B0044600681D4641
:107D40001746DAB2436849F600066FF39F21CFF673
:107D50000046334041EA02411944DDE9089841F008
:107D6000807141F40051416020464946424600F08E
:107D700051F818B1012001B0BDE8F083012D09D000
:107D80002068390A816220464946424600F042F89E
:107D90000028EFD12168F8B288628869000622D4F1
:107DA000B9F1000F23D019F1010015D1886900063F
:107DB00019D4886900065CBF88695FEA006012D444
:107DC000886900064FF00000F0D51FE02068806948
:107DD00000064FF0000019D4FBF76EFDA0EB080081
:107DE0004845F3D905E0002001B0BDE8F083FBF77A
:107DF00063FD606C40F020006064202084F8410046
:107E0000002084F8420084F84000012001B0BDE861
:107E1000F083000070B5044600688069800710D4C4
:107E200015460E4609B3701C17D100BF20464FF00F
:107E3000FF312A46FFF766FEE8B9206880698007AF
:107E4000F4D5002070BD00BFFBF736FD401BB042EB
:107E500015D8206880698007F3D4204631462A4629
:107E6000FFF750FE0028EFD005E0204600212A460B
:107E7000FFF748FE08B1012070BDFBF71DFD606CE7
:107E800040F020006064202084F84100002084F845
:107E9000420084F84000012070BD00004DF66C44A3
:107EA000C2F2050407A500BF2046032101224FF0BE
:107EB000FF3300F0BBFF0346002002212A46F9F7FA
:107EC00009FEF1E7546F756368207374617475730C
:107ED000203D2025640D0A004DF65450C2F20500E5
:107EE000FCF7FAB94DF65450C2F20500FCF7F4B9AC
:107EF000F0B50468D1E900CE04EBC2108B68CD6800
:107F0000E668D0F88820002702F0F022C0F8882028
:107F1000E268C0F6FF77C2F30B423E40624406EBD4
:107F20000E4601323243C0F88820E268D0F88C60F7
:107F30006FF3DF2206F0F026C0F88C60E4682A4474
:107F40006FF3DF242344013343EA0242C0F88C205C
:107F5000D0F8942022F00702C0F894200B69C0F8F2
:107F6000943091F8322091F831408D69D0F89C60BE
:107F700000261204C0F89C6091F8307042EA042296
:107F800042EA05623A44C0F89C20D0F8982040F2BA
:107F9000077422F0FF02C0F898204A69072BC0F846
:107FA0009820D0F8A02022EA0402C0F8A020D1E94D
:107FB000074500F1840244EA0504C0F8A040D0F867
:107FC000AC40C0F8AC604C6AC0F8AC4006D84CF687
:107FD0007810C0F6000050F8230000E00120D36ABA
:107FE000AEEB0C0703F0E023D362D1E90A3143433F
:107FF0007843033040EA0340D062106B40F2FF73D5
:10800000984310631163106840F001001060F0BDE8
:1080100080B582B09C468E4603464DF60C500092C9
:10802000C2F2050000211A467346CDF804C0FBF7E2
:108030002FF802B080BD000080B582B094460246A1
:108040004DF60C500B46C2F205000021CDF800C0E1
:10805000FBF71CF902B080BD80B582B01520FE216F
:108060000122FFF7E9FF152006216222FFF7E4FF56
:1080700015200E218022FFF7DFFF15200F2180221F
:10808000FFF7DAFF152010217122FFF7D5FF152029
:1080900013218122FFF7D0FF152014218122FFF741
:1080A000CBFF152015218222FFF7C6FF15201621D0
:1080B0008222FFF7C1FF152018218822FFF7BCFF9D
:1080C000152019215522FFF7B7FF15201A2110227C
:1080D000FFF7B2FF15201C219922FFF7ADFF1520F5
:1080E0001D210322FFF7A8FF15201E210322FFF701
:1080F000A3FF15201F210322FFF79EFF152020213B
:108100000322FFF799FF152025210322FFF794FF93
:10811000152026218D22FFF78FFF15202A2103220B
:10812000FFF78AFF15202B218D22FFF785FF1520F1
:1081300036210022FFF780FF152037211022FFF79C
:108140007BFF15203A210022FFF776FF15203B2107
:108150000022FFF771FF15203D212022FFF76CFF61
:1081600015203F213A22FFF767FF152040213022DA
:10817000FFF762FF152041211A22FFF75DFF15204E
:1081800042213322FFF758FF152043212222FFF717
:1081900053FF152044211122FFF74EFF15204521E2
:1081A0006622FFF749FF152046215522FFF744FFBD
:1081B000152047214422FFF73FFF15204C21332291
:1081C000FFF73AFF15204D212222FFF735FF15203A
:1081D0004E211122FFF730FF15204F216622FFF7B5
:1081E0002BFF152050215522FFF726FF1520512186
:1081F0004422FFF721FF152057213322FFF71CFFF0
:1082000015206B211B22FFF717FF15207021552227
:10821000FFF712FF152074210C22FFF70DFF152028
:10822000FE210222FFF708FF15209B214022FFF7C5
:1082300003FF15209C210022FFF7FEFE15209D2143
:108240002022FFF7F9FE1520FE210322FFF7F4FE9E
:1082500015209B214022FFF7EFFE15209C210022D4
:10826000FFF7EAFE15209D212022FFF7E5FE1520ED
:10827000FE210422FFF7E0FE15205D211022FFF70A
:10828000DBFE152000218D22FFF7D6FE15200121EF
:108290000022FFF7D1FE152002210122FFF7CCFEBC
:1082A000152003210122FFF7C7FE1520042110220B
:1082B000FFF7C2FE152005210122FFF7BDFE1520A4
:1082C0000621A722FFF7B8FE152007212022FFF77D
:1082D000B3FE152008210022FFF7AEFE152009216C
:1082E000C222FFF7A9FE15200A210022FFF7A4FEF3
:1082F00015200B210222FFF79FFE15200C210122E1
:10830000FFF79AFE15200D214022FFF795FE15205C
:108310000E210622FFF790FE15200F210122FFF704
:108320008BFE15201021A722FFF786FE15201121B4
:108330000022FFF781FE15201221C222FFF77CFEEA
:10834000152013210022FFF777FE152014210222A9
:10835000FFF772FE152015210122FFF76DFE152093
:1083600016214022FFF768FE152017210722FFF78C
:1083700063FE152018210122FFF75EFE152019214A
:10838000A722FFF759FE15201A210022FFF754FEFD
:1083900015201B218222FFF74FFE15201C210022F1
:1083A000FFF74AFE15201D21FF22FFF745FE15208D
:1083B0001E210522FFF740FE15201F216022FFF736
:1083C0003BFE152020210222FFF736FE1520212139
:1083D0000122FFF731FE152022217C22FFF72CFE1F
:1083E000152023210022FFF727FE15202421C22279
:1083F000FFF722FE152025210022FFF71DFE152084
:1084000026210422FFF718FE152027210222FFF75C
:1084100013FE152028217022FFF70EFE15202921BA
:108420000522FFF709FE15202A217422FFF704FE1A
:1084300015202B218D22FFF7FFFD15202D21002275
:10844000FFF7FAFD15202F21C222FFF7F5FD1520B9
:1084500030210022FFF7F0FD152031210422FFF723
:10846000EBFD152032210222FFF7E6FD1520332116
:108470007022FFF7E1FD152034210722FFF7DCFD14
:10848000152035217422FFF7D7FD152036218D22C6
:10849000FFF7D2FD152037210022FFF7CDFD152073
:1084A0005E212022FFF7C8FD15205F213122FFF752
:1084B000C3FD152060215422FFF7BEFD1520612168
:1084C0007622FFF7B9FD152062219822FFF7B4FD4F
:1084D0001520FE210522FFF7AFFD152005211722EB
:1084E000FFF7AAFD15202A210422FFF7A5FD15207C
:1084F00091210022FFF7A0FD1520FE210022FFF7A9
:108500009BFD15203A210722FFF796FD1520342107
:108510000022FFF791FD1520C2210022FFF78CFDFC
:108520000020C8F2015000F10421CDE9000101ABA7
:10853000392004212A22FFF76BFD6B4639200421E4
:108540002B22FFF765FD052011210022FFF774FDA6
:108550007820FAF7CFFE15205121C822FFF76CFDD5
:10856000052029210022FFF767FD02B080BD000031
:108570002DE9F0478EB046F6000801A83421C4F278
:108580000108F8F7D2F94DF6285008F5AC31C2F2DF
:108590000500002344F2C0464022C2F2000680E8F3
:1085A0004E00C0E9043383610377FAF753FF30B11B
:1085B0004DF27170C0F60000B821F9F75BFF40F290
:1085C0001804C2F20004626A4DF628504CF6A81353
:1085D000C2F20500C0F600030021FAF79FFE30B199
:1085E0004DF27170C0F60000BC21F9F743FF616ADB
:1085F0004DF62850C1F58062C2F20500FAF7E4FE9C
:10860000D4E90557D4E9071E4DF65450D4E901C901
:10861000D4E903A6C2F205006A1E29447B1E4D1E42
:10862000C0E9008CC0E9029AC0E904620EEB0702BF
:10863000C0E90635531E0362D4E90937D4E90B6C4F
:10864000194401393A44656B4162013A3144C162CF
:1086500002EB0C010163290A80F83510290C8262B3
:1086600080F8345080F83610FBF796FE30B14DF2AA
:108670007170C0F600005821F9F7FCFED4E9091228
:10868000002001230190CDE902100593FF230492FD
:10869000CDE906304FF480630893052309934FF02A
:1086A0004053CDE90A31ADF834008DF836004DF66F
:1086B00054500C92C2F2050001A90022FBF7CEFD36
:1086C00030B14DF27170C0F600006F21F9F7D2FEA3
:1086D0004DF65454C2F2050420464FF48061002246
:1086E0000026FBF71FFF30B14DF27170C0F600009D
:1086F0007421F9F7BFFED4E900034DF24D72D0F8B2
:108700008410C0F6000241F00101C0F8841000207E
:108710000021F9F7DFF9A3684DF25F72C0F600029D
:1087200000200021F9F7D6F9E3684DF23B72C0F65C
:10873000000200200021F9F7CDF923694DF22972DA
:10874000C0F6000200200021F9F7C4F963694DF278
:108750001372C0F6000200200021F9F7BBF9A369EB
:108760004DF2FF62C0F6000200200021F9F7B2F9D5
:10877000E3692EA200200021F9F7ACF9236A31A2A7
:1087800000200021F9F7A6F9636A34A20020002135
:10879000F9F7A0F9A36A38A200200021F9F79AF9A5
:1087A000E36A3CA200200021F9F794F9236B3EA272
:1087B00000200021F9F78EF94DF6AC4008F5A43100
:1087C000C2F205000222C0E90016C0E90226C0E993
:1087D0000666C0E91062C0E91266C0E91466FAF7DD
:1087E000B9F830B14DF27170C0F60000A321F9F76D
:1087F00041FE4DF6AC40C2F205000121F9F7B4FF8D
:1088000030B14DF27170C0F60000A721F9F732FEC9
:10881000F9F7F0FCF9F7ECFA4DF69C60C2F20500AE
:108820000C21FEF701FE0EB0BDE8F08741636375D1
:108830006D756C61746564484250203D2025640D5F
:108840000A000000416363756D756C617465645660
:108850004250203D2025640D0A00000041636375ED
:108860006D756C6174656441637469766557203D0C
:108870002025640D0A000000416363756D756C610D
:1088800074656441637469766548203D2025640DF4
:108890000A000000546F74616C5769647468203D6D
:1088A0002025640D0A000000546F74616C486569EE
:1088B0006768203D2025640D0A000000B0B586B031
:1088C00041F24C05C4F20205286840F2004440F031
:1088D000020028602868C4F6000400F0020001903D
:1088E00001980420019001200290002004900220B1
:1088F000039001A92046FAF7E9FE0720FBF76CFE7A
:108900002868022140F480702860286800F4807094
:108910000090009804F5E050FAF7E0FD0420FEF71F
:10892000F1FF06B0B0BD0000FAF7E4BC80B586B038
:1089300041F24C00C4F20200016841F00201016002
:10894000006801A900F00200019001980420019044
:1089500001200290022004900020039040F2004089
:10896000C4F60000FAF7B2FE06B080BD80B586B04E
:1089700041F24C00C4F20200016841F480710160D0
:10898000006801A900F48070019001980220019014
:108990000020CDE903004FF48810029042F200005D
:1089A000C4F60000FAF792FE07200F210F22FBF712
:1089B00037FE0720FBF724FE06B080BD10B504206B
:1089C000FFF706F840F22024C2F20004201D8421A3
:1089D00004223223FAF7E8FF002808BF10BDF9F798
:1089E00023F924680F20FEF78DFF2046FEF7F0FFE5
:1089F000BDE81040F9F718B9B0B584B040F21403DF
:108A00000A4601460020C2F2000340F220251C68FD
:108A10008DF80F0001200DF10F03C2F20005CDE922
:108A20000030281D01230294FBF7DCF840B1F9F770
:108A3000FBF82C680F20FEF765FF2046FEF7C8FF05
:108A40009DF80F0004B0B0BD70B584B00C4640F284
:108A50001401C2F2000140F220260D68C2F20006A5
:108A60000146CDE90023301D224601230295FBF784
:108A7000B9F8044640B1F9F7D7F835680F20FEF78A
:108A800041FF2846FEF7A4FF204604B070BD000059
:108A900010B540F20044C4F600042046042101222F
:108AA000FAF704FF0120FAF725FC204604210022F2
:108AB000BDE81040FAF7FABEB0B584B00B460146E7
:108AC00040F21400C2F2000040F2202504688DF844
:108AD0000F2001200DF10F02C2F20005CDE90020A8
:108AE000281D1A4601230294FBF7F2F940B1F9F769
:108AF0009BF82C680F20FEF705FF2046FEF768FF65
:108B000004B0B0BD70B5B4B04DF6A840C2F20500D7
:108B1000002404706620002100220123CDE90044D6
:108B2000CDE902440494012600F0A4FA9920002122
:108B300000220123CDE90044CDE90244049400F071
:108B400099FA4FF080750520002100220123CDE91C
:108B5000004402940496039500F08CFA0DF119007C
:108B600000F07AFA0120FAF7C5FB4FF48070032673
:108B7000CDE900409F20002102220123CDE90245DA
:108B8000049600F077FA20A800F066FA40B14DF2A2
:108B90009772C0F6000202200221F8F79BFF0BE05B
:108BA000BDF880004DF28872000403BAC0F60002DE
:108BB00002200521F8F78EFF00240620CDE90C44A1
:108BC0000E904DF6FC500125C2F205000CA941F2B1
:108BD0008832CDE90F541194139417941A94CDE967
:108BE0001D441F94FCF714F8002818BFF9F754FC33
:108BF00005200E904FF080701C94CDE91A054DF6BB
:108C0000FC50C2F205000CA941F28832FCF700F8D2
:108C1000002818BFF9F740FC0220CDE9070010201A
:108C20000B904FF480000A904DF6FC500024C2F2E5
:108C3000050007A941F288320994FBF74FFF00288D
:108C400018BFF9F729FC72200E904FF44070129073
:108C50004FF4807013904FF44050CDE914044DF65A
:108C6000FC50C2F205000CA941F28832FBF7D0FF9C
:108C7000002818BFF9F710FC07208DF81B004DF6EF
:108C8000FC50C2F205000DF11B0141F28832FCF7E5
:108C90007FFA002818BFF9F7FFFB05200E904DF66C
:108CA000FC500024C2F205000CA941F28832139452
:108CB000FBF7AEFF002818BFF9F7EEFB0120089084
:108CC0004DF6FC50C2F2050007A941F28832079424
:108CD000FBF704FF002818BFF9F7DEFB06200E9013
:108CE00000201A904DF6FC50C2F205000CA941F28A
:108CF0008832FBF78DFF002818BFF9F7CDFB052060
:108D00000E904FF080701A904DF6FC50C2F20500A4
:108D10000CA941F28832FBF77BFF002818BFF9F756
:108D2000BBFB0220CDE907004DF6FC50C2F2050066
:108D300007A941F28832FBF7D1FE002818BFF9F7E6
:108D4000ABFB72200E90002012904FF480701390B5
:108D50004DF6FC50C2F205000CA941F28832FBF737
:108D600057FF002818BFF9F797FB4DF6FC50012478
:108D7000C2F205000DF11B0141F288328DF81B4053
:108D8000FCF706FA002818BFF9F786FB2820FAF747
:108D9000B1FA002040F2FA51CDE9200022910421DD
:108DA00010222391CDE924204FF4806227924FF4C2
:108DB00040522690CDE928204FF080622B90CDE9DB
:108DC0002E244DF6FC54C2F2050420AD0DF1190617
:108DD000CDE93001CDE932002046294641F2883202
:108DE000FBF716FF002818BFF9F756FB204631465F
:108DF00041F28832FCF70EF9002818BFF9F74CFB56
:108E00009DF81900C007E7D134B070BD01F090B8EB
:108E1000FEE70000FEE7000080B5242202F0CEF855
:108E200080B2002818BF012080BD000080B582B04C
:108E30009C4601ABCDF800C002F056F9019900281C
:108E400018BF4FF0FF31084602B080BD80B5012247
:108E5000342302F0A1F980B2002818BF012080BDA0
:108E600080B502F035FA80B2002818BF012080BD1D
:108E700080B502F067FA80B2002818BF012080BDDB
:108E80002DE9F047036882681E6826F040561E6090
:108E90005AB10A68022A11D103F5C07E03F5C472E3
:108EA00003F5C87C03F5D07410E01A684E6822F010
:108EB000800232431A600A68022AEDD003F5807EF0
:108EC00003F5847203F5887C03F59074D1E912569A
:108ED0003543CEF80050CD6A6DB18D6A01F12C0793
:108EE0002560DEF80040E0CF24F47C142C433C43A2
:108EF0003443CEF8004014684D6C24F01F042C431A
:108F000014608A6B0AB10C6804B3CD68CC6925B3D0
:108F1000DEF80060B4B3002A4DD04CF2C000D1E9B5
:108F200004A72A43CFF2FF00224306EA00093A438E
:108F3000D1E9088042EA090242EA0A020E6C1043B3
:108F400040EA08003043CEF8000052E0CC6B013C10
:108F50001C64CD68CC69002DDAD1002C51D0DEF82C
:108F60000000002A52D04CF2C007CFF2FF07D1E92F
:108F700008653F37224307402A433A4301F1400046
:108F800032434AE0002A51D04CF2C000CFF2FF0039
:108F9000D1E9043400F57C502A43304022430E6C62
:108FA000104318433043CEF800008868CCF8000026
:108FB0000020BDE8F08743F63F7226EA0209D1E9B6
:108FC00004672C433C43D1E9088244EA0904344352
:108FD000224342EA0802CEF80020806AB0F1805FA6
:108FE00007D14869082804D1DEF8000040F000608D
:108FF000A9E78868CCF80000886998640020BDE87B
:10900000F087082181640120BDE8F0874A6A20F4D6
:109010007C57224301F120003A4300681043CEF808
:109020000000886998640020BDE8F087D1E9044316
:1090300026F03F022B431A432243CEF80020806AD9
:10904000B0F1805FB1D148690828AED1DEF80000E8
:1090500040F00060A7E7000080B501464DF6FC50E7
:10906000C2F2050041F28832FBF7D4FF002818BF96
:10907000012080BD70B594B0119202AADDE91AEC0E
:10908000DDE918541C9E29C206A880E81240002081
:10909000CDE90EC6CDE90000059009901090CDE90C
:1090A00012000B904DF6FC50C2F20500694641F2E9
:1090B0008832FBF7ADFD002818BF012014B070BD49
:1090C0004DF6A941C2F205010978002908BFFAF757
:1090D00011B901F051BB0000F0B581B041F20007B9
:1090E000C4F20207FA680D46910704460AD0F868F0
:1090F000216800F0030088424FF0010000D171BBED
:1091000001B0F0BD2068032816D0022809D001283C
:109110000FD13968012211F0020182EA510107D012
:1091200016E03968012211F4806182EA91210FD1A1
:10913000A9B1012001B0F0BD3968890307D43968AD
:10914000012211F4802182EA9141F1D000E0002156
:10915000FA6822F003021043F8600029E9D1386868
:1091600020F080603860FAF7A7FB064638680001F7
:1091700005D5FAF7A1FB801B0228F7D946E0012D9F
:109180000AD0DDB9386948F20F01C0F2FF71014021
:10919000D4E90220C0061FE048F20F013869CFF67B
:1091A000FF1101F1B461014020690023CFF6E073A3
:1091B000A26803EA0050A0F500100DE0386948F2FB
:1091C0000F01CFF6FF11014060694FF07E43A268A6
:1091D00003EA006000F17E4041EA022162686FF01C
:1091E0000F0303EB0212084310433861386840F064
:1091F00080603860FAF760FB054600BF3868000100
:1092000007D4FAF759FB401B0228F7D9032001B015
:10921000F0BDA069396908433861002001B0F0BD94
:10922000F0B581B041F20007C4F20207FA680D46BA
:10923000910704460AD0F868216800F003008842CC
:109240004FF0010000D171BB01B0F0BD20680328D0
:1092500016D0022809D001280FD13968012211F057
:10926000020182EA510107D016E03968012211F4A7
:10927000806182EA91210FD1A9B1012001B0F0BD36
:109280003968890307D43968012211F4802182EA00
:109290009141F1D000E00021FA6822F0030210436E
:1092A000F8600029E9D1386820F080503860FAF77A
:1092B00003FB06463868800005D5FAF7FDFA801BE7
:1092C0000228F7D946E0012D0AD0DDB9786948F2C5
:1092D0000F01C0F2FF710140D4E90220C0061FE077
:1092E00048F20F017869CFF6FF1101F1B461014036
:1092F00020690023CFF6E073A26803EA0050A0F5CE
:1093000000100DE0786948F20F01CFF6FF1101401F
:1093100060694FF07E43A26803EA006000F17E407E
:1093200041EA022162686FF00F0303EB0212084367
:1093300010437861386840F080503860FAF7BCFA22
:10934000054600BF3868800007D4FAF7B5FA401B1D
:109350000228F7D9032001B0F0BDA069796908435C
:109360007861002001B0F0BD70B542F60806C4F285
:1093700000067168044621F0800171603168890639
:1093800016D42068C16821F0A001C160FAF794FAF0
:10939000054600BF2068C068800627D4FAF78CFA1B
:1093A000401BB0F57A7FF5D9032084F8210070BD09
:1093B000306820F0200030602068C16821F0A001F2
:1093C000C160FAF779FA05462068C06880060FD4B4
:1093D000FAF772FA401BB0F57A7FF5D9032084F8CA
:1093E0002100316841F02001316070BD002070BD66
:1093F0000020316841F02001316070BD40F2501012
:10940000C2F20000FDF724B94DF2B060C2F20500CF
:10941000002101607047000080B598B007A8442182
:10942000F7F783FA00200690CDE90400CDE90200A9
:109430000020FBF753FF002818BFF9F72DF80B2089
:1094400007904FF4803008904FF480700A904020CD
:109450000B9001200C9002201E21CDE911001390E9
:10946000CDE91410CDE9160007A8FCF7AFFC80B1D8
:109470004DF2B2624DF2DF634FF0FC0CC0F6000219
:10948000C0F6000300200221CDF800C0F8F722FB4F
:10949000FEE70F200290032003900020CDE9040096
:1094A000069002A80521FCF72FFA80B14DF2B262B6
:1094B0004DF2DF6340F2091CC0F60002C0F6000363
:1094C00000200221CDF800C0F8F704FBFEE718B039
:1094D00080BD00004EF68850CEF20000016841F4D5
:1094E000700101607047000080B586B04DF6904075
:1094F00040F2011140F60F62C2F20500C0F21631CF
:10950000C2F62672C0E9001226200E210F22032384
:109510004FF02F0CCDE90032CDE9021004A200205B
:1095200000211623CDF810C0F8F7D4FA06B080BD9C
:1095300025642F25642F25640D0A25643A25643A95
:1095400025640D0A000000004DF6E860C2F2050037
:10955000FDF7AABC80B540F6FF330268C4F20003F1
:1095600098422DDCB0F1804F3CD040F20043C4F271
:109570000003984236D040F60003C4F2000398423C
:1095800030D042F6FF33C4F20103984234DD43F693
:10959000FF73C4F2010398423EDD44F20003C4F2BB
:1095A0000103984251D044F60003C4F201039842EB
:1095B0004BD044F20043C4F20103984245D048E046
:1095C00040F60043C4F2000398420BD043F200433C
:1095D000C4F20103984205D042F60043C4F20103ED
:1095E0009842CED14B6822F070021A4342F6FF3304
:1095F000C4F201039842CADC40F2FF73C4F20003D4
:10960000984216DCB0F1804F1FD040F20043C4F204
:109610000003984219D01CE042F60043C4F2010353
:10962000984212D043F20043C4F2010398420CD096
:109630000FE040F60003C4F20003984205D040F664
:109640000043C4F20003984203D1CB6822F4407275
:109650001A434B6922F0800E8A6843EA0E03D1F860
:1096600000C00360C262A0F18042A2F596324FEAC8
:10967000B222072AC0F828C007D8012303FA02F251
:1096800012F0E50F1CBF096901630121416180BD32
:1096900080B5816ACA070CD18A0715D44A071ED43F
:1096A0000A0727D4CA0630D48A0639D44A0657D5C1
:1096B00041E00268D0F82CC0536823F4003343EA39
:1096C0000C0353608A07E9D50268D0F830C05368AC
:1096D00023F4803343EA0C0353604A07E0D5026861
:1096E000D0F834C0536823F4802343EA0C0353605A
:1096F0000A07D7D50268D0F838C0536823F400436E
:1097000043EA0C035360CA06CED50268D0F83CC0C9
:10971000936823F4805343EA0C0393608A06C5D50B
:109720000268D0F840C0936823F4005343EA0C0366
:1097300093604A0614D50268D0F844C05368BCF55B
:10974000801F23F4801343EA0C03536008D1D2F83E
:1097500004C0D0F848E02CF4C00343EA0E03536081
:10976000090658BF80BD0168C06C4A6822F4002217
:109770001043486080BD000070B504462269D4E9FA
:10978000021300680A436169E6691143026846F6FC
:10979000F315CCF6FF7531432A401143016041684F
:1097A00048F2000C21F4405119434160A269C4F20F
:1097B000000C60451CBF216A0A4381684FF2FF43D9
:1097C000C1F2FF13194011438160C16AD4F824E04B
:1097D00021F00F0141EA0E01C16244F6FF71C4F2AB
:1097E000000188424FF0100318DC44F20041C4F23B
:1097F0000001884227D044F60001C4F200018842EB
:1098000028D044F60041C4F2000188423ED141F222
:109810008801C4F2020109688B092FE045F20001BA
:10982000C4F2000188421CD0604521D043F60001FB
:10983000C4F20101884229D141F28801C4F2020137
:109840000B6877A21EE041F28801C4F202010968A8
:109850008B0813E041F28801C4F2020109680B0988
:109860000CE041F28801C4F2020109680B0A05E02C
:1098700041F28801C4F2020109688B0A4CF66812B1
:10988000C0F6000203F0030152F82130604542F2B5
:109890000040C0F2F40013D0B6F5004F22D1082BDF
:1098A0004FF0010100F2B480DFE803F0055E6CB216
:1098B00064B2B2B26A00FCF70DFA002857D15DE03D
:1098C000082B4FF0010100F2A380DFE803F005A1AF
:1098D00024A11CA1A1A12200FCF7FCF9B8B1D4F885
:1098E00024E018E0082B4FF0010100F29180DFE83E
:1098F00003F00569778F6F8F8F8F7500FCF7EAF99A
:10990000002862D168E0FCF711FA0028E7D10021B5
:109910007EE04FF400404CF65011C0F6000131F8E3
:109920001E106268B0FBF1F002EB420188424FF07A
:1099300001016DD3130398426AD8010E000210EBA7
:10994000520041F100010023F6F747FE4FF6FF42B7
:10995000A0F54071C0F20F02914203D82168C8609F
:10996000002155E0012153E0FCF7CAF930B1D4F8E9
:1099700024E007E0FCF7DAF90028F8D1002147E0FD
:109980004FF400404CF65011C0F6000131F81E10A3
:109990006268B0FBF1F0510801EB4000B0FBF2F05F
:1099A0004FF6EF72A0F11001914209D84FF6F07115
:1099B0000140C0F3420022680844D060002127E043
:1099C000012125E0FCF79CF930B1D4F824E007E050
:1099D000FCF7ACF90028F8D1002119E04FF4004061
:1099E0004CF65011C0F6000131F81E104FF6EF7220
:1099F000B0FBF1F0616800EB5100B0FBF1F0A0F1B9
:109A00001001914203D82168C860002100E00121C3
:109A10004FF00110A066002208462267626770BD01
:109A20000100000004000000020000000800000027
:109A30002DE9F041044600681546C2690E46114002
:109A4000891BB1FA81F14909A94240F09C80DDF8F7
:109A50001880B8F1000F26D018F101017CD100BFA9
:109A6000C1693140891BB1FA81F14909A94240F02D
:109A70008A80C1693140891BB1FA81F14909A94243
:109A800040F08180C1693140891BB1FA81F14909F7
:109A9000A94278D1C1693140891BB1FA81F14909E4
:109AA000A942DDD06FE0F9F707FF00BF206850E85A
:109AB000000F216820F4D07041E80002BAB320689A
:109AC00050E8000F216820F4D07041E8000272B322
:109AD000206850E8000F216820F4D07041E80002AF
:109AE0002AB3206850E8000F216820F4D07041E8C4
:109AF0000002002ADAD11AE0206850E8020F21683B
:109B000020F0010041E80202DAB1206850E8020FBB
:109B1000216820F0010041E8020292B1206850E87B
:109B2000020F216820F0010041E802024AB12068DA
:109B300050E8020F216820F0010041E80202002AEB
:109B4000DAD12020C4F88400C4F88800002084F80A
:109B500080000320BDE8F0811F4600BFF9F7ACFE8E
:109B6000C01B4045A2D820680168490744BFC169AD
:109B70005FEA01510AD4C0693040801BB0FA80F01E
:109B80004009A842EAD00020BDE8F0814FF400610E
:109B9000016200BF50E8000F216820F4D07041E856
:109BA0000002C2B3206850E8000F216820F4D07092
:109BB00041E800027AB3206850E8000F216820F4E1
:109BC000D07041E8000232B3206850E8000F2168ED
:109BD00020F4D07041E80002EAB12068DAE700BF63
:109BE000206850E8020F216820F0010041E80202DD
:109BF000DAB1206850E8020F216820F0010041E846
:109C0000020292B1206850E8020F216820F00100A2
:109C100041E802024AB1206850E8020F216820F0B2
:109C2000010041E80202002ADAD12020C4F88400B1
:109C3000C4F88800C4F88C00002084F88000032059
:109C4000BDE8F081FEE7000080B54DF66C4040F2C3
:109C50006C01C2F20500C2F20001FFF7DDF848B165
:109C60004DF22E62C0F6000200200221BDE88040C5
:109C7000F7F730BF4DF24762C0F600020020002126
:109C8000BDE88040F7F726BF70470000F0B581B00F
:109C90000F4634211D4616460446F6F746FE25F0CB
:109CA0000300A0F108016760C4E90660C4E9046626
:109CB000A1600221E16030444EF6EE6140F8086D8B
:109CC000CFF6FF714460C6E9000145F2454100202E
:109CD000C4F259212062EFF3108072B6216040F285
:109CE000BC11C2F200010A6840F2B813C2F20003CC
:109CF0002AB11F683E6B3C6306F12C0301E0274646
:109D0000264601321C60C4E90B760A6080F3108895
:109D1000002001B0F0BD000080B5EFF3108E72B6E8
:109D2000836E49F61952C0F60002934202D08EF3B8
:109D3000108880BDD0F8AC208A42F8D1C16E0029CD
:109D4000F5D00A6844F24E43C4F256439A42EED12B
:109D50004B69002BEBD0D1F810C00022BCF1000FF2
:109D600082660AD05A1E4A610AD0D0E91C32844564
:109D70005A67136708BF0B6104E00122CA6001E063
:109D800000220A61016B0729D1D10721C0F8841094
:109D900040F2E011C2F200010A6801320A608EF35B
:109DA000108800F057FDEFF3108E72B68EF3108816
:109DB00080BD0000B0B50D4624210446F6F7B5FD80
:109DC00044F24E41C4F2564140F2AC1C6560EFF3E0
:109DD000108072B62160C2F2000CDCF8002040F264
:109DE000A813C2F200032AB11D68E969EC6101F110
:109DF000180301E0254621461C60C4E90651511CA8
:109E0000CCF8001080F310880020B0BD70B5EFF3DF
:109E1000108C72B68568046A25EA040E0EEA010504
:109E20006C1A18BF012455B104EA52043CB9D20798
:109E3000C3F800E012D100208CF3108870BDDDF86B
:109E400010E0BEF1000F15D040F2E015C2F200059F
:109E50002C689CB107208CF3108870BD42690AB150
:109E6000026942B3826822EA0101816000208CF31A
:109E7000108870BD07208CF3108870BD40F2C814A4
:109E8000C2F20004246849F61956C0F60006C4E977
:109E90001E13C4F88020C4E91A60D4F8AC204169CC
:109EA0000132C4F8AC2069B10269226752F8743FEC
:109EB00063671C670AE0026A1143016200208CF3A9
:109EC000108870BD0461246704F17402013141619E
:109ED0000720206301201460A063C4F84CE02868C8
:109EE000013028608CF31088204600F04DFDEFF320
:109EF000108C72B6D4F884008CF3108870BD00000A
:109F000080B500F0EFFB00F061FE40F29810C2F265
:109F100000000021C0E90011C0E90211C0E90411EC
:109F2000C0E90611C0E90811C0E90A1180BD0000AE
:109F300010B540F25C04C2F20004206810F10F3F3B
:109F40000DD04FF0F0302060F6F712FAFFF7D8FF8F
:109F500040F2E010C2F200000168013101604FF0F0
:109F6000F03020604DF2B460C2F20500006801F0EC
:109F7000FDFF00202060BDE81040F6F741BA000068
:109F800080B5EFF3108E72B6836E49F68172C0F61B
:109F90000002934202D08EF3108880BDD0F8AC202E
:109FA0008A42F8D1C16E0029F5D00A6845F24543CE
:109FB000C4F655539A42EED1CB69002BEBD04FF04B
:109FC000000C5A1EC0F868C0CA6109D0D0E91C3222
:109FD000D1F818C05A678445136708BF8B6101E048
:109FE000C1F818C0016B0D29D5D11D21C0F884100E
:109FF00040F2E011C2F200010A6801320A608EF3F9
:10A00000108800F027FCEFF3108E72B68EF31088E4
:10A0100080BD000070B50E46342115460446F6F7A3
:10A0200084FC45F24541C4F6555166602561EFF365
:10A03000108072B6216040F2C41140F2E4134AF27B
:10A040006156C2F20001C2F20003C0F600060A68BF
:10A050001E6040F2C013C2F200032AB11E68756A86
:10A06000746205F1200301E02646254601321C609A
:10A07000C4E908650A6080F31088002070BD000004
:10A0800070B5EFF3108672B640F2C812C2F2000249
:10A090008368146873B1C268A2422DD091B340F2B4
:10A0A000E01CC2F2000CDCF800307BB386F31088B1
:10A0B0001D2070BD01218160C460CCB101690129FE
:10A0C00003D1E16A416120218162214651F8A43F18
:10A0D0000546024623B11A6B1D4602F12C01186396
:10A0E0000860C0E90B52D4F8A0000130C4F8A00009
:10A0F00086F31088002070BD591C816086F310889B
:10A10000002070BD86F310881D2070BD49F6817354
:10A11000D4F8AC50D0F81CE0C0F60003A3666B1C6A
:10A12000BEF1000FC4F8AC30E06606D08369236747
:10A1300053F8745F65672C6703E08461246704F15A
:10A1400074031C600EF10103C3610D23236301231B
:10A15000A363E164DCF800100131CCF8001086F351
:10A1600010880169012910D1836AE16A8B4288BF96
:10A170008162D2F89C00814238BFC2F89C10D06A3C
:10A18000884202D9104600F065F8204600F0FCFB3A
:10A19000D4F8840070BD0000F0B581B0EFF31081F9
:10A1A00072B6D0F81CE0BEF1010F04D881F310881C
:10A1B000002001B0F0BD8369BEF1020F1C6F09D110
:10A1C000E26ADB6A9A4238BF846181F3108800201A
:10A1D00001B0F0BD40F2E01CC2F2000CDCF800203F
:10A1E0000132CCF800201A4607E000BFC6692B46B2
:10A1F0002A46B6462C6F944213D0E66ADF6A81F392
:10A200001088EFF3108172B68569AA42EED1BE4282
:10A21000C66938BF2346B645E9D125462C6F94421E
:10A22000EBD1DCF800709342A7F10107CCF8007085
:10A2300009D0D3E91C767E673767576FC3E91C27BF
:10A240003B675367836181F3108800F0DDFA0020DB
:10A2500001B0F0BD2DE9F0410446EFF3108072B675
:10A26000226B0D4652B1D4F89810E562A94238BF6E
:10A270000D46E56380F31088BDE8F08140F2CC160E
:10A2800040F2E011C2F20006C2F200013768D4F8D1
:10A290002C800A6802320A600E2121630121A16329
:10A2A0000021E16480F31088204600F06DFBEFF39D
:10A2B000108072B6D4F89810E562A94228BF2946EA
:10A2C000E16380F31088204600F0C4FAEFF31080B9
:10A2D00072B63268A24201D0216B19B180F31088A6
:10A2E000BDE8F081E16AD26A914211D9E36B8B42F9
:10A2F000F4D29342F2D8A84534603EBF4DF2B86222
:10A30000C2F2050242F8214080F31088BDE8F081D6
:10A31000A742E3D1A8453460E0D24DF2B862C2F260
:10A32000050242F8214080F31088BDE8F08100006A
:10A330002DE9F0410446EFF3108072B6A268B2B185
:10A3400040F2C813C2F20003E1681B68994205D0CD
:10A3500040F2E013C2F200031B6803B3013AA260AB
:10A360000BD080F3108800252846BDE8F08180F3EB
:10A3700010881E252846BDE8F081B1B1D1F8A02093
:10A38000013AC1F8A02016D0D4E90B23D1F8A4706B
:10A390001363A742DA6208BFC1F8A4200EE080F37D
:10A3A00010881E252846BDE8F08180F3108800251E
:10A3B0002846BDE8F0810022C1F8A420A3692269E3
:10A3C000002B08BF002A20D0D1F89450012A2FD1A9
:10A3D00040F2E012C2F2000213680133136080F30E
:10A3E0001088D1F8A4702023B7B1384605E000BF2B
:10A3F000C66AF01B18BF304670B10669012EF7D14E
:10A40000866A9E4238BF3346F2E70025E56080F356
:10A4100010882846BDE8F081EFF3108072B6176807
:10A42000AB42A7F101071760C1F89C3038BF1D4649
:10A43000E169022914D32169012911D140F2E01602
:10A44000C2F2000631680131316080F31088204685
:10A45000FFF7A2FEEFF3108072B631680139316068
:10A46000A6694EB12169012928D1F16AD4F80C807E
:10A4700061612021A16223E040F2E016C2F20006F1
:10A4800031680131316080F31088E068C16AA94207
:10A490004FF02001A16202D02946FFF7DBFEEFF367
:10A4A000108072B63168002501393160E56080F3B3
:10A4B000108800F0A9F92846BDE8F0814FF00008A7
:10A4C000D6F8A01006F1A40229B113681F6B1C6313
:10A4D00007F12C0201E02346274601311460C4E94C
:10A4E0000B37C6F8A0100121A160E169E6600139CF
:10A4F000E16105D0D6E91C12A1614A67116701E04C
:10A500000021A1610021B166C6F8841040F2E0117B
:10A51000C2F200010A6801320A6080F310882069E3
:10A52000012816D1E06960B12046FFF735FEEFF350
:10A53000108072B6A16900291CBFC96AA16280F3AC
:10A540001088D8F82C00A84203D040462946FFF7CF
:10A5500081FE304600F07EF900252846BDE8F081F6
:10A5600070B540F2E015EFF3108172B6C2F200054B
:10A570002A680446501C2860D4F8A400012600BFB5
:10A5800058B1866081F31088FFF7D2FEEFF3108197
:10A5900072B6D4F8A4000028F2D1286801382860E7
:10A5A00081F3108870BD00002DE9F04F81B0DDE926
:10A5B0000A5993460F46DDF838A00C9E04462846FB
:10A5C0004946EF229846F6F7A8F92046B021F6F75B
:10A5D000ACF909EB05010139C4E911B8C4E90A76FF
:10A5E000C4E903510D9920208E423146C4E9059AF1
:10A5F000C4F81CA018BF0021E163C4E92561C4F8B8
:10A600009C00032020634AF67530C0F600004AF231
:10A610001D71C4E91504C0F600012046F5F758FF86
:10A6200045F24421C5F24841EFF3108072B6216033
:10A6300040F2DC11C2F200010A6840F2D813C2F203
:10A6400000033AB11F68D7F88C60C7F88C4006F158
:10A65000880301E02746264601321C60C4E92276C1
:10A660000A6040F2E011C2F200010F9D0A68012D5C
:10A6700002F101020A6014D140F25C01C2F2000151
:10A680000968EFF305821143B1F1F03F19D340F2AD
:10A69000CC11C2F200010D689DB1E96AEE6BE9636D
:10A6A00011E080F31088EFF3108072B60A68013A67
:10A6B0000A6080F3108800F0A7F8002001B000F0D5
:10A6C0000EB80025002680F31088204600F0C2F85E
:10A6D000002D18BFEE63002001B000F000B830BCC0
:10A6E000BDE8C08FB0B540F2C814C2F20004002526
:10A6F0002020C4E90055C4E902504DF2B860C2F20E
:10A7000005008021F6F711F9C4E90455A561206A16
:10A71000E56140F085702062B0BD000010B540F2E8
:10A72000C810C2F200000468D4E91110884740F252
:10A73000E410C2F20000016809B1204688470121F7
:10A74000EFF3108072B62163A1630021E16440F24F
:10A75000E011C2F200010A6801320A6080F3108839
:10A76000EFF3148020F0040080F314882046BDE845
:10A77000104000F009B9000010B540F2C812EFF324
:10A78000108172B6C2F20002146864B140F25C0239
:10A79000C2F200021268EFF305831A4307D081F377
:10A7A0001088132010BD81F31088132010BD4DF2C6
:10A7B000BC72C2F2050294420AD068B140F2E012C3
:10A7C000C2F2000213685BB181F31088132010BD40
:10A7D00081F31088132010BD81F31088002010BD74
:10A7E000042323630123A3630023C4F88430E064BB
:10A7F00010680130106081F31088204600F0C4F822
:10A80000D4F8840010BD000040F2E010C2F2000055
:10A81000006800B1704740F2C81040F2CC11C2F29B
:10A820000000C2F20001006809688842F2D04EF6CA
:10A830000450CEF200004FF080510160EFF305802C
:10A84000002818BF7047EFF3108062B680F31088BD
:10A8500070470000F0B581B0EFF3108572B6044682
:10A86000406E002804F14C0002D000F03BFA01E0F9
:10A870000021016040F2E010C2F2000001680139DD
:10A880000160A16B226B002940F2CC11C2F20001E1
:10A8900008D0013A022A0CD3626B32B90022A263BB
:10A8A000226306E02AB1626B1AB3002203232363FA
:10A8B000626340F2C812C2F20002126885F3108887
:10A8C00009688A4201D0006808B101B0F0BD4EF6B7
:10A8D0000450CEF200004FF080510160EFF305808C
:10A8E0000028F2D1EFF3108062B680F3108801B037
:10A8F000F0BDE26A4DF2B86CC2F2050C5CF8223091
:10A900004FF0000EC4F830E02BB15A6A5C6214625A
:10A91000C4E90832CDE74CF8224040F2D01E40F2A4
:10A92000D41CC2F2000EC2F2000C0123DEF800605B
:10A93000DCF8007093403343BA42C4E90844CEF8CF
:10A940000030B6D20B68CCF80020D3B1DB6B9A4252
:10A95000AFD20C6085F3108800680028B5D14EF6A0
:10A960000450CEF200004FF080510160EFF30580FB
:10A970000028AAD1EFF3108062B680F3108801B0EE
:10A98000F0BD0C6095E7000070B5044640F2C810B9
:10A99000C2F200000668EFF3108572B6A6420DD130
:10A9A000204650F84C1F0131022928BF00F06CF9F5
:10A9B000E06940F2F011C2F20001086040F2E010DC
:10A9C000C2F20000016840F2CC1C01390160A16BA9
:10A9D000C2F2000C012916D1236AE26A0021A342C7
:10A9E000A1631AD0616A4DF2B86E59620B62C2F26D
:10A9F000050E5EF82210A14208BF4EF82230DCF8A6
:10AA00000010A14229D085F31088DCF800108E4296
:10AA100002D00068002843D070BD4DF2B863C2F286
:10AA2000050343F8221040F2D013C2F200034FF0A6
:10AA3000010E19680EFA02F291430029196041D003
:10AA400040F2D41291FAA1F1C2F20002B1FA81F1FE
:10AA50001160DCF80010A142D5D140F2D411C2F24D
:10AA6000000109684DF2B862C2F2050252F82110E5
:10AA7000CCF8001085F3108800680028CCD14EF681
:10AA80000450CEF200004FF080510160EFF30580DA
:10AA90000028C1D1EFF3108062B680F3108870BD3A
:10AAA0004EF60450CEF200004FF080510160EFF3FB
:10AAB0000580002818BF70BDEFF3108062B680F3E8
:10AAC000108870BD40F2D411C2F2000120220A6049
:10AAD0000021CCF8001085F31088006800289BD175
:10AAE0004EF60450CEF200004FF080510160EFF3BB
:10AAF000058000287FF490AFEFF3108062B680F3FA
:10AB0000108870BD40F2C810C2F20000016840F227
:10AB1000F412EFF3108072B6C2F200020023136049
:10AB200009B10A6B12B180F310887047D1E907327E
:10AB300040F2F01CC2F2000C8A428B61CCF800306B
:10AB4000F1D0CB6AC96B8B42EDD140F2D4114DF2FA
:10AB5000B86CC2F20001C2F2050C09684CF823205F
:10AB60005CF8211040F2CC12C2F20002116080F3B6
:10AB700010887047EFF3108272B6016B04290AD176
:10AB800040F2E011C2F200010B6801330B6082F366
:10AB90001088FFF75FBE836ED0F8AC1082F3108888
:10ABA000002B08BF7047184740F2E011EFF3108008
:10ABB00072B6C2F200010A6801320A6080F310889E
:10ABC0004DF2BC70C2F20500FFF744BE2DE9F04320
:10ABD00087B04DF23C7640F2EC14C2F2050644F622
:10ABE0004D18C2F20004002530468021C4F25418EA
:10ABF0002560C4E90155C4E90355F5F796FE4DF605
:10AC00006C0106F18000C2F205014FF4806204F18C
:10AC10001C03C4E9056627C38DE826004DF2BC700D
:10AC20004DF2D1714AF62152C2F20500C0F6000180
:10AC3000C0F600024346CDE903550595FFF7B4FC85
:10AC4000E0B14DF2BC794DF2D1764AF62157C2F20D
:10AC50000509C0F60006C0F6000700BF04F1200297
:10AC600007CA43468DE80700CDE90325484631462B
:10AC70003A460595FFF798FC0028EFD1C4E90B553B
:10AC800007B0BDE8F083000001684A1C022A27D300
:10AC90008269002A18BF70474A1E202940F2042109
:10ACA000C2F20001096888BF1F2201EB820140F255
:10ACB0000822C2F20002126840F20023C2F200032E
:10ACC0008A1A1B6828BF99180A682AB1536950610B
:10ACD0001861C0E9042302E0C0E904000860816152
:10ACE000704700008169002908BF704702698242ED
:10ACF00008D0436953611A610B6883420AD000216E
:10AD0000816170470A688242F9D100220A600021FD
:10AD10008161704791610A60002181617047000084
:10AD20002DE9F04F83B044F64D11C4F2541188421E
:10AD30001CBF03B000F094B840F2042640F2F814AF
:10AD400040F2FC1BC2F200060027C2F200040DF123
:10AD50000409C2F2000B0DF1080804E02068002885
:10AD60006AD081F31088EFF3108072B631680A68F8
:10AD7000002A029218BFC2F818800F6040F2082221
:10AD80003168C2F20002126804319142316005D18B
:10AD900040F20021C2F2000109683160276080F3AF
:10ADA0001088EFF3108172B605E000BF8AF31088B7
:10ADB000EFF3108172B6029D002DCFD028690022DA
:10ADC0008542019214D06A69C0F81880426110610E
:10ADD0002A680290212A10D3A2F120002860C5F829
:10ADE00018902D610195CBF8005081F3108816E082
:10ADF00000202A680290212AEED2D5E90132E868C3
:10AE0000002B2B600FBF00232D6101954B46AB61DA
:10AE1000CBF8005081F31088002A18BF9047EFF359
:10AE2000108A72B60198CBF80070A842BED12846AD
:10AE3000AF61FFF729FFB9E74DF2BC70C2F2050020
:10AE400003220263012240F2E0138263C2F2000394
:10AE50001A6801321A6081F31088FFF795FD82E7C6
:10AE600030BCBDE8C08F00002DE9F04381B007463B
:10AE700000284FF0020000F09D8088460899342990
:10AE800040F0988040F2E010EFF3108172B6C2F209
:10AE900000001546026899460132026081F310886D
:10AEA00040F2B811C2F200010B68D91BB1FA81F16E
:10AEB0004FEA51162FD040F2BC11C2F200010968CE
:10AEC00049B30222DB6ADE1BB6FA86F64FEA561653
:10AED00021D0541E8C421ED2DB6ADE1BB6FA86F6E7
:10AEE0004FEA561617D08A4215D2DB6ADE1BB6FA35
:10AEF00086F64FEA56160ED0541C8C420BD2DB6AF3
:10AF0000DE1BB6FA86F64FEA561604D0941C8C4225
:10AF100002F10402D6D3EFF3108172B60268013A4F
:10AF2000026081F31088FFF76FFC1EB1022001B0B0
:10AF3000BDE8F08335B1B9F1640F07D2052001B047
:10AF4000BDE8F083032001B0BDE8F08340F2C810F3
:10AF5000C2F20000016840F25C00C2F20000026828
:10AF6000EFF305831A4315D04DF2BC730068C2F2AB
:10AF70000503EFF3058202430020994208BF132026
:10AF8000B2F1F03F38BF1320994213D0B2F1F03F35
:10AF900006D20FE04DF2BC70C2F20500814208D02B
:10AFA000384641462A464B4601B0BDE8F043FEF71D
:10AFB0006DBE132001B0BDE8F0830000F0B581B094
:10AFC000054600284FF0060000F07C80242A40F05F
:10AFD000798040F2E0100F46EFF3108172B6C2F2B2
:10AFE000000002680132026081F3108840F2A8116B
:10AFF000C2F200010B68591BB1FA81F14FEA5116F8
:10B000002FD040F2AC11C2F20001096849B302220C
:10B010009B695E1BB6FA86F64FEA561621D0541E7F
:10B020008C421ED29B695E1BB6FA86F64FEA561614
:10B0300017D08A4215D29B695E1BB6FA86F64FEA94
:10B0400056160ED0541C8C420BD29B695E1BB6FA6E
:10B0500086F64FEA561604D0941C8C4202F1040284
:10B06000D6D3EFF3108172B60268013A026081F321
:10B070001088FFF7C9FB16B1062001B0F0BD40F201
:10B08000C810C2F20000016840F25C00C2F2000089
:10B090000268EFF305831A4316D04DF2BC730068C3
:10B0A000C2F20503EFF3058202430020994208BF74
:10B0B0001320B2F1F03F38BF1320994202D0B2F111
:10B0C000F03F07D201B0F0BD4DF2BC70C2F20500F6
:10B0D000814206D02846394601B0BDE8F040FEF76F
:10B0E00069BE132001B0F0BD10B5E8B1D0F800C0C2
:10B0F00044F24E4EC4F2564EF44515D153B3DDF82A
:10B1000008C0BCF1000F2AD040F25C0CC2F2000C67
:10B11000DCF800C0EFF3058E5CEA0E0C24D04FF093
:10B12000040E4FF0000C03E04FF0060E4FF0000C41
:10B13000BCF1000FF44618BF4FF0080C032A98BF6B
:10B14000F446BCF1000F1CBF604610BDBDE81040C6
:10B15000FEF75CBE4FF0030E4FF0000CE8E74FF037
:10B16000000E4FF0010CE3E740F2C81CC2F2000CE5
:10B17000DCF800E04DF2BC74C2F20504BEEB040C36
:10B18000AEEB0404B4FA84F44FEA54144FEA840E8C
:10B1900018BF4FF0010CCBE72DE9F041064600281F
:10B1A0004FF01C0000F09280342B40F08F8040F272
:10B1B000E0108846EFF3108172B6C2F20000144628
:10B1C00002680132026081F3108840F2C011C2F2BD
:10B1D00000010B68991BB1FA81F14FEA511730D089
:10B1E00040F2C411C2F20001096851B3022200BF4B
:10B1F0001B6A9F1BB7FA87F74FEA571721D0551ED6
:10B200008D421ED21B6A9F1BB7FA87F74FEA57176A
:10B2100017D08A4215D21B6A9F1BB7FA87F74FEAED
:10B2200057170ED0551C8D420BD21B6A9F1BB7FAC5
:10B2300087F74FEA571704D0951C8D4202F104029C
:10B24000D6D3EFF3108172B60268013A026081F33F
:10B250001088FFF7D9FA002F1CBF1C20BDE8F08131
:10B26000012C84BF1F20BDE8F08140F2C810C2F25B
:10B270000000016840F25C00C2F200000268EFF3D7
:10B2800005831A431BD04DF2BC720068C2F205025E
:10B29000EFF3058303430020914208BF1320B3F16D
:10B2A000F03F38BF132011D3914208BFBDE8F081B1
:10B2B000304641462246BDE8F041FEF7ABBE4DF2B6
:10B2C000BC70C2F205008142F2D11320BDE8F081CA
:10B2D00080B580B3026845F24543C4F655539A429F
:10B2E00029D140F25C0CC2F2000C99B1DCF80020CC
:10B2F000EFF305831A434FF004021AD140F2C8134A
:10B30000C2F20003D3F800E04DF2BC73C2F20503B1
:10B310009E450ED0DCF80020EFF305831A430DD0D4
:10B32000DCF80020EFF305831A43B2F1F03F05D2B9
:10B330001322104680BD1C22104680BDBDE880400F
:10B34000FEF79EBEE0B1016845F24542C4F6555293
:10B35000914215D140F25C01C2F200010A68EFF39C
:10B3600005831A4308BFFEF7E3BF0968EFF30582C0
:10B370001143B1F1F03F3CBF13207047FEF7D8BF37
:10B380001C2070472DE9F04F87B0074600284FF08A
:10B390000E0053D08A461699B0294FD140F2E010E2
:10B3A000EFF3108172B6C2F2000093460268DDF836
:10B3B00044800132026081F3108840F2DC1140F2D7
:10B3C000D812C2F20001C2F200020968109C16688D
:10B3D000994601B308EB0402013A0023012B18BF80
:10B3E000BE4218D0F568AC4203D20023AA4209D26B
:10B3F0000DE033699C424FF000033CBF0123002461
:10B40000AA4204D33569AA423CBF00240123D6F8DE
:10B4100088600139E2D1EFF3108172B60268013A17
:10B42000026081F31088FFF7EFF9BE4209D0BBF14B
:10B43000000F4FF0030018BF002C06D107B000F03A
:10B4400061B80E2007B000F05DB8B8F1C80F03D2A4
:10B45000052007B000F056B812991F2903D90F2014
:10B4600007B000F04FB8139A8A4203D9182007B0EA
:10B4700000F048B8DDF854C0BCF1010F03D910202A
:10B4800007B000F03FB840F2C810C2F200000368F5
:10B4900040F25C00C2F200000568EFF305862E431F
:10B4A00015D04DF2BC760068C2F20506EFF30585B3
:10B4B00005430020B34208BF1320B5F1F03F38BF69
:10B4C0001320B342BAD0B5F1F03F06D2B6E74DF241
:10B4D000BC70C2F20500834210D01498CDE9004838
:10B4E000CDE902120490384651465A464B46CDF8F3
:10B4F00014C0FFF759F807B000F004B8132007B0E4
:10B5000000F000B830BCBDE8C08F0000F8F750FE76
:10B51000FDF782FFFDF77AFC02A02221F6F7AAFFD1
:10B52000FEE700BF2E2E2F436F72652F5372632FDD
:10B530006D61696E2E6300004DF6C871C2F205019F
:10B540000A7882420A460AD00A4612F8013F83422C
:10B5500005D011F8022F82420A4618BF704700201A
:10B560001070FDF7ABB9000044210422FDF7A4BA26
:10B5700010B542210446FDF73FFA00F0FB022046D9
:10B580004221BDE81040FDF797BA000010B504460F
:10B59000FDF7ECF920464221FDF72EFA40F00402B7
:10B5A00020464221BDE81040FDF786BA80B508214B
:10B5B000FDF722FA00F0040080BD0000C0B20421B3
:10B5C000FDF71ABAC0B20321FDF716BA44210222D0
:10B5D000FDF772BA2DE9F04F83B00D4611990DF1C8
:10B5E000380A02919AE80205C4B201910D992046E9
:10B5F0000091DDF830B040211E4617464FF040095B
:10B60000FDF7FAF9410705D440F004022046402135
:10B61000FDF752FA0E2000EAD81009EA18414FF05F
:10B620008009084409EA1861421820468021FDF784
:10B6300043FA0AF08000CAF306210A182046812145
:10B64000FDF73AFAC7F3072220468221FDF734FAC4
:10B65000FAB220468321FDF72FFA3A0E20468421C4
:10B66000FDF72AFAC7F3074220468521FDF724FAA1
:10B67000C6F3072220468621FDF71EFAF2B22046C5
:10B680008721FDF719FA320E20468821FDF714FABA
:10B69000C6F3074220468921FDF70EFACBF30722B5
:10B6A00020468A21FDF708FA5FFA8BF220468B21AB
:10B6B000FDF702FACBF3074220469021FDF7FCF993
:10B6C000009E2046F2B29121FDF7F6F9C6F307423B
:10B6D00020469221FDF7F0F9019E2046F2B2932117
:10B6E000FDF7EAF9C6F3074220469421FDF7E4F995
:10B6F000C5F3072220468C21FDF7DEF9EAB2204689
:10B700008D21FDF7D9F92A0E20468E21FDF7D4F9B7
:10B71000C5F3074220468F21FDF7CEF9CAF3074251
:10B7200020469621FDF7C8F9029909EA1A6001F04E
:10B730007F01421820469721FDF7BEF95FFA88F293
:10B740002046982103B000F002B8FDF7B5B930BC2F
:10B75000BDE8C04FFFF7F9BF10B542210446FDF721
:10B760004BF900F0FD0220464221BDE81040FDF7F4
:10B77000A3B9000010B50446FDF7F8F820464221B1
:10B78000FDF73AF940F0020220464221BDE81040A0
:10B79000FDF792B980B50821FDF72EF900F00200FF
:10B7A00080BD000010B582B00C46C0B20DF105029C
:10B7B00014210323FDF748F99DF806109DF80500B4
:10B7C0009DF80720090241EA00401044206002B0C1
:10B7D00010BD000010B5C4B220468021FDF70CF961
:10B7E00040F0010220468021BDE81040FDF764B919
:10B7F00070B50D46044608064FEA112604D0EAB299
:10B8000020465421FDF758F930064FEA154504D07B
:10B81000F2B220465521FDF74FF9280608BF70BD4A
:10B82000EAB220465621BDE87040FDF745B9000058
:10B8300070B51646172A00F2408205460C46DFE82E
:10B8400016F03600180042005A0072008A002400E8
:10B850002400A200AE003C02BA00CC003C02E7008B
:10B860001800FD001B013F015D0181019F01CC011A
:10B8700005022846482122460023002600F028FB26
:10B8800028466021224601230AE028464821224614
:10B890000023002600F01CFB2846602122460023DE
:10B8A00000F016FB2846642122460023A6E0284625
:10B8B000482122460023002600F00AFB284660218A
:10B8C00022460023AFE0FDF751F828464221FDF75C
:10B8D00093F840F0010228464221FDF7EDF8284692
:10B8E000602122460023002600F0F2FA2846642157
:10B8F00022460023B9E0FDF739F828464221FDF73A
:10B900007BF840F0010228464221FDF7D5F8284691
:10B91000602122460023002600F0DAFA284664213E
:10B9200022460023E3E0FDF721F828464221FDF7F7
:10B9300063F840F0010228464221FDF7BDF8284691
:10B94000602122460023002600F0C2FA2846642126
:10B95000224600230DE1FDF709F828464221FDF7B4
:10B960004BF840F0010228464221FDF7A5F8284691
:10B97000602122460023002600F0AAFA284664210E
:10B980002246002340E12846482122460023002683
:10B9900000F09EFA284660212246002316E0284641
:10B9A000482122460023002600F092FA2846602112
:10B9B000224600231CE02846482122460023002678
:10B9C00000F086FA284660212246012300F080FA22
:10B9D00028466421224601232BE02846482122469E
:10B9E0000023002600F074FA284660212246012335
:10B9F00000F06EFA284664212246012300F068FA1E
:10BA0000284668212246002300F062FA304670BDC5
:10BA10002846482122460023002600F059FA2846ED
:10BA200060212246012300F053FA28466421224671
:10BA3000002300F04DFA2846682101E1FCF796FF4B
:10BA400028464221FCF7D8FF40F001022846422157
:10BA5000FDF732F82846602122460023002600F038
:10BA600037FA284664212246012300F031FA28469D
:10BA70006821224601231CE0FCF778FF284642217A
:10BA8000FCF7BAFF40F0010228464221FDF714F806
:10BA90002846602122460023002600F019FA284695
:10BAA00064212246012300F013FA28466821224629
:10BAB000002300F00DFA28464C2122460123AFE076
:10BAC000FCF754FF28464221FCF796FF40F00102A4
:10BAD00028464221FCF7F0FF284660212246002339
:10BAE000002600F0F5F9284664212246012300F0E3
:10BAF000EFF928466821224601231CE0FCF736FFB7
:10BB000028464221FCF778FF40F0010228464221F6
:10BB1000FCF7D2FF2846602122460023002600F0D1
:10BB2000D7F9284664212246012300F0D1F928469E
:10BB300068212246002300F0CBF928464C212246FA
:10BB4000012340E0FCF712FF28464221FCF754FF96
:10BB500040F0010228464221FCF7AEFF2846602152
:10BB600022460023002600F0B3F92846642122462D
:10BB7000012300F0ADF928466821224601231CE08C
:10BB8000FCF7F4FE28464221FCF736FF40F00102A4
:10BB900028464221FCF790FF2846602122460023D8
:10BBA000002600F095F9284664212246012300F082
:10BBB0008FF9284668212246002300F089F928469B
:10BBC0004C212246002300F083F90120FCF7ACFE53
:10BBD00028465021224600232BE0FCF7C7FE2846CA
:10BBE0004221FCF709FF40F0010228464221FCF700
:10BBF00063FF2846602122460023002600F068F9F2
:10BC0000284664212246012300F062F92846682173
:10BC10002246012300F05CF928464C2122460023ED
:10BC200000F056F90120FCF77FFE284650212246FD
:10BC3000012300F04DF90120FCF776FE284648214B
:10BC40002246012300F044F9304670BDFCF78EFE19
:10BC500028464221FCF7D0FE40F00102284642214E
:10BC6000FCF72AFF2846602122460023002600F028
:10BC70002FF9284664212246012300F029F928469D
:10BC800068212246002300F023F928464C21224651
:10BC9000002300F01DF90120FCF746FE2846502144
:10BCA0002246012300F014F90120FCF73DFE28464E
:10BCB00048212246012300F00BF9304670BD0000F8
:10BCC00010B542210446FCF797FE00F0FE02204624
:10BCD0004221BDE81040FCF7EFBE000010B504465D
:10BCE000FCF744FE20464221FCF786FE40F00102AC
:10BCF00020464221BDE81040FCF7DEBEF0B581B021
:10BD00000C460906064614D030460C21FCF774FE9A
:10BD100005464FF60070C0F2FF00044210D03046D6
:10BD20000D21FCF769FE0702B4F5803F0CD200201C
:10BD30000FE000254FF60070C0F2FF000442EED184
:10BD40000027B4F5803FF2D330460E21FCF754FEB5
:10BD5000000447EA05010844204001B0F0BD00009E
:10BD6000F0B581B00C460906064615D030461021C4
:10BD7000FCF742FE054614F47F4F11D030461121E6
:10BD8000FCF73AFE070214F47F0F0DD03046122163
:10BD9000FCF732FE000408E0002514F47F4FEDD1DB
:10BDA000002714F47F0FF1D1002047EA0501084471
:10BDB000204001B0F0BD0000B0B50C464021054662
:10BDC000FCF71AFE00F0F6014A1C0021B1EB144FFB
:10BDD00018BF40F0090228464021FCF76DFE012003
:10BDE000BDE8B040FCF7A0BD0B466C21002A1A4606
:10BDF0004FF0010308BF702100F06AB810B54DF68E
:10BE0000C871C2F205010A780446824210D048780F
:10BE1000A0420DD08B78A3420AD01AB120B13BB911
:10BE2000022002E0002000E001200C54FCF7C6FDD7
:10BE300020464121FCF7E0FD40F00202204641216E
:10BE4000FCF73AFE0120FCF76FFD20464121FCF78C
:10BE5000D3FD40F0010220464121FCF72DFE0120D8
:10BE6000BDE81040FCF760BD80B540214022FCF7E2
:10BE700023FEBDE88040FCF759BD000010B5044624
:10BE80000120FCF751FDFCF799FD20460021FCF74D
:10BE9000B3FD10BD80B540218022FCF70DFE0A20C5
:10BEA000BDE88040FCF740BD80B54DF6C871C2F2D8
:10BEB00005010A78824207D04A78824204D0897804
:10BEC000814218BFFCF732FDBDE88040FCF7E0BDC1
:10BED0002DE9F04381B0984617468946044610067E
:10BEE0004FEA12250FD020464946FCF785FD40EA6F
:10BEF0000701B8F1000F08BF20EA0701CAB22046C7
:10BF00004946FCF7D9FD28064FEA174712D009F138
:10BF10000100C6B220463146FCF76EFD40EA05013D
:10BF2000B8F1000F08BF20EA0501CAB22046314629
:10BF3000FCF7C2FD380615D009F10200C6B2204652
:10BF40003146FCF759FD40EA0701B8F1000F08BF80
:10BF500020EA0701CAB22046314601B0BDE8F043ED
:10BF6000FCF7AABD01B0BDE8F083000080B582B047
:10BF70004DF6CC704EF200024FF0340CC2F20500C8
:10BF80000AA1C2F205024FF42053CDF800C0FEF71B
:10BF90006BFF00281CBF02B080BD4DF6CC70C2F212
:10BFA000050002B0BDE88040F5F70EBE5478204190
:10BFB0007070206D656D6F727920706F6F6C00000E
:10BFC0005FEA400C08BF91F0000F4FEA8C234FEA64
:10BFD000C12243EA51514FEA1C5018BF00F5F0400E
:10BFE0004FEA300018BF41F000415FEA6C5C00F09E
:10BFF0002980BCF1FF3F08BF40F080407047130C20
:10C0000006BF12044FF0100C4FF0000C130E04BFCB
:10C0100012020CF1080C130F04BF12010CF1040CF6
:10C02000930F04BF92000CF1020CD30F04BF520017
:10C030000CF1010C11464FF00002A0F11F00A0EB23
:10C040000C00704711F0004F08BF704731F00041FD
:10C050003FF4D5AF0B0C06BF09044FF0100C4FF0A6
:10C06000000C0B0E04BF09020CF1080C0B0F04BFEF
:10C0700009010CF1040C8B0F04BF89000CF1020CB8
:10C08000CB0F04BF49000CF1010CCCF1200322FAC4
:10C0900003F341EA030102FA0CF2A0EB0C0000F1F9
:10C0A0000100704723F07F4720F07F4C80EA0300B7
:10C0B00000F00040ACEB070303F57C5303F1FF03F2
:10C0C0002DE9804909B44FEA144324EA03484FEAB2
:10C0D000154B25EA0B4E0FF2042606EB13273E788C
:10C0E00003FB0667C7F5000707FB06F64FEAD646CF
:10C0F00006F102064FEA543707FB066CCCF1005CF0
:10C100004FEA1C472CEA074C0CFB06F507FB06F42C
:10C1100004EB15464FEA961649085FEA320234BF2F
:10C1200000204FF000404FEAD13706FB07FC4FEAF2
:10C130001C4C0CFB0BF7D21B03FB0CF761EB07014C
:10C140000CFB0EF7B0EB074072EB17420CFB08F745
:10C1500034BFA2EB0742B2EB074261EB17414FEA53
:10C160000C444FEA910706FB07FC4FEA1C4C0CFB02
:10C170000BF7B0EBC74072EB573203FB0CF734BF41
:10C18000A2EBC742B2EBC74261EB57310CFB0EF793
:10C19000B0EBC70072EB57720CFB08F734BFA2EB91
:10C1A000C702B2EBC70261EB57714FEA816141EA06
:10C1B00092114FEA826242EA90124FEA806004EBE9
:10C1C000CC04039F4FEAD13706FB07FC4FEA1C4C17
:10C1D0000CFB0BF7D21B03FB0CF761EB07010CFB0D
:10C1E0000EF7B0EB074072EB17420CFB08F734BFB9
:10C1F000A2EB0742B2EB074261EB17414FEA8C55C5
:10C2000004EB9C244FEA910706FB07FC4FEA1C4C09
:10C210000CFB0BF7B0EBC74072EB573203FB0CF78C
:10C2200034BFA2EBC742B2EBC74261EB57310CFB04
:10C230000EF7B0EBC70072EB57720CFB08F734BF78
:10C24000A2EBC702B2EBC70261EB57714FEA816103
:10C2500041EA92114FEA826242EA90124FEA80600C
:10C2600015EB4C2544F100044FEAD13706FB07FCDF
:10C270004FEA1C4C0CFB0BF7D21B03FB0CF761EBDA
:10C2800007010CFB0EF7B0EB074072EB17420CFBFB
:10C2900008F734BFA2EB0742B2EB074261EB17414C
:10C2A0004FEA813141EA92414FEA823242EA9042BA
:10C2B0004FEA80304FEA0C7615EB1C1544F1000470
:10C2C00048EA03434EEA0B484FF0000EB2EB080C6D
:10C2D00071EB030724BF624639464EEB0E0E4FF05A
:10C2E000000B0018524149414BEB0B0BB2EB080C11
:10C2F00071EB03077BF1000B24BF624639464EEB1E
:10C300000E0E4FF0000B0018524149414BEB0B0B46
:10C31000B2EB080C71EB03077BF1000B24BF624604
:10C3200039464EEB0E0E51EA020718BF46F00106E1
:10C3300016EB0E7655F1000254F1000103D5BDE86D
:10C340008901BDE80088BDE88901BDE80048B6194B
:10C35000524141EB0101A3F10103704780807F7ED0
:10C360007D7C7B7A7978777676757473727171706B
:10C370006F6E6E6D6C6C6B6A6A696868676666651D
:10C380006464636362616160605F5F5E5E5D5D5CAB
:10C390005C5B5B5A5A59595858575756565555551C
:10C3A0005454535352525251515050504F4F4F4E7C
:10C3B0004E4D4D4D4C4C4C4B4B4B4A4A4A494949CA
:10C3C000484848474747474646464545454444440C
:10C3D0004443434343424242424141419C46002B35
:10C3E00030D477002BD04FEA37071CB503B44FF099
:10C3F00010004FF01001BAF1000F06D0BCF1000F91
:10C40000DCBF40F0080040F008014FF000000FBC16
:10C41000BDE810400BF1010BBBF1010F08BF5FEA53
:10C42000170722BF12F1010211F101014FF0004183
:10C4300043F1000300F0004043EA00007047F9D3E5
:10C440005708D0E746EA06464FEA164613F1400F72
:10C450001FDD13F1200FDFBF16430A4600212033F2
:10C460005B42BED0C3F1200746EA06464FEA1646B5
:10C4700002FA07F746EA070622FA03F2C3F1200799
:10C4800001FA07F742EA070221FA03F14FF000032D
:10C49000A7E746EA020646EA06464FEA164646EA95
:10C4A0000106BCBF46EA0646360C4FF000034FF0CB
:10C4B00000024FF0000194E72DE9804C70B49A46D9
:10C4C000934691E8380007C831EA400C48BF34EA87
:10C4D000430C03D5FFF7E6FDFFF780FFF0BCBDE896
:10C4E000008C2DE9804C70B49A46934691E8380050
:10C4F00007C810F0804F08BF13F0804F03D100F041
:10C5000005F8FFF76BFFF0BCBDE8008C20F07F471B
:10C5100023F07F4C80EA030000F0004007EB0C039F
:10C52000A3F57C53A3F1FE0392F0000F00F0B3805B
:10C5300095F0000F00F077802DE901494FEA114096
:10C5400021EA00484FEA144624EA064700FB06FCAD
:10C5500008FB06F607FB08F818EB06484CEB164CF0
:10C5600000FB07F718EB07484CEB17404FEA124B5C
:10C5700022EA0B4E4FEA154625EA06470BFB06FC5E
:10C580000EFB06F607FB0EFE1EEB064E4CEB164CA2
:10C590000BFB07F71EEB074E4CEB174B18EB0B088A
:10C5A00040F1000018EB0E0B58EB000840F10000C2
:10C5B0008F1A4FF000014FF000063CBFC943661BC5
:10C5C00014BFB5EB040C00213CBFC943F61B4FEA76
:10C5D000174427EA04454FEA1C472CEA074C04FBA2
:10C5E000076205FB07F70CFB05F616EB074642EB67
:10C5F000174204FB0CFC16EB0C4642EB1C421BEBF7
:10C60000060658EB020241414EEA8E0E46EA9E06AD
:10C6100001D5BDE80189B619524141EB0101A3F1F1
:10C620000103BDE801894FEA144524EA05464FEAB3
:10C63000114721EA074C05FB07F406FB07F70CFB43
:10C6400006F111EB074144EB174405FB0CFC11EB21
:10C650000C4144EB1C444FEA124722EA074C05FB0D
:10C6600007F206FB07F70CFB06F616EB074642EB54
:10C67000174205FB0CFC16EB0C4642EB1C456A18F6
:10C6800054F1000148BF7047B619524141EB010116
:10C69000A3F10103704795F0000F37D04FEA114224
:10C6A00021EA02464FEA144724EA074C02FB07F14D
:10C6B00006FB07F70CFB06F414EB074441EB1741AC
:10C6C00002FB0CFC14EB0C4441EB1C414FEA1547F8
:10C6D00025EA074C02FB07F506FB07F70CFB06F6FD
:10C6E00016EB074645EB174502FB0CFC16EB0C4618
:10C6F00045EB1C42121951F1000148BF7047B619B1
:10C70000524141EB0101A3F1010370474FEA144587
:10C7100024EA05464FEA114721EA074C05FB07F1D9
:10C7200006FB07F70CFB06F212EB074241EB174141
:10C7300005FB0CFC12EB0C4251EB1C414FF00006C8
:10C7400048BF7047921841EB0101A3F10103704704
:10C7500003B401984100009850EAC12018BF04209A
:10C760004A0D18BF40F0010040F2FF72B2EB515F7A
:10C7700008BF40F00200012808BF052002B0704742
:10C7800030380A2801D2012070470020704700008D
:10C7900010B500290AD00878002807D00548784449
:10C7A000F5F756F8002801D0002010BD0248784463
:10C7B00010BD00006A1000006210000010B50029D2
:10C7C0000AD00878002807D005487844F5F740F8E3
:10C7D000002801D0002010BD0248784410BD0000A0
:10C7E0005A10000052100000F1EE100A4FF6FF71CF
:10C7F000C0F2C03120EA010040F04070E1EE100AC2
:10C800007047F4F73DBCF4F775BD04000008000064
:10C810000000000000020001000010000000000005
:10C820000000000030313233343536373839414278
:10C830004344454640305800303132333435363782
:10C840003839616263646566403078003031323374
:10C850003435363738396162636465667870003024
:10C8600031323334353637383941424344454658FE
:10C870005000000002400000000000A00000000086
:10C8800005400000000000C8000000000C4000004F
:10C890000000409C00000000194000000020BCBEC9
:10C8A0000000000034400000BFC91B8E00000004DF
:10C8B000B5400000504BCFD06607E2CF010000002A
:10C8C0006C4100003E8251AADFEEA7340100000057
:10C8D000D9420000DCB5A0E23A301F97FFFFFFFF0E
:10C8E000B4450000FD25A0C8E9A3C14FFFFFFFFF2D
:10C8F000FF3F00000000008000000000FF3F00003C
:10C9000000000080000000000000000000000000A7
:10C9100001020304060708090000000001020304E5
:10C92000A0860100400D0300801A060000350C00AF
:10C9300040420F0080841E0000093D0000127A0072
:10C940000024F40000366E010048E801006CDC02AF
:10C95000010002000400060008000A000C0010009C
:10C9600020004000800000010000000004000000E2
:10C9700002000000080000000400000003000000A6
:10C9800002000000020000000200000001000000A0
:10C990000100000002000000010101030701000086
:10C9A000080402040801010101212700F0FD3F00F5
:10C9B0000120280070FE3F00011E2A0020FF3F00DA
:10C9C000011D2B0000000000011C2C0000010000D4
:10C9D000011B2D0020020000011B2D005003000050
:10C9E000011A2E009004000001192F00F00500002C
:10C9F00001192F006007000001183000E008000056
:10CA000001183000700A000001173100100C0000FE
:10CA100001173100C00D000001163200800F000028
:10CA200001163200501100000115330030130000D0
:10CA30000115330020150000011534001017000007
:10CA4000011434002019000001143400301B0000D0
:10CA500001133500501D000001133500801F000038
:10CA600001133500B021000001123600F023000050
:10CA70000112360040260000011236009028000006
:10CA800001113700F02A000001113700602D00006D
:10CA900001113700D02F0000011038005032000083
:10CAA00001103800E0340000011038007037000039
:10CAB00001103800003A0000010F3900A03C0000CE
:10CAC000010F3900503F0000010F39000042000003
:10CAD000010F3A00B0440000010E3A008047000008
:10CAE000010E3A00504A0000010E3A00204D0000AD
:10CAF000010E3B00F04F0000010D3B00E052000032
:10CB0000010D3B00D0550000010D3B00C058000056
:10CB1000010D3B00B05B0000010C3C00B05E00006A
:10CB2000010C3C00C0610000010C3C00D06400001E
:10CB3000010C3C00E0670000010C3D00F06A0000C1
:10CB4000010B3D00206E0000010B3D005071000004
:10CB5000010B3D0080740000010B3D00B077000028
:10CB6000010B3E00E07A0000010A3E00307E00002A
:10CB7000010A3E0080810000010A3E00D0840000CE
:10CB8000010A3E0020880000010A3E00708B000070
:10CB900001093F00D08E000001093F0040920000D3
:10CBA00001093F00B095000001093F0020990000F5
:10CBB00001093F00909C000001093F0000A0000017
:10CBC0000109400070A300000108400000A7000018
:10CBD0000108400090AA00000108400020AE0000BB
:10CBE00001084000B0B100000108400040B500005D
:10CBF00001084100D0B800000107410080BC0000DE
:10CC00000107410030C0000001074100E0C30000FF
:10CC10000107410090C700000107410040CB000020
:10CC200001074100F0CE000001064200B0D2000032
:10CC30000106420080D600000106420050DA0000E2
:10CC40000106420020DE000001064200F0E1000083
:10CC500001064200C0E500000106420090E9000024
:10CC60000106430060ED00000106430040F10000B2
:10CC70000105430030F500000105430020F90000E4
:10CC80000105430010FD0000010543000001010003
:10CC900001054300F004010001054300E008010024
:10CCA00001054400D00C010001054400D010010032
:10CCB00001044400E014010001044400F0180100E4
:10CCC00001044400001D0100010444001021010082
:10CCD0000104440020250100010444003029010022
:10CCE00001044400402D01000104440050310100C2
:10CCF0000104440060350100010345008039010052
:10CD000001034500B03D010001034500E041010081
:10CD1000010345001046010001034500404A01009F
:10CD200001034500704E010001034500A0520100BF
:10CD300001034500D056010001034500005B0100DE
:10CD400001034500305F01000103460060630100FC
:10CD500001034600A067010001034600E06B0100EB
:10CD6000010246003070010001024600807401009B
:10CD700001024600D078010001024600207D01003A
:10CD8000010246007081010001024600C0850100D9
:10CD900001024600108A010001024600608E010077
:10CDA00001024600B0920100010246000097010016
:10CDB00001024600509B010001024700A09F0100B4
:10CDC0000102470000A401000101470070A8010012
:10CDD00001014700E0AC01000101470050B1010032
:10CDE00001014700C0B501000101470030BA010050
:10CDF00001014700A0BE01000101470010C301006E
:10CE00000101470080C7010001014700F0CB01008C
:10CE10000101470060D0010001014700D0D40100AA
:10CE20000101470040D9010001014700B0DD0100C8
:10CE30000101470020E201000101470090E60100E6
:10CE40000101470000EB01000101470070EF010004
:10CE500001004800F0F301000100480080F80100E3
:10CE60000100480010FD010001004800A00102007F
:10CE7000010048003006020001004800C00A02001C
:10CE800001004800500F020001004800E0130200BA
:10CE9000010048007018020001004800001D020057
:10CEA00001004800902102000100480020260200F5
:10CEB00001004800B02A020001004800402F020093
:10CEC00001004800D0330200010048006038020031
:10CED00001004800F03C02000100480080410200CF
:10CEE000010048001046020001004800A04A02006C
:10CEF00001004800304F020001004800C05302000A
:10CF0000010048005058020001004800E05C0200A7
:10CF10000100480070610200010048000066020044
:10CF200001004800906A020001004800206F0200E2
:10CF300001004800B0730200010048004078020080
:10CF400001004800D07C020001004800608102001E
:10CF500001004900F085020001004900908A0200AA
:10CF600001004900308F020001004900D093020007
:10CF7000010049007098020001004900109D020064
:10CF800001004900B0A102000100490050A60200C2
:10CF900001004900F0AA02000100490090AF020020
:10CFA0000100490030B4020001004900D0B802007D
:10CFB0000100490070BD02000100490010C20200DA
:10CFC00001004900B0C602000100490050CB020038
:10CFD00001004900F0CF02000100490090D4020096
:10CFE0000100490030D9020001004900D0DD0200F3
:10CFF0000100490070E202000100490010E7020050
:10D0000001004900B0EB02000100490050F00200AD
:10D0100001004900F0F402000100490090F902000B
:10D020000100490030FE020001004900D002030067
:10D03000010048007007030001004800000C0300D5
:10D040000100480090100300010048002015030073
:10D0500001004800B019030001004800401E030011
:10D0600001004800D02203000100480060270300AF
:10D0700001004800F02B030001004800803003004D
:10D08000010048001035030001004800A0390300EA
:10D0900001004800303E030001004800C042030088
:10D0A000010048005047030001004800E04B030026
:10D0B00001004800705003000100480000550300C3
:10D0C000010048009059030001004800205E030061
:10D0D00001004800B06203000100480040670300FF
:10D0E00001004800D06B030001004800607003009D
:10D0F00001004800F074030001004800807903003B
:10D1000001004800107E030001004800A0820300D7
:10D11000010048003087030001004800C08B030075
:10D12000010048005090030001004800E094030013
:10D13000010147006099030001014700D09D0300F1
:10D140000101470040A2030001014700B0A603000F
:10D150000101470020AB03000101470090AF03002D
:10D160000101470000B403000101470070B803004B
:10D1700001014700E0BC03000101470050C103006A
:10D1800001014700C0C503000101470030CA030088
:10D1900001014700A0CE03000101470010D30300A6
:10D1A0000101470080D7030001014700F0DB0300C5
:10D1B0000101470060E0030001024700C0E40300F2
:10D1C0000102470020E903000102460080ED030050
:10D1D00001024600D0F103000102460020F60300E0
:10D1E0000102460070FA030001024600C0FE03007F
:10D1F000010246001003040001024600600704001B
:10D2000001024600B00B04000102460000100400B9
:10D21000010246005014040001024600A018040058
:10D2200001034600E01C0400010346002021040025
:10D23000010346006025040001034500A029040005
:10D2400001034500D02D0400010345000032040015
:10D25000010345003036040001034500603A040034
:10D2600001034500903E040001034500C042040054
:10D2700001034500F046040001034500204B040073
:10D2800001034500504F04000104440070530400A2
:10D29000010444008057040001044400905B040032
:10D2A00001044400A05F040001044400B0630400D2
:10D2B00001044400C067040001044400D06B040072
:10D2C00001044400E06F040001044400F073040012
:10D2D00001054400F077040001054400F07B0400E0
:10D2E00001054300F07F040001054300E0830400D2
:10D2F00001054300D087040001054300C08B0400F2
:10D3000001054300B08F040001054300A093040011
:10D31000010643008097040001064300609B04005F
:10D3200001064200409F04000106420010A30400D1
:10D3300001064200E0A6040001064200B0AA040073
:10D340000106420080AE04000106420050B2040013
:10D350000106420020B6040001074100E0B90400C4
:10D360000107410090BD04000107410040C10400D5
:10D3700001074100F0C4040001074100A0C80400F7
:10D380000107410050CC040001084100F0CF040027
:10D390000108400090D304000108400020D7040099
:10D3A00001084000B0DA04000108400040DE04003B
:10D3B00001084000D0E104000109400050E50400EC
:10D3C00001093F00D0E8040001093F0040EC0400DF
:10D3D00001093F00B0EF040001093F0020F3040001
:10D3E00001093F0090F6040001093F0000FA040023
:10D3F000010A3E0060FD0400010A3E00B000050085
:10D40000010A3E0000040500010A3E005007050025
:10D41000010A3E00A00A0500010B3E00E00D0500D8
:10D42000010B3D0020110500010B3D0050140500CB
:10D43000010B3D0080170500010B3D00B01A0500EF
:10D44000010C3D00D01D0500010C3C00F020050042
:10D45000010C3C0000240500010C3C0010270500D5
:10D46000010C3C00202A0500010D3B00202D050089
:10D47000010D3B0010300500010D3B00003305009D
:10D48000010D3B00F0350500010E3B00D0380500D2
:10D49000010E3A00B03B0500010E3A00803E050047
:10D4A000010E3A0050410500010F3A0010440500FA
:10D4B000010F3900D0460500010F390080490500F1
:10D4C000010F3900304C050001103800D04E050026
:10D4D000011038006051050001103800F0530500BC
:10D4E0000110380080560500011137000059050071
:10D4F00001113700705B050001113700E05D050088
:10D5000001123600406005000112360090620500ED
:10D5100001123600E06405000113350020670500A4
:10D52000011335005069050001133500806B0500BB
:10D5300001143400A06D050001143400B06F050023
:10D5400001153400B071050001153300B0730500FA
:10D5500001153300A0750500011632008077050023
:10D56000011632005079050001173100107B0500CB
:10D5700001173100C07C050001183000607E0500F5
:10D5800001183000F07F050001192F00708105009F
:10D5900001192F00E0820500011A2E0040840500C9
:10D5A000011B2D0080850500011B2D00B0860500A4
:10D5B000011C2C00D0870500011D2B00D088050020
:10D5C000011E2A00B089050001202800608A05009C
:10D5D00001212700E08A05004465627567204D75CA
:10D5E00074657820437265617465204661696C0DCD
:10D5F0000A004465627567204D7574657820437232
:10D600006561746520537563636573730D0A004526
:10D610004D4700444542554700434F4D4D4F4E0046
:10D620005741524E00494E464F00455252005561F7
:10D630007274204576656E7420437265617465204E
:10D640004661696C0D0A0055617274204576656EFD
:10D6500074204372656174652053756363657373E9
:10D660000D0A0055736572204461746120496E692A
:10D6700074206F6B0D0A0042737020496E6974202C
:10D680006F6B0D0A00496E70757420496E697420C5
:10D690006F6B0D0A0025732025730D0A004D617212
:10D6A00020313520323032320031343A33383A3496
:10D6B000360057726F6E6720706172616D657465B8
:10D6C00072732076616C75653A2066696C652025F9
:10D6D00073206F6E206C696E652025640D0A002E24
:10D6E0002E2F53797374656D2F53797374656D2E76
:10D6F00063002E2E2F4253502F4273702E6300561C
:10D700006572746963616C53796E63203D20256492
:10D710000D0A00486F72697A6F6E74616C53796E8E
:10D7200063203D2025640D0A005043506F6C6172E8
:10D73000697479203D2025640D0A004445506F6CC2
:10D740006172697479203D2025640D0A00485350A8
:10D750006F6C6172697479203D2025640D0A005652
:10D7600053506F6C6172697479203D2025640D0AF5
:10D77000002E2E2F4253502F446973706C617944F0
:10D7800072697665722E630075734465764964200C
:10D790003D2025580D0A004F5350495F526563657F
:10D7A000697665204661696C0D0A002E2E2F426F46
:10D7B0006172642F424F4152445F53544D33324C97
:10D7C000345239495F444953434F564552592E63A9
:10D7D0000053797374656D2054696D6572205468C7
:10D7E000726561640000000040D90008000000205C
:10D7F000F0000000F801000830DA0008F000002016
:10D80000180D0600140200081C0000004300000070
:10D81000F8FFFFFF0C0000000E0000000F000000EA
:10D820002E0000001001000043000000F8FFFFFF81
:10D830000040404040404040404041414141414023
:10D8400040404040404040404040404040404040D8
:10D850004005020202020202020202020202020267
:10D86000022020202020202020202002020202026C
:10D8700002029090909090901010101010101010C4
:10D8800010101010101010101010101002020202D0
:10D890000202888888888888080808080808080814
:10D8A0000808080808080808080808080202020210
:10D8B0004000000000000000000000000000000028
:10D8C0000000000000000000000000000000000058
:10D8D0000000000000000000000000000000000048
:10D8E0000000000000000000000000000000000038
:10D8F0000000000000000000000000000000000028
:10D900000000000000000000000000000000000017
:10D910000000000000000000000000000000000007
:10D9200000000000000000000000000000000000F7
:10D9300000000000000000000000000000000000E7
:10D94000010000001000000044656275674D7574A9
:10D9500065780000B80B0000010000000000000026
:10D9600000000000000000000000001001000000A6
:10D97000010000000200000002000000860100001B
:10D98000860100000100000001000000000000000E
:10D99000020000000800000000093D00F0F0F0F077
:10D9A0000000FFFF00FF00FFFF0000FF696E7075C1
:10D9B000744576656E740000FDBD000839B5000839
:10D9C0007DBE000895BE000869BE0008A9BE00081B
:10D9D000D5B70008D5B50008A5B7000875B7000889
:10D9E000CDB5000895B7000859B700088DB50008F7
:10D9F00069B50008ADB5000871B50008C5B50008E7
:10DA0000BDB50008FDBD00087DBE000895BE00083C
:10DA1000B9BD000831B80008E9BD000861BD0008C3
:10DA2000DDBC0008C1BC0008FDBC0008F1B700085F
:04000005080001BD31
:00000001FF
